S012000043435F554152545F4C61622E73333753
S113000000000420C1010000ED010000ED0100002A
S1130010ED010000ED010000ED010000ED01000024
S1130020ED010000ED010000ED010000ED01000014
S1130030ED010000EC010000ED010000ED01000005
S1130040ED010000ED010000ED010000ED010000F4
S1130050ED010000ED010000ED010000ED010000E4
S1130060ED010000ED010000ED010000ED010000D4
S1130070ED010000ED010000ED010000ED010000C4
S1130080ED010000F5230000ED010000ED0100008A
S1130090ED010000ED01000031270000ED0100003A
S11300A0ED010000ED010000ED0100002D2600002F
S11300B0ED010000ED010000ED010000ED01000084
S11300C0ED010000ED010000ED010000ED01000074
S11300D0ED010000ED010000ED010000ED01000064
S11300E0ED010000ED01000065240000ED010000B9
S11300F0ED010000ED010000ED010000ED01000044
S1130100ED010000ED010000ED01000010B5054C0B
S1130110237833B9044B13B10448AFF300800123AF
S1130120237010BD00020020000000009859000058
S113013008B5034B1BB103490348AFF3008008BD66
S1130140000000000402002098590000154B002B09
S113015008BF134B9D46A3F5803A00218B460F46FA
S11301601348144A121A03F0F6F80F4B002B00D070
S113017098470E4B002B00D0984700200021040024
S11301800D000D48002802D00C48AFF3008003F0A6
S1130190B3F82000290002F0C1FB03F099F800BF76
S11301A0000008000000042000000000000000001F
S11301B000020020C4030020000000000000000032
S11301C0064880470649074A074B9A42BEBF51F882
S11301D0040B42F8040BF8E7FFF7B8FF81020000B4
S11301E0A45900000000002000020020FEE700BF28
S11301F000487047005A6202114BD3F8943003F060
S11302000703023B032B18D8DFE803F00D02141098
S11302104FF400400A4BD3F80031C3F304230133F5
S1130220B0FBF3F07047074B1868F3E7064B186808
S11302304008EFE7054B1868ECE7034B1868E9E75B
S113024000400E4004000020080000200C000020A4
S113025008B5FFF7D1FF054B054AD3F80831C3F3BE
S113026008230133B0FBF3F0106008BD00400E40DA
S113027000000020014B1868704700BF04000020F4
S1130280044B054A9A60D3F8882042F47002C3F8FC
S11302908820704700ED00E0000000004FF40040AB
S11302A0704700BF4FF47A70704700BF014B186865
S11302B0704700BF0C00002010B4C9B20024124BD8
S11302C0124A5B688C42234608D00133052B02F1A5
S11302D0080215D012F8084C8C42F6D152F80C4C96
S11302E08442F2D30A4A02EBC3035B791A06064935
S11302F05DF8044B4B6823F0407313434B60704725
S11303004FF04072F3E700BF00000E408C5600002F
S113031080560000224B98423AD01AD9214B984279
S11303203AD00CD8204B984225D003F5371303F567
S1130330D86398422AD11D4BD3F8A00070471C4BB8
S1130340984214D01B4B984220D1184BD3F8B000DC
S11303507047194B984215D011D9184B984211D0B7
S1130360174B984212D1114BD3F88C0070470F4BA6
S1130370D3F8AC0070470D4BD3F89C007047114B79
S1130380984203D1094BD3F880007047002070478E
S1130390064BD3F898007047044BD3F8A800704775
S11303A0405DC60080BA8C010024F400B081E00FE7
S11303B00048E80180D5430280841E0000093D0006
S11303C0C0CF6A0040420F0038B5074C41F6713384
S11303D0256C2364FFF70CFF0021FFF76DFF0DB1BF
S11303E00023236438BD00BF00000E4010B40C4A43
S11303F00C4BD2F89010516A21F0300141F01001F9
S11304005162146BC0F3C311033123400F2928BF79
S11304100F21034343EA017313635DF8044B7047F0
S113042000400E4000F8FF0F38B5054C41F671331B
S1130430256C2364FFF740FF0DB10023236438BD0E
S113044000000E4030B4C0F30323013B092B0CD849
S1130450DFE803F00D110B0B152D190B2705164CB6
S1130460C0F3043020448000016030BC7047C0F306
S11304700430124CF6E7C0F30430114CF2E7C0F339
S11304800430104CEEE7104CC0F3043010250F4B31
S1130490D3F84421D207E5D4D3F840212A42FBD132
S11304A0E0E7C0F304300A4C4FF48035EFE7C0F3C3
S11304B00430084C0125EAE7800AF2100000F2102B
S11304C00006F2108005F2104007F21000400E40C2
S11304D08007F2100007F210C0F30313013B092B4D
S11304E053D8DFE803F00E141A2452522A303F0581
S11304F0304B984249D1304BD3F8300100F003001F
S113050070472D4BD3F80001C0F3042070472A4BE9
S1130510D3F81401C0F304207047274BD3F800012B
S1130520C0F30060431C0120984001387047224BFF
S1130530D3F80C01C0F3082070471F4BD3F808010F
S1130540C0F3082070471D4B984229D01C4B984299
S11305501BD1194BD3F820310120C3F30113984068
S113056001387047174B984211D003F5B01303F5C7
S11305708053984209D1104BD3F82801C0F30120CD
S1130580031D0120984001387047002070470A4B32
S1130590D3F828310120C3F3011398400138704780
S11305A0054BD3F82031012003F00F0398400138A4
S11305B0704700BFA009140000400E4080061600DA
S11305C080162E0090171A0000F00F00013807283B
S11305D047D8DFE800F0121D3346283E4604264B78
S11305E0D3F85C3103F03003202B40D0302B40D0C3
S11305F0102B0CBF0720012070471F4BD3F89430F9
S113060003F00703023B052B2FD81C4AD05C70472C
S1130610194BD3F8803003F00703013B032B22D896
S1130620174AD05C7047144BD3F8883003F00703A3
S1130630013B032B17D8134AD05C70470E4BD3F8F9
S1130640843003F00703013B032B0CD80E4AD05C23
S11306507047094B1B6F13F0010F14BF09200720CB
S11306607047002070470120704705207047042020
S113067070470820704700BF00400E4070560000CD
S113068078560000785600007C56000008B50146F4
S1130690FFF79AFF1E4B99422FD01E4B994226D04A
S11306A01D4B99421DD00138032803D8DFE800F020
S11306B01511042B002008BDFFF79EFD174BD3F83E
S11306C00031C3F300635A1C01239340B0FBF3F0E1
S11306D008BDBDE80840FFF7E9BDBDE80840FFF7E5
S11306E0DDBD0E4BD3F8800000F00700DBE70B4BB9
S11306F0D3F8880000F00700D5E7084BD3F884004E
S113070000F00700CFE7BDE80840FFF7CBBD00BF0E
S1130710030020000500240002001E0000400E40DB
S113072010B500F47813B3F5B01F00F0AB8019D9FD
S1130730B3F5101F00F0B8804DD9B3F5401F29D090
S11307406AD9B3F5481F3ED0B3F5781F4CD104469F
S1130750FFF752FD01462046FFF7BEFE0130B1FB14
S1130760F0F010BDB3F5202F29D04CD9B3F5602F8C
S11307701ED05ED9B3F5801F2AD0B3F5A01F33D1A4
S11307805548FFF783FF554BD3F8303103F003038B
S1130790D84010BD5248FFF779FF504BD3F82831A9
S11307A0C3F301231A1D01239340B0FBF3F010BDE2
S11307B04C48FFF709FF07280AD0092814D1BDE8DF
S11307C01040FFF719BD4848FFF7FEFE072870D117
S11307D0464B186810BDB3F5F01F60D0B3F5001F89
S11307E035D0B3F5D01F01D0002010BD3C48FFF731
S11307F04DFF3A4BD3F828210123C2F30112934051
S1130800B0FBF3F010BDB3F5003F30D0B3F5802F4B
S113081022D0002BE8D1D2E7B3F5381FE4D1344815
S1130820FFF734FF2D4BD3F82031C3F30113D84025
S113083010BDB3F5402FD7D1FFF7DEFC274BD3F81B
S11308401431C3F304230133B0FBF3F010BD244887
S1130850BDE81040FFF71ABFFFF7CEFC1F4BD3F8DB
S11308600C31C3F308230133B0FBF3F010BDFFF7E1
S1130870C3FC1A4BD3F80831C3F308230133B0FB8C
S1130880F3F010BD1A48FFF701FF144BD3F82021F1
S1130890012302F00F029340B0FBF3F010BD1448A3
S11308A0BDE81040FFF7F2BE0B48BDE81040FFF76B
S11308B0EDBE082805D0042896D1BDE81040FFF706
S11308C0D9BCFFF799FC054BD3F80031C3F30423DB
S11308D003FB000010BD00BF0500240000400E40D3
S11308E00300200006000E00B800320010000020B3
S11308F002001E002DE9F0410546FFF70BFD504BA9
S1130900074611201E681D60FFF75EFE052800F0F3
S11309108B804C4B1C68002CFCD14B4B9D4266D009
S11309204A4B9D4259D04A4B9D4220D01120FFF79B
S11309304BFE052824D1474B9D427DD946490120D1
S11309408D428CBF4FF000714FF08071434B444A8D
S11309501860D2F8003123F080730B43B542C2F81B
S113096000310FD90121284600F05EFD0AE027F08E
S1130970C06747F080671120FFF726FE052833D0B3
S1130980B542EFD8364B11201F61FFF71DFE052835
S113099032D0FFF731FC2F4B98421CD92E4B012447
S11309A098428CBF4FF000734FF080732B492C4A50
S11309B00C60D2F8000120F080701843B542C2F8F0
S11309C0000103D80121002000F02EFD1120BDE814
S11309D0F041FFF7F9BD0023E8E71120FFF7F4FD2C
S11309E0052827F0C067CBD100200146AEE727F0E9
S11309F0C06747F00077BEE7FFF72AFC194B1B6876
S1130A005B0614D5184B194F5968D7F8408041F646
S1130A107133C1F301413B64FFF74EFCB8F1000FA1
S1130A20B7D000233B64B4E7FFF7CEFC71E7104A6C
S1130A301368002BFCD1E5E72046214686E700BF7A
S1130A40080000206028C84380841E0000093D007F
S1130A5040420F000048E8010090D0034000C84322
S1130A6000400E403C300E4000300E4000000E406E
S1130A70C800C6430F4B5B6A13F0300F06D0202921
S1130A8014D0302902D009B10B4A01E04FF44002DE
S1130A900849D1F8903032EA0303FAD1530246BF31
S1130AA0D1F8A000C0F38020012070474FF4000269
S1130AB0EEE700BF00400E40FF33E107F8B504281D
S1130AC018D8DFE800F03018374D52003F4C1C4472
S1130AD0A40000213E4B1D662368002BFCD04AB1C4
S1130AE03A4C3444A4002368002BFCD0022801D1E2
S1130AF0002948D1F8BD8024402506230726002973
S1130B00E4D10120984032490C66D1F89030034278
S1130B10FBD1002AEED001222D49B240D1F8903009
S1130B201342FBD1F8BD4FF400744FF480750823D1
S1130B300926E4E7002944D0254B5C6A14F0300F01
S1130B4018D1244CE46B5C6AE40718D55D6A224C26
S1130B5025F0300545F010055D6203260425B9E74C
S1130B6001252E4602240023C9E72024102504234E
S1130B700526C4E7184C042503260021AAE7164CD1
S1130B8004250326A6E7124A114E516A11F0010109
S1130B901FBF20214FF48063C2F8A8305166FFF7CD
S1130BA069FFD6F89C70012200210220FFF786FF1E
S1130BB0C7F30A00FFF71AFC35662368002BFCD044
S1130BC0F8BD0420082403269DE700BF8004F2102A
S1130BD000400E4000300E400812C843F8B51128FA
S1130BE00C460DD000F00F000138072807D8DFE8C5
S1130BF000F00C6466063F5B062904232B60F8BDF5
S1130C00042900F0908005295BD00025023C0A2CC1
S1130C10F5D801A353F824F03D0E0000050E0000A2
S1130C200B0E0000250E0000FF0B0000FF0B000060
S1130C30FF0B0000FF0B0000FF0B00007B0D00000A
S1130C40430E00004C1E072CD9D801A353F824F0FE
S1130C50770D0000FF0B0000FF0B0000690D000082
S1130C60FF0B0000FF0B00005B0D0000470D0000B0
S1130C707D4D013C092CC2D801A353F824F000BFD8
S1130C80230D0000150D0000070D0000FF0B0000F0
S1130C90FF0B0000D70C0000FF0B0000FF0B00004F
S1130CA0FF0B0000FB0B0000072900F0CF8009298F
S1130CB0A5D16E4B01221A67F8BD6D4DD9E76D4D74
S1130CC0D7E76D4A6D4B15689D429ED90021284691
S1130CD000F0AAFB9AE7FFF78FFA694B984229D8EC
S1130CE000231C466749614A0C60D2F8000101F5F3
S1130CF0AE51083120F0807018430124C2F800017D
S1130D0003230C607AE7012211461046FFF7D6FE52
S1130D10012373E7012211460020FFF7CFFE0223CF
S1130D206CE700236AE7FFF7A5FA054600283FF4BD
S1130D306CAFCBE7544B012498428CBF4FF0007347
S1130D404FF08073CEE73021484AD2F85C3123F06B
S1130D5030030B43C2F85C31F8BD01221146042074
S1130D60FFF7ACFE1021EFE7012211460220FFF746
S1130D70A5FE2021E8E70021E6E70320052401225F
S1130D801146FFF79BFEFFF71FFB1DB13F4B1B688E
S1130D905A0664D5354B5C67FFF75AFA0646FFF7E7
S1130DA02BFA374B98424ED9374B012498428CBFCB
S1130DB04FF000734FF0807332492C4A0C60D2F824
S1130DC00001324920F080701843C2F800010B681A
S1130DD05B063FD52E4B2F4C5968276C41F6713377
S1130DE03046C1F301412364FFF766FA0FB10023D3
S1130DF02364002D7FF403AF28460121BDE8F840A9
S1130E0000F012BB01200324B9E71E4B174A01214D
S1130E101960D2F80031022043F08073C2F8003127
S1130E200446ACE7174B114A01241C60D2F8003188
S1130E3043F08073C2F800310320A0E700200424AB
S1130E409DE707249FE700231C46B5E7074B0022D4
S1130E501A67F8BD104A1368002BFCD1BAE70E4A92
S1130E601368002BFCD195E788400E4000400E40EB
S1130E7080400E4084400E4008000020002D3101C7
S1130E800048E8014000C8430090D0033C300E40C5
S1130E9000300E4000000E40C800C64338B504467A
S1130EA01120FFF791FB012200210220FFF706FE2B
S1130EB0174A257C536A1749207823F00103022D31
S1130EC008BF43F0010353620860A388617AE58890
S1130ED041EAC321D162136B207AA17A03F07F63C4
S1130EE00B43C11C43EAC5230F2943EAC01328BF9F
S1130EF00F2143EA01731363A37B657BE07B217BB2
S1130F001B0143EA0533034343EA0143536338BDFA
S1130F1000400E40A004C843EFF3108072B670473F
S1130F2000B962B6704700BF42EA032340F20112DF
S1130F3093425BD0B3F5817F14D340F201229342F4
S1130F404BD030D9B3F5407F24D040F201329342E4
S1130F503ED12B4BD3F878311A0EC3F30743036009
S1130F600A607047012B2AD00BD3B3F5807F2FD1B1
S1130F70234BD3F86C311A0EC3F3074303600A60A2
S1130F8070471F4BD3F86C31C3F30722DBB2036005
S1130F900A6070471A4BD3F870311A0EC3F3074333
S1130FA003600A607047B3F5007F11D1144BD3F886
S1130FB07031C3F30722DBB203600A607047104B41
S1130FC0D3F87431C3F30722DBB203600A607047BD
S1130FD00022134603600A607047094BD3F8783146
S1130FE0C3F30722DBB203600A607047044BD3F8F3
S1130FF074311A0EC3F3074303600A60704700BFDD
S1131000B081E00F044B1B69C3F30443082B02D1E6
S1131010024B034A1A60704700400E40080000204B
S1131020C0EA2101154B0228D3F8803122D00328CD
S11310301ED0012814BFDBB2C3F307231B0323F420
S1131040704241B992B90E49CA6E22F470421343F8
S1131050CB66012070474AB90949D1F8EC2022F443
S113106070421343C1F8EC300120704700207047F0
S11310701B0EE3E7C3F30743E0E700BFB081E00FD3
S113108000300E400E4B1A6852060FD41B685B06E4
S113109011D50C4B19685A68C1F30121C2F30142FE
S11310A091421A6803D822F010021A60704742F085
S11310B010021A607047044A1368002BFCD1E8E759
S11310C03C300E4000300E40C800C64308B50F4AFD
S11310D00F4BD2F890201A601120FFF775FA0D4BD0
S11310E00D4A1B6810705B060AD50C4B0C485B68F4
S11310F006490C4AC3F3014303700B69136008BD2E
S1131100094A1368002BFCD1EFE700BF00400E40F2
S11311101C0200203C300E402602002000300E400D
S11311202D02002028020020C800C64370B52E4BB3
S11311301B685B0607D42D4B2D491A781023C2F186
S1131140020293400B612B4B2B4DD3F8804126496F
S113115045F60E02C3F88021286840F25512024079
S11311601A660B685E0604F0010426D5204B1B6842
S1131170D80617D51F4AD2F84031D901FBD41F4EE7
S11311801F4B31781B68136105291BD01120FFF711
S113119025FD2B68DB070CD51CB1164B0022C3F8C8
S11311A0802170BD154E31780529EFD12B68DB07FE
S11311B0F2D4104B02221A66EEE7124A1368002B8F
S11311C0FCD1D3E7084B104A1B6810685A0606D5B1
S11311D0074B5968C1F30141FFF726F9E3E7094AD0
S11311E01368002BFCD1F3E73C300E402D020020A5
S11311F000300E4000400E401C0200202602002059
S113120028020020C800C64308000020704700BF21
S1131210704700BF10B5044678BBFFF733FF184A88
S1131220136943F004031361FFF7F0FF154B1B68C8
S1131230DA061BD430BFFFF7EBFF7CB9114B1B68F8
S1131240DB0608D4104A136823F000431360BDE89A
S11312501040FEF7FDBFFFF7D5FEF3E7FFF766FF8B
S1131260094A136823F00043136010BDFFF754FECE
S113127004F0FAF9FFF754FEDDE7FFF727FFCCE7A8
S113128000ED00E000300E404C310E4010B5044635
S113129000283ED1FFF7F6FE1F4BD3F880214FF410
S11312A0207145F60E00C3F880011966D10744BFCA
S11312B00022C3F88021194A136943F0040313611F
S11312C0FFF7A4FF164B1B68DA061BD430BFFFF7E9
S11312D09FFF7CB9124B1B68DB0608D4114A1368C4
S11312E023F000431360BDE81040FEF7B1BFFFF7E1
S11312F089FEF3E7FFF71AFF0A4A136823F0004355
S1131300136010BDFFF708FE04F0AEF9FFF708FE06
S1131310DDE7FFF7DBFEBDE700400E4000ED00E037
S113132000300E404C310E40244B1A68520622D431
S11313302DE9F0411B685C061ED5214E7368C3F38A
S11313400143984215D01F4B0446D3F800310D4693
S1131350FEF752FFC4F102071023022C804603FA61
S113136007F71AD037611DB1144B1B685A061ED5F6
S11313706CB1BDE8F0817047134A1368002BFCD1AF
S11313800F4E7368C3F301439842DCD1F1E7214661
S11313904046BDE8F041FFF747B82146FFF744F85F
S11313A03761002DE5D0054B1B685B06E1D4064A86
S11313B01368002BFCD1002CDBD1E8E73C300E4055
S11313C000300E4000400E40C800C64340B1134BED
S11313D01B7813B1124B98421BD90020FFF7A4BF0E
S11313E010B582B00F4B0191D3F80041FEF704FF12
S11313F00A4B01991B78C4F3042404FB000013B1C5
S1131400074B984208D9002002B0BDE81040FFF70E
S11314108BBF0220FFF788BF0220F5E72C020020D3
S1131420002D310100400E40034B1B685B0601D4C4
S1131430FFF7CCBF704700BF3C300E4006494278EE
S11314400B6823F4407343EA0223022A0B6004BFAF
S1131450024B5B6A704700BF00300E4000400E40F4
S113146010B4244A4AF6E853546B5363936FDB0772
S1131470FCD4136C13F0030322D01F4A01218342CE
S113148011601AD0032B02D1431E012B1FD9194A14
S1131490936FDB07FCD4136C164923F00303034357
S11314A013648B6F13F00103FBD10030124A18BF91
S11314B00120012C106000D14B635DF8044B704790
S11314C00028E1D10C4B5DF8044B18607047094AC1
S11314D04FF40023D362936FD907FCD4136C0549EE
S11314E023F0030343F0010313644B6A1A03FCD58E
S11314F0CDE700BF00300E40B40AC6432DE9F04FDB
S113150089B0A0F5E1640023B4F5966FCDE9023308
S1131510CDE90433CDE9063370D8514BB0F5E16F12
S1131520D3F868318CBF4FF0010A4FF0000A69D13B
S1131530C3F30724DBB2079404934FF4167B4FF4F0
S11315409665DFF820910191D9F84C60C6F30176D5
S1131550044605A902A8334690465246FFF7E4FC28
S1131560D9F8EC70C7F3012752463B4606A903A8F5
S1131570FFF7DAFC049A0799651B8B1A05FB03F342
S1131580B3FBFBF3D3182CBF01220022994235D3BD
S1131590002A33D1069903980A1A05FB02F2B2FB1A
S11315A0FBF210EB020A2CBF01220022514525D385
S11315B022BB0299059A501A05FB00F5B5FBFBFB0B
S11315C011EB0B0B2CBF012100215A4516D3A9B9ED
S11315D0B8F1000F0ED0D9F85C2022F4FE4222F0BC
S11315E0020242EA0323B4F5E16F1E4A18BF43F036
S11315F00203D365019B7BB9012000E0002009B000
S1131600BDE8F08F1C0EC3F30743079404934FF413
S1131610966B4FF4E16594E730460021FFF702FD35
S11316200028EBD038460121FFF7FCFC0028E5D068
S11316300C4A536ED34538BFD34623F4FF73BBF132
S1131640E70F23F0010328BF4FF0E70BB4F5E16F78
S113165018BF43F0010343EA4B035366CFE700BFCF
S1131660B081E00F00300E4030B43A4B1A6FD96CA1
S1131670C90702F007020BD5012A57D9132852D9FA
S1131680143813288CBF4FF47F424FF4EE4207E026
S1131690D96CCD073BD4012A51D9DB6C6FF0FF0222
S11316A02C482D4DC36C2D4C23F47F431343C3644A
S11316B0C16C2B88C26CC1F303210131283301EBC7
S11316C0810503EB5303B3FBF5F3013B072B22F036
S11316D0EE6228BF072342F4801242EA0363B4F99E
S11316E00020C364002A10DB036D4C08283204EB8D
S11316F0410102EB520223F07004B2FBF1F3072B19
S113170028BF072344EA0313036530BC7047DB6C2E
S1131710DC0711D5012A0FD827288CBF4FF47F424C
S11317204FF4EE42BCE74FF44C52B9E7DA6CD10700
S113173005D5DB6CDB07EFD46FF0FF02B0E70928B7
S1131740F1D90A3809288CBF4FF47F424FF4EE4296
S1131750A6E700BF00300E40220200202402002031
S1131760F8B5404B02229A639B6B03F00F0393423C
S113177002D000252846F8BDC2888688B0F90C70CE
S11317804A2A5AD9B2F5FA7F68D340F6C3139A426B
S11317908CBF4FF040554FF000553249324ACB6C64
S11317A023F0405323F00103002FA8BF43F00103AB
S11317B02B43CB64D1F8EC3043F44073C1F8EC30E4
S11317C0CB6E0446294843F080730680CB661368C9
S11317D0002B34D113680B6F23F0070330460B67DB
S11317E0FFF742FF224B23492589B4F90C20A08836
S11317F01A800D80FFF738FFA37B5BB3012B02D166
S1131800184B1D4A9A65012211466088FFF776FE3F
S113181005460028ADD0134A6078D36B43F4806347
S1131820D363FFF71DFEA37A144AA3F12003B3FA8E
S113183083F35B0913602846F8BD0025ADE7136800
S11318400B6F23F0070343F0040330460B67FFF7E5
S11318500BFFC7E7034B0A4A9A65D4E74FF080555C
S11318609BE700BF00300E408009C64320020020E1
S11318702402002022020020372110B79407C64317
S11318807740205700EB4000000100F1804000F554
S1131890204000F1806300F1C0604FF001121A6033
S11318A001607047F0B444004AB12718214D3F014C
S11318B001263D448E40A3B305F1C0652E60251872
S11318C02D0105F18045072905F5204519D88F001C
S11318D06E684FF00F0C0CFA07FC26EA0C0602FAAD
S11318E007F73E436E6052B90444124A24010120B2
S11318F0224400FA01F1C3B902F180621160F0BC24
S1131900704701F18046083EAF68B6004FF00F0CF7
S11319100CFA06FC27EA0C0702FA06F63E43AE6010
S1131920E1E705F180652E60C9E702F1C062F0BC11
S1131930116070470CA0004070B582B00446006886
S113194004F1806620F44070206003F003054FF436
S1131950407004F1C06330602802186029B9164B46
S11319609C421AD0154B9C421ED0154B20685B5DDF
S113197002FB03F35BB16FEAC20220681A4411440C
S1131980B1FBF3F1830701F1FF3102D4216102B00D
S113199070BD002908BF0121F8E70A480192FEF74B
S11319A0BFFE019A0146E0E707480192FEF7B8FE40
S11319B0019A0146D9E700BF00C0004000C40040BE
S11319C0A8560000008204000092040070B500F1E3
S11319D00474E4004A78631C0D469B0000210164F2
S11319E082F001020649C1631A60AA681AB12B7B0E
S11319F06968FFF7A1FFA4002B78236070BD00BFC6
S1131A00FFFF0700436B9B07FCD411B9022343601B
S1131A10704701234360704730B40C7814B983686D
S1131A20DB0729D44A788D78CB68002A14BF4FF499
S1131A308052002235BB53BBCB780BB142F4807289
S1131A400B790BB142F040024B790BB142F08002AA
S1131A50CB798D79097A1B0143EA85030B43134340
S1131A6003603CB18368DA0704D4436B9B07FCD45E
S1131A700123436030BC7047436B9D07FCD40223B1
S1131A804360CFE742F40072002BD5D001E042F46A
S1131A9000720361D0E700BF10B582B0044651B9AB
S1131AA00F4B984201D002B010BD0E480192FEF7D0
S1131AB037FE019A0146206C0B4B4901B1FBF2F150
S1131AC0C207A1F1200103EAC10102D5E16002B01D
S1131AD010BD636C5B07F9D5636C5B07F9D4F5E75C
S1131AE000A0044090171A00F8FF0100CB43026CD9
S1131AF05B0003F00A03D20741EA030102D4436CFA
S1131B009B07FCD44160704770B5036CDA07044648
S1131B100E4602D4636C9B07FCD40A236360656C95
S1131B20002DFCD101232364707B337BB17B2268BD
S1131B30034322F01C020B4313432360D6E9011232
S1131B402046FFF7A9FF33786360256470BD00BFAA
S1131B50F0B40A780AB902234360CB788D780C7A02
S1131B604F78CE791B0443EA05638D79234343EA16
S1131B7085234C7A002F43EA06238E7A14BF40252E
S1131B800025002CCC7A43EA050314BF80250025E8
S1131B90002E0E7B43EA050318BF20270D7908BFEA
S1131BA00027002C43EA07034C7914BF10210021BD
S1131BB0002E43EA010314BF08210021002D43EA4B
S1131BC0010314BF4FF400510021002C43EA010328
S1131BD014BF4FF0805100210B4300214162036088
S1131BE00AB101234360F0BC704700BF70B584B0F4
S1131BF004461748174DFEF793FD174A0346A2FB08
S1131C0003239B091548012104FB03F4FEF71AFC86
S1131C10002302930126CDE900338DF80C30A40A89
S1131C200A23694628468DF802308DF80B608DF83A
S1131C300860FFF78DFF6C622B466E60596A0029BD
S1131C40FCD102225A600548FEF7FCFB04B070BDCB
S1131C504041050000800140D34D621000020400A1
S1131C6030B589B0012300218DF8043013228DF89A
S1131C7005308DF810308DF811308DF81230029146
S1131C808023064D064803954FF4985401A9CDE9E5
S1131C900542079300F018FB09B030BDDDFB0500D9
S1131CA000C4004000B585B0802814D0B0F5807F12
S1131CB002D005B05DF804FB012302220090CDE9B7
S1131CC0023301920B4B0C48F322402100F06CFBD1
S1131CD005B05DF804FB012302220090CDE9023334
S1131CE00192064B0448F522402100F05DFB05B04B
S1131CF05DF804FB3802002000C4004034020020D8
S1131D0008B5104B186801F007F800220E4B01F0DB
S1131D107DF800220D4B01F079F800220C4B00F005
S1131D20BDFE01F085FA07EE900AB2EE047A67EE82
S1131D30877AFDEEE77AF8EEE77AC7EE877A17EE50
S1131D40900A08BD3402002000405F400000F03ECD
S1131D50000018400000000008B51F4B186800F090
S1131D60DBFF17A3D3E9002301F050F800221B4B3B
S1131D7001F04CF814A3D3E9002300F08FFE01F026
S1131D8057FA00F0EBFF12A3D3E9002301F03EF869
S1131D900022134B00F084FE01F04AFA07EE900A89
S1131DA0B2EE047A67EE877AFDEEE77AF8EEE77A28
S1131DB0C7EE877A17EE900A08BD00BFAFF3008024
S1131DC0D7A3703D0AF76540CDCCCCCCCC6C474052
S1131DD0CDCCCCCCCCCCFC3F380200200000F03E73
S1131DE00000404030B585B05020FFF7FFFE0123CE
S1131DF00022CDE90023CDE902332148214BE7221B
S1131E00402100F0D1FA00F065FB0028FBD11D4C05
S1131E10039001223B250090CDE901222346E622CE
S1131E2040211748256000F0BFFA00F053FB044638
S1131E300028FAD15020FFF7D9FE0123CDE902335F
S1131E40019300940F4B0E48E722402100F0ACFAB6
S1131E5000F040FB0028FBD1012302220090CDE9D1
S1131E6002330192074B0648F522402100F09CFA08
S1131E7000F030FB0028FBD1012005B030BD00BFCD
S1131E8000C400403002002070B58CB000F016F998
S1131E901D4D00F039F900F0B9FC00F0E7FC1B49D6
S1131EA0049100231C224FF07A51012428468DF816
S1131EB000308DF801308DF80C308DF80D308DF830
S1131EC018308DF8203001920423022205914FF43A
S1131ED0E056694609920B9302968DF828400794C0
S1131EE000F010FB2146284600F0FAFAFFF7B8FE8E
S1131EF04021202000F0B0F8102000F093FC0320D3
S1131F0000F0FCFC0CB070BD006004406666E63F67
S1131F1008B500F0DFFA0028FBD18020FFF7C2FEED
S1131F2000F0D8FA0028FBD14FF48070FFF7BAFE16
S1131F3000F0D0FA0028FBD10420BDE8084000F0EE
S1131F407FBC00BF012000F07BBC00BF022000F07A
S1131F5077BC00BF08B52DED028BFFF7D1FE08EE6C
S1131F60100AF3EE0E7AB4EEE78AF1EE10FAACBF83
S1131F70234B244B20221A6000F0F0FEFDEEC87AB9
S1131F800B46F8EEE77A024638EE678A1E48B5EE4D
S1131F90408AF1EE10FA0CBF1C491D4901F042FEC3
S1131FA0FFF7DAFE07EE900ABDEEE77AB8EEC77ADD
S1131FB077EEC77AF5EE407AF1EE10FA16D000F01B
S1131FC0CDFE02460B461348134901F02BFE202197
S1131FD00D4800F06BF80F48202100F067F8BDECC5
S1131FE0028B8020BDE8084000F02ABC00F0B6FE59
S1131FF002460B460748094901F014FEE7E700BF13
S1132000FCA00046FCA000443C020020BC5600009A
S1132010D45600007C02002000570000EC5600005B
S11320204FF4807000F00CBC08B5102000F008FCE0
S11320300121054800F054FAFFF7D4FE202103489B
S1132040BDE8084000F032B800600440AC5600001F
S1132050202000F0F5BB00BF30B58DB04FF4165111
S1132060052000240123122200918DF80500694601
S11320704FF490550B480592089306938DF804404D
S11320808DF806408DF807400294079500F0F8FAA1
S1132090054B40213F22C3E91244596483F8402090
S11320A00DB030BD00A00440BC0200200A46014629
S11320B0014800F07FBB00BF00A0044008B5012127
S11320C00D48FEF7BFF9002211460120FEF7F6FC89
S11320D0012211460020FEF7F1FC0A210748FEF711
S11320E07DFD01210648FEF7ADF902210548BDE852
S11320F00840FEF773BD00BF4041050002001E000A
S113210030253E000300200010B501212048FEF7D1
S113211099F900210520FFF7B5FB0422114600239D
S11321200520FFF7BFFB00210520FFF7ABFB0521CE
S1132130084600230422FFF7B5FB4FF001110120EC
S1132140FFF7A0FB0123184604220A21FFF7AAFB8C
S1132150012308220B210220FFF7A4FB01230822FC
S11321600A210220FFF79EFB4FF480310320FFF782
S113217089FB012304220A210320FFF793FB012397
S11321801A460B210320BDE81040FFF78BBB00BFAC
S113219000350A0038B51E4C657F23783DB1012B0C
S11321A011D026D3022B01D10323237038BD022B77
S11321B013D0052B23D0002BF8D1D4E90223DA6203
S11321C00223237038BD6268E168520042F00102C4
S11321D002204B602070CA6238BDA3692169E2689D
S11321E00968D162013BA361002BDFD10523237071
S11321F038BDD4E90223DA620123237038BD0220FA
S113220000F068FB606900F00DFB2570257738BD90
S11322100C030020184B5A7F9AB130B41A78032A61
S113222010D0042A0BD1D3E90320D4690168052511
S11322301D7021430223082401605460536030BCA4
S1132240704770479A69022A0CD0012AF7D1D3E962
S113225003200525D4691D70082102230460516000
S11322605360ECE7D3E90314CA690420120218701E
S113227022604860E3E700BF0C03002010B48368C9
S1132280D90704D5202343608368DA07FCD40023EC
S1132290016C0364426BC36B1343C363436843F031
S11322A040034360436843F003034360436BDB052F
S11322B0FCD5446BC36B20222343C3635DF8044BFA
S11322C001644260704700BF30B585B0314B98421D
S11322D004460D4647D0304B984255D0636B13F0FB
S11322E0010F4FF001033BD1A363626BE363D5E9B4
S11322F0010269788DF8011001212B7B8DF8001003
S113230001906946204602928DF80C30FFF75EFB7F
S1132310D5E90420697BAB7B024343EA4103A26411
S113232020466364FFF7AAFF636BE363002323641F
S1132330236C184A43F040032364236C43F0800366
S11323402364236C43F020032364236C944243F4FA
S11323508073236412D0104B9C4209D005B030BD69
S1132360E363636BC3E701210C48FEF76BF8B5E741
S11323700B4B4FF480625A6005B030BD084B4FF4EC
S113238000321A6005B030BD01210648FEF75AF844
S1132390A4E700BF00C0004000C400400082040065
S11323A000E100E0009204002DE9F8430446022015
S11323B00F461646A5689DF828909DF82C801D466A
S11323C000F09CFA0A48089B4760790043610122A7
S11323D00027099B8660C4600561836180F81C90B6
S11323E080F81D8007706260E162BDE8F88300BF79
S11323F00C03002038B5194B5C6B1A6C1440600652
S1132400DC6328D4210602D5154B5A7F9AB9A2065B
S11324101ED4E3050ED5124C637F5BB12378052BE4
S113242008D1022000F056FA00256069257000F0FA
S1132430F9F9257738BD1A78022AE8D15968D8689D
S11324401A704B0043F0010301224260C362DEE7CD
S1132450FFF7E0FEDDE7FFF79DFED3E700C0004095
S11324600C03002038B5194B5C6B1A6C14406006E1
S1132470DC6328D4210602D5154B5A7F9AB9A206EB
S11324801ED4E3050ED5124C637F5BB12378052B74
S113249008D1022000F01EFA00256069257000F0C2
S11324A0C1F9257738BD1A78022AE8D15968D86865
S11324B01A704B0043F0010301224260C362DEE75D
S11324C0FFF7A8FEDDE7FFF765FED3E700C4004091
S11324D00C030020014B187F704700BF0C03002041
S11324E011B10121FFF78EBA38B504460D46042018
S11324F000F0F0F929462046FFF784FA636B002BBD
S1132500FCD138BD30B585B0414B984204460D46E8
S113251078D000212046FFF7E3FF2B7E0722A2623A
S11325200BB10123E36295F820300BB10223E3627F
S113253095F828300BB10423E3623649E869364B39
S11325400860364A686AE96A1860012311606360AA
S1132550636B002BFCD10223A2686360636B002BC6
S1132560FCD101212878E3606A788DF80330ADF856
S113257004308DF808308DF8021003238DF8010023
S1132580694620468DF800208DF806308DF8073016
S1132590FFF742FA636B002BFCD1D5E9012395EDDB
S11325A0047AD5ED057ADFED1E6A697B287E27EE75
S11325B0267A67EEA67A1A432B7BBCEEC77AFCEE2A
S11325C0E77A43EA4103012184ED047AC4ED057AF4
S11325D0A161E1616264236410B995F8203043B1CC
S11325E0104B4FF000621A60042000F087F905B028
S11325F030BD95F82830002BF2D1042000F07EF98C
S113260005B030BD01210848FDF71CFF81E700BF7C
S1132610006004402C030020300300203403002019
S113262000007A4400E100E08006160038B5104D41
S11326302C6AEB6A1C40E107AC6212D4A20709D4ED
S1132640630700D438BD0B4B186800F0EBF8084B57
S11326501B6A38BD084B186800F0E4F8044B1B6A89
S1132660EEE7064B186800F0DDF82B6AE6E700BFDA
S11326700060044034030020300300202C030020B9
S113268030B585B0274B984204460D4644D02369A3
S11326906979A87913F0010F4FF0010323610CBF8E
S11326A0226923692A6808BF23612B7902928DF875
S11326B00C30EA79AB688DF800108DF80D0069468E
S11326C020468DF80E200193FFF71EFAD5E9070185
S11326D06A69AB69024343EA41034021A265636529
S11326E06160636C002BFCD180236360636C002BFE
S11326F0FCD19DF800102046FFF7F8F9A3689B076A
S1132700FCD0084BA268A2689C4203D1064B4FF44C
S113271080021A6005B030BD01210448FDF792FE25
S1132720B5E700BF00A0044000E100E090171A00E4
S113273070B51E4AD16A936B0B409E07536315D440
S1132740DB0700D470BD1A4C2378022BFAD1E16860
S11327508B6B23F001038B6303200023637000F071
S1132760B9F82020BDE8704000F05CB8104C227825
S1132770012AE5D16068E1682218167CCA6A9507C7
S1132780FCD5A5688E620130013DA8426060D9D1B4
S11327908A6B42F001028A638A6B22F002020220F1
S11327A08A63DA072070D3D470BD00BF00A0044050
S11327B0380300202DE9F843124D6C7806460F4685
S11327C09146002CFDD1FEF7A7FB394680460E4802
S11327D06C60EE6001F046FA384601F04BFA0123D2
S11327E0A86003206B702B70C5F8609000F086F829
S11327F0B36B43F002034046B363BDE8F843FEF70E
S11328008FBB00BF380300204803002008B5FEF743
S113281083FB034B00221A60BDE80840FEF780BB2F
S11328209C03002010B50446FEF776FB034A1368A8
S11328302343BDE810401360FEF772BB9C030020E5
S113284010B50446FEF768FB044A136823EA040340
S1132850BDE810401360FEF763BB00BF9C0300207B
S1132860014B1868704700BF9C030020034B0022F3
S1132870C3E90022C3E902221A617047A0030020C1
S113288010B5FEF749FB114B1A68002A044604DD13
S11328902046BDE81040FEF743BB5A68002AF7DC27
S11328A09A68002A06DD0A4A136923F004031361B7
S11328B030BFEDE7DB68002B4FF0010002DDFEF7CF
S11328C0A9FCE5E7FEF7E2FCE2E700BFA003002075
S11328D000ED00E010B50446FEF71EFB064A52F870
S11328E02430002BC4BF03F1FF3342F82430BDE889
S11328F01040FEF715BB00BFA003002010B504462E
S1132900FEF70AFB044A52F82430013342F824301B
S1132910BDE81040FEF704BBA003002080B58AB0D8
S1132920534C544F94E80F0001AE103486E80F0066
S11329300FCC05AD0FC522682A804F4B01227A6463
S1132940DB6C1B0E40F08F804C494D484AF6E85230
S11329500A60026842F0040202600B60494A13688C
S113296043F4005313604849484A0B6A23F4441360
S113297043F488130B62136843F4F8431360002490
S1132980304602258DF800408DF80140FEF7E8FE40
S113299068468DF80150FEF751FD05A8FEF77EFA52
S11329A03B48FDF7A7FF012211460320FEF786F8F6
S11329B005211120FEF712F9224621462846FEF78A
S11329C07DF8FFF761FAFFF74BFF1BE0FFF748FFC5
S11329D0460721D4FFF744FFC50723D4FFF740FF80
S11329E0840725D4FFF73CFF000627D4FFF738FF00
S11329F0C10529D4FFF734FFC2062BD4FFF730FFFB
S1132A0083062DD4FFF72CFF0028DFD1FFF738FF12
S1132A10FFF726FF4607DDD5FFF77AFAFFF720FF19
S1132A20C507DBD5FFF78EFAFFF71AFF8407D9D560
S1132A30FFF78CFAFFF714FF0006D7D5FFF78AFAE1
S1132A40FFF70EFFC105D5D5FFF7EAFAFFF708FF38
S1132A50C206D3D5FFF7E8FAFFF702FF8306D1D504
S1132A60FFF7F6FACEE7012B7FF47DAF76E700BFE0
S1132A701457000000000E40B081E00F90310E406A
S1132A8098310E4064310E4000400E40A4310E4097
S1132A90C0EA210181F0004102E000BF83F000435D
S1132AA030B54FEA41044FEA430594EA050F08BFE5
S1132AB090EA020F1FBF54EA000C55EA020C7FEAA9
S1132AC0645C7FEA655C00F0E2804FEA5454D4EB26
S1132AD05555B8BF6D420CDD2C4480EA020281EAF0
S1132AE0030382EA000083EA010180EA020281EA28
S1132AF00303362D88BF30BD11F0004F4FEA01317A
S1132B004FF4801C4CEA113102D0404261EB410188
S1132B1013F0004F4FEA03334CEA133302D052420E
S1132B2063EB430394EA050F00F0A780A4F10104CA
S1132B30D5F1200E0DDB02FA0EFC22FA05F2801804
S1132B4041F1000103FA0EF2801843FA05F35941EA
S1132B500EE0A5F120050EF1200E012A03FA0EFC69
S1132B6028BF4CF0020C43FA05F3C01851EBE37193
S1132B7001F0004507D54FF0000EDCF1000C7EEBB0
S1132B8000006EEB0101B1F5801F1BD3B1F5001FEE
S1132B900CD349085FEA30004FEA3C0C04F101040D
S1132BA04FEA445212F5800F80F09A80BCF1004F36
S1132BB008BF5FEA500C50F1000041EB045141EAB8
S1132BC0050130BD5FEA4C0C404141EB010111F4B9
S1132BD0801FA4F10104E9D191F0000F04BF014664
S1132BE00020B1FA81F308BF2033A3F10B03B3F142
S1132BF020020CDA0C3208DD02F1140CC2F10C02D2
S1132C0001FA0CF021FA02F10CE002F11402D8BF2F
S1132C10C2F1200C01FA02F120FA0CFCDCBF41EAFB
S1132C200C019040E41AA2BF01EB0451294330BDCA
S1132C306FEA04041F3C1CDA0C340EDC04F11404A7
S1132C40C4F1200220FA04F001FA02F340EA03007E
S1132C5021FA04F345EA030130BDC4F10C04C4F1C4
S1132C60200220FA02F001FA04F340EA03002946A4
S1132C7030BD21FA04F0294630BD94F0000F83F4EE
S1132C80801306BF81F480110134013D4EE77FEAD1
S1132C90645C18BF7FEA655C29D094EA050F08BF1D
S1132CA090EA020F05D054EA000C04BF19461046FE
S1132CB030BD91EA030F1EBF0021002030BD5FEA42
S1132CC0545C05D14000494128BF41F0004130BD6A
S1132CD014F580043CBF01F5801130BD01F00045BE
S1132CE045F0FE4141F470014FF0000030BD7FEA31
S1132CF0645C1ABF194610467FEA655C1CBF0B462C
S1132D00024650EA013406BF52EA033591EA030F42
S1132D1041F4002130BD00BF90F0000F04BF00213A
S1132D20704730B54FF4806404F132044FF000056D
S1132D304FF0000150E700BF90F0000F04BF0021E6
S1132D40704730B54FF4806404F1320410F000454C
S1132D5048BF40424FF000013EE700BF42004FEA47
S1132D60E2014FEA31014FEA02701FBF12F07F43C4
S1132D7093F07F4F81F06051704732F07F4208BF7B
S1132D80704793F07F4F04BF41F40021704730B582
S1132D904FF4607401F0004521F000411CE700BFCE
S1132DA050EA010208BF704730B54FF000050AE051
S1132DB050EA010208BF704730B511F0004502D552
S1132DC0404261EB41014FF4806404F132045FEA54
S1132DD0915C3FF4D8AE4FF003025FEADC0C18BFFD
S1132DE003325FEADC0C18BF033202EBDC02C2F1EF
S1132DF0200300FA03FC20FA02F001FA03FE40EA81
S1132E000E0021FA02F11444BDE600BF70B54FF084
S1132E10FF0C4CF4E06C1CEA11541DBF1CEA135562
S1132E2094EA0C0F95EA0C0F00F0DEF82C4481EACA
S1132E30030621EA4C5123EA4C5350EA013518BFEA
S1132E4052EA033541F4801143F4801338D0A0FBD7
S1132E5002CE4FF00005E1FB02E506F00042E0FB84
S1132E6003E54FF00006E1FB03569CF0000F18BF8A
S1132E704EF0010EA4F1FF04B6F5007F64F5407432
S1132E8004D25FEA4E0E6D4146EB060642EAC621C5
S1132E9041EA55514FEAC52040EA5E504FEACE2E32
S1132EA0B4F1FD0C88BFBCF5E06F1ED8BEF1004F35
S1132EB008BF5FEA500E50F1000041EB045170BDB1
S1132EC006F0004646EA010140EA020081EA0301F5
S1132ED0B4EB5C04C2BFD4EB0C0541EA045170BDF1
S1132EE041F480114FF0000E013C00F3AB8014F16B
S1132EF0360FDEBF002001F0004170BDC4F10004B4
S1132F00203C35DA0C341BDC04F11404C4F1200534
S1132F1000FA05F320FA04F001FA05F240EA02008F
S1132F2001F0004221F0004110EBD37021FA04F6C5
S1132F3042EB06015EEA430E08BF20EAD37070BD7F
S1132F40C4F10C04C4F1200500FA04F320FA05F0DE
S1132F5001FA04F240EA020001F0004110EBD370E0
S1132F6041F100015EEA430E08BF20EAD37070BD50
S1132F70C4F1200500FA05F24EEA020E20FA04F329
S1132F8001FA05F243EA020321FA04F001F00041D8
S1132F9021FA04F220EA020000EBD3705EEA430E49
S1132FA008BF20EAD37070BD94F0000F0FD101F078
S1132FB00046400041EB010111F4801F08BF013CB1
S1132FC0F7D041EA060195F0000F18BF704703F0EF
S1132FD00046520043EB030313F4801F08BF013D76
S1132FE0F7D043EA0603704794EA0C0F0CEA135532
S1132FF018BF95EA0C0F0CD050EA410618BF52EAEC
S11330004306D1D181EA030101F000414FF00000F1
S113301070BD50EA410606BF1046194652EA4306FF
S113302019D094EA0C0F02D150EA013613D195EA73
S11330300C0F05D152EA03361CBF104619460AD1BB
S113304081EA030101F0004141F0FE4141F47001C5
S11330504FF0000070BD41F0FE4141F4780170BDB5
S113306070B54FF0FF0C4CF4E06C1CEA11541DBF1A
S11330701CEA135594EA0C0F95EA0C0F00F0A7F81C
S1133080A4EB050481EA030E52EA03354FEA013149
S113309000F088804FEA03334FF0805545EA13135C
S11330A043EA12634FEA022245EA111545EA106524
S11330B04FEA00260EF000419D4208BF964244F1BB
S11330C0FD0404F5407402D25B084FEA3202B61ADA
S11330D065EB03055B084FEA32024FF480104FF4AE
S11330E0002CB6EB020E75EB030E22BFB61A754622
S11330F040EA0C005B084FEA3202B6EB020E75EBB5
S1133100030E22BFB61A754640EA5C005B084FEA1C
S11331103202B6EB020E75EB030E22BFB61A7546E9
S113312040EA9C005B084FEA3202B6EB020E75EBF4
S1133130030E22BFB61A754640EADC0055EA060EB5
S113314018D04FEA051545EA16754FEA06164FEAF8
S1133150C30343EA52734FEAC2025FEA1C1CC0D1A4
S113316011F4801F0BD141EA00014FF000004FF031
S1133170004CB6E711F4801F04BF01430020B4F1F2
S1133180FD0C88BFBCF5E06F3FF6AFAEB5EB030CAA
S113319004BFB6EB020C5FEA500C50F1000041EBA7
S11331A0045170BD0EF0004E4EEA113114EB5C0474
S11331B0C2BFD4EB0C0541EA045170BD41F4801147
S11331C04FF0000E013C90E645EA060E8DE60CEA4F
S11331D0135594EA0C0F08BF95EA0C0F3FF43BAF6C
S11331E094EA0C0F0AD150EA01347FF434AF95EA23
S11331F00C0F7FF425AF104619462CE795EA0C0F07
S113320006D152EA03353FF4FDAE1046194622E7D3
S113321050EA410618BF52EA43067FF4C5AE50EAAD
S113322041047FF40DAF52EA43057FF4EBAE12E79D
S11332304FEA4102B2F1E04324BFB3F5001CDCF1D4
S1133240FE5C0DD901F0004C4FEAC0024CEA50700C
S1133250B2F1004F40EB830008BF20F0010070473B
S113326011F0804F21D113F13872BCBF01F000403E
S1133270704741F480114FEA5252C2F11802C2F170
S1133280200C10FA0CF320FA02F018BF40F00100F1
S11332904FEAC1234FEAD32303FA0CFC40EA0C00A3
S11332A023FA02F34FEA4303CCE77FEA625307D1E0
S11332B050EA01331EBF4FF0FE4040F44000704717
S11332C001F0004040F0FE4040F40000704700BFB1
S11332D008B5074B044613B10021AFF30080054B3A
S11332E01868836A03B19847204602F0E9F800BFE2
S11332F0000000003857000070B50D4E0D4CA41BA3
S1133300A4100025A54209D10B4E0C4C02F0A0F9E3
S1133310A41BA4100025A54205D170BD56F8253084
S113332098470135EEE756F8253098470135F2E71E
S1133330F8010020F8010020F8010020FC01002021
S113334010B5431E0A44914200D110BD11F8014B3F
S113335003F8014FF7E702440346934200D1704754
S113336003F8011BF9E72DE9F04788B0002B149FFF
S1133370109EDDE9121A1D4627F02007BBBF03F19A
S113338000431D4600232D231446B8BF1446462F80
S11333900B7004D0452F00D10136022300E0032333
S11333A007AA049206AACDE902A2CDE90036224674
S11333B02B4600F0F5FC472F804602D1119BDB071A
S11333C026D5462F08EB060911D198F80030302B8A
S11333D00AD1002200232046294602F0C9F818B970
S11333E0C6F10106CAF80060DAF8003099440022F8
S11333F000232046294602F0BBF838B93022079B47
S11334004B4505D2591C07911A70F8E7CDF81C906A
S1133410079B159AA3EB08034046136008B0BDE868
S1133420F087F7B500290446BABF49422D232B2360
S1133430092904F8022B437020DD0DF107031F4610
S11334400A2691FBF6F506FB15113031092D03F818
S1133450011C03F1FF32294609DC3031023B02F83A
S1133460011CBB42224604D3101A03B0F0BD13461C
S1133470E7E713F8012B04F8012BF2E73023194492
S11334808370021DC170EFE72DE9F04F91B00C4637
S1133490DDF8688016461F46054601F03FFA0368CA
S11334A00893184600F0E6FB00230E93D8F800308A
S11334B00990073323F0070303F1080294F818A0D6
S11334C0D4F800B0C8F80020D3E90023C4E91223DB
S11334D0D4E9128929F000430B93CDF828804FF0EA
S11334E0FF32A94BDDE90A0102F074F870BB4FF01A
S11334F0FF32A54BDDE90A0102F04EF830BB002291
S113350000234046494602F03DF810B12D2384F8CB
S113351043309E4A9E4BBAF1470F8CBF9046984663
S1133520032323612BF0040323604FF00009009769
S113353033460FAA2146284600F0ECF9013040F04A
S113354090804FF0FF3011B0BDE8F08F42464B46FB
S11335504046494602F03EF810B18E4A8E4BDAE7F7
S11335606368591C4BF480620EA90DA840D1062350
S113357063600DF13303CDE901234FF0000C636860
S11335802260CDE9030A009342464B46CDE9051C6F
S11335902846FFF7E8FE0AF0DF03472B804609D1EF
S11335A00D9BD81C02DB6268934247DDAAF1020A34
S11335B05FFA8AFABAF1650F0D9924D80139524697
S11335C004F150000D91FFF72CFF0E9A1318012AF5
S11335D08146236102DC2268D10701D501332361CE
S11335E09DF83330002BA2D02D2384F843309EE77E
S11335F0BAF1670F00F07881BAF1470FB9D1002B07
S1133600B7D10123B4E7BAF1660F19D10029636871
S11336100CDD216113B92268D20702D501330B44B2
S113362023610D9BA3654FF00009D9E713B9226804
S1133630D00701D50233F3E70123F1E74FF0670A1E
S1133640DDE90D32934205DB22682361D107E8D519
S11336500133E5E7002BD4BFC3F102030123134474
S1133660DEE723685A0507D42369424631462846D3
S1133670B84701302BD164E7BAF1650F40F2DD8021
S113368000220023D4E9120101F072FF002833D094
S11336900123424A31462846B84701303FF451AF2E
S11336A0DDE90D239A4202DB2368D8070FD5DDE953
S11336B0082331462846B84701303FF442AF4FF063
S11336C0000804F11A090E9B013B434509DC2368F9
S11336D09B0700F10481E0680F9B9842B8BF18462D
S11336E031E701234A4631462846B84701303FF4C2
S11336F028AF08F10108E6E70D9B002B2BDC012322
S1133700264A31462846B84701303FF41AAF0D9B8C
S113371023B90E9B13B92368D907D8D5DDE908234B
S113372031462846B84701303FF40BAF4FF000094B
S113373004F11A0A0D9B5B424B4501DC0E9B94E796
S11337400123524631462846B84701303FF4F9AECA
S113375009F10109EEE70E9AA36D9A42A8BF1A4631
S1133760002A914607DD1346314642462846B847AB
S113377001303FF4E6AE04F11A034FF0000B29EADE
S1133780E9790A9316E000BFFFFFEF7F405700007E
S11337903C57000048570000445700004C570000B5
S11337A001230A9A31462846B84701303FF4C9AE8E
S11337B00BF1010BD4F858A0AAEB09035B45EFDC2D
S11337C0DDE90D239A42D04415DB2368DA0712D4CD
S11337D00E9B0D99A3EB0A02A3EB010A9245A8BF25
S11337E09246BAF1000F0EDC4FF000082AEAEA7A9A
S11337F004F11A0919E0DDE9082331462846B847DF
S11338000130E5D19DE65346424631462846B84745
S11338100130E9D195E601234A4631462846B847A6
S113382001303FF48EAE08F10108DDE90D239B1A47
S1133830A3EB0A034345EEDC49E70E9A012A01DCB7
S1133840DB073AD50123424631462846B8470130C2
S11338503FF477AEDDE9082331462846B847013006
S113386008F101083FF46DAE0E9B002203F1FF3A0C
S1133870D4E91201002301F07BFEC8B95346424645
S113388031462846B84701300ED15AE60123524644
S113389031462846B84701303FF453AE08F10108D9
S11338A00E9B013B4345F1DC4B4604F15002DDE63F
S11338B04FF0000804F11A0AF2E70123DFE70123BD
S11338C04A4631462846B84701303FF43AAE08F13B
S11338D00108E3680F9A9B1A4345F0DCFBE64FF0BE
S11338E0000804F11909F4E7002B3FF48AAE4FF005
S11338F0000CCDE9051C0DF133012260CDE9030A6A
S1133900CDE90121009342464B462846FFF72BFDA3
S1133910804645E62DE9F04791461F468A680B69C3
S1133920DDF820809342B8BF1346C9F8003091F8FF
S1133930432006460C4612B10133C9F8003023680F
S1133940990642BFD9F800300233C9F8003025681F
S113395015F0060507D104F1190AE368D9F8002027
S11339609B1AAB4228DC94F843302268003318BF1A
S1133970012392062DD404F1430239463046C04750
S1133980013020D02368E568D9F8002003F006034D
S1133990042B08BFAD1AA36822690CBF25EAE5759C
S11339A000259342C4BF9B1AED184FF000091A3446
S11339B04D451AD1002008E00123524639463046CD
S11339C0C047013003D14FF0FF30BDE8F087013527
S11339D0C3E7E1185A1C302081F84300224494F8CC
S11339E0451082F843100233C5E7012322463946C5
S11339F03046C0470130E6D009F10109D8E700009C
S1133A002DE9F04301F1430C0C46097E85B06E2983
S1133A101746064698460C9A00F0B38022D86329CC
S1133A2036D00AD8002900F0B980582900F08380E4
S1133A3004F1420584F8421032E0642901D0692976
S1133A40F6D120681368050603F104012AD51B6822
S1133A501160002B03DA2D225B4284F843206F4867
S1133A600A2239E0732900F09D8008D86F2920D0FC
S1133A707029DDD1236843F02003236003E0752916
S1133A8017D07829D4D1782384F84530644855E098
S1133A901368191D1B68116004F1420584F8423053
S1133AA001238CE01B68116010F0400F18BF1BB29B
S1133AB0CFE713682568181D1060280601D51B6818
S1133AC002E06806FBD51B8854486F2914BF0A22FC
S1133AD00822002184F843106568A560002DC0F217
S1133AE09580216821F004012160002B3DD1002D37
S1133AF040F08E806546082A0BD12368DB0708D581
S1133B00236962689A42DEBF302305F8013C05F15F
S1133B10FF35ACEB05032361CDF800803B4603AAD7
S1133B2021463046FFF7F6FE01304DD14FF0FF300D
S1133B3005B0BDE8F083394884F84510136821685E
S1133B401D1D1B6815600A060BD5CA0744BF41F04A
S1133B50200121601BB9226822F020022260102279
S1133B60B7E74D0648BF9BB2EFE76546B3FBF2F1FA
S1133B7002FB1133C35C05F8013D0B460029F5D166
S1133B80B9E7136825686169181D106028061B6869
S1133B9001D5196002E06A06FBD519800023236170
S1133BA06546B9E71368191D11601D686268002134
S1133BB0284600F0CDFE08B1401B606063682361B5
S1133BC0002384F84330A7E723692A463946304660
S1133BD0C0470130AAD023689B0713D4E068039B35
S1133BE09842B8BF1846A3E701234A4639463046EF
S1133BF0C04701309AD00135E368039A9B1AAB425F
S1133C00F2DCEBE7002504F11909F5E7002BACD150
S1133C10037884F8423004F142056CE74E57000003
S1133C205F5700000EB400B59CB01DAB0290069027
S1133C306FF00041094807910491094953F8042B96
S1133C4005910068019302A901F0BEFA029B0022CB
S1133C501A701CB05DF804EB03B070471400002028
S1133C600802FFFF034611F8012B03F8012B002A79
S1133C70F9D17047034613F8012B002AFBD1181A17
S1133C80013870472DE9F74F03690C69A342804658
S1133C90C0F28280013C01F114074FEA840C00F168
S1133CA0140657F8245056F8240006EB0C0301358B
S1133CB007EB0C090193B0FBF5F595B34FF0000A3F
S1133CC03846B646D34650F8042B93B205FB03A3FB
S1133CD04FEA134A9BB2ABEB0303120CDEF800B0BD
S1133CE005FB02A213FA8BF34FEA124A1FFA82FB76
S1133CF0DEF80020CBEB124202EB23429BB243EAF4
S1133D00024381454FEA224B4EF8043BDBD256F87E
S1133D100C3033B9019B043B9E421A4630D3C8F899
S1133D201040404601F07AF8002825DB0135304682
S1133D304FF0000C57F8042BD0F800E093B2ACEB32
S1133D400303120C13FA8EF3C2EB1E4202EB23425E
S1133D509BB243EA0243B9454FEA224C40F8043B84
S1133D60E8D256F8242006EB84032AB9043B9E4289
S1133D701A460BD3C8F81040284603B0BDE8F08FAC
S1133D801268043B002ACAD1013CC5E71268043B0F
S1133D90002AEFD1013CEAE70020EEE70000000032
S1133DA02DE9F04F456A97B016461F460446DDF8E4
S1133DB08C80CDE902673DB9102000F0BDFD606242
S1133DC0C0E901550560C560636A196851B15A6854
S1133DD04A60012393408B60204600F03DFE636AF5
S1133DE000221A603B1EBBBF23F000430393002351
S1133DF00122ACBFC8F80030C8F80020B24BDDF88F
S1133E000C8033EA08031BD1229A42F20F73136029
S1133E10029B23B9C8F31300002800F04F85249BAC
S1133E2053B9AA4B21E0AA4B05930833249A136093
S1133E30059817B0BDE8F08FA44B05930333F5E75D
S1133E40DDE90267002200233046394601F090FB89
S1133E50824660B1229A01231360249B002B00F058
S1133E602A859C4B249A1360013B0593E0E714AB2D
S1133E70019315AB009332463B46204601F045F8CA
S1133E80C8F30A558346002D7CD0C7F3130343F0CF
S1133E907F59B04649F44019A5F2FF35CDF84CA03E
S1133EA000228D4B40464946FEF7F8FD80A3D3E936
S1133EB00023FEF7ABFF80A3D3E90023FEF7F0FD58
S1133EC0064628460F46FEF737FF7DA3D3E90023B5
S1133ED0FEF79CFF02460B4630463946FEF7E0FDEE
S1133EE006460F4601F08CFB002282460023304632
S1133EF0394601F047FB48B15046FEF71DFF3246F4
S1133F003B4601F035FB08B90AF1FF3ABAF1160F46
S1133F1059D8724901EBCA01DDE90223D1E9000154
S1133F2001F04EFB002850D00AF1FF3A002312930F
S1133F30149B5D1BB5F1010849BFC5F101030023C2
S1133F4008934FF0000858BF0893BAF1000F3EDB06
S1133F500023D044CDF834A00993209B092B00F210
S1133F609080052BC4BF043B2093209BA3F1020344
S1133F70CCBF00250125032B00F28F80DFE803F07E
S1133F807D7F3171DDE914531D4405F23240202850
S1133F9013DDC0F14000029B08FA00F805F212405C
S1133FA023FA00F048EA0000FEF7B6FE012380463B
S1133FB0A1F1F879013D139372E7029BC0F120004F
S1133FC003FA00F0F0E70123B1E71290B0E7089B91
S1133FD0A3EB0A030893CAF10003099300230D938A
S1133FE0BBE701230C93219B002B59DD06939946D3
S1133FF0666A00227260042202F114009842716819
S113400070D9204600F0F4FC636A30601B680593A5
S1134010B9F10E0F00F2EB80002D00F0E8809DED69
S1134020027BBAF1000F8DED107B79DD2B4A0AF08B
S11340300F0302EBC30393ED007B4FEA2A16F0064D
S11340408DED0A7B6AD5264BDDE91001D3E90823FF
S1134050FFF706F8CDE9020106F00F060325204F0D
S113406051E001230C93219B534403F1010906936E
S11340704B46012BB8BF0123BAE70023B2E7002364
S1134080F0E70125002320930C954FF0FF330693AE
S11340909946002212232192AAE701230C93F4E704
S11340A00123069399461A46F5E700BFAFF3008053
S11340B061436F63A787D23FB3C8608B288AC63F2A
S11340C0FB799F501344D33F0000F07F79570000E1
S11340D0705700004D5700000000F83FA85700003B
S11340E08057000001317160520085E7F10708D55F
S11340F0DDE90A01D7E90023FEF788FECDE90A01CC
S1134100013576100837002EF0D1DDE90A23DDE908
S11341100201FEF7A5FFCDE902011AE002259EE7A0
S113412000F0A080CAF100069F4BA04F06F00F02DA
S113413003EBC203D3E90023DDE91001FEF766FEB9
S1134140CDE90201361100230225002E7FD1002B78
S1134150E1D1129B002B00F08780DDE90267002289
S1134160934B3046394601F00DFA00287CD0B9F162
S1134170000F79D0069B002B35DD0AF1FF330A933B
S1134180394600228B4B3046FEF740FECDE9020152
S1134190069F01352846FEF7CFFDDDE90223FEF731
S11341A035FE0022844BFEF77BFC0546A1F15076D8
S11341B0002F5DD10022814BDDE90201FEF76EFC88
S11341C02A463346CDE9020101F0FAF9002840F00D
S11341D088822A4606F10043DDE9020101F0D2F9A2
S11341E0002840F07C82DDE91023CDE90223159BF1
S11341F0002BC0F25081BAF10E0F00F34C816A4BD0
S113420003EBCA0393ED007B219B002B8DED067B12
S113421080F2D880B9F1000F00F3D48040F05E82C0
S11342200022664B51EC170BFEF7F0FDDDE902238B
S113423001F0BCF94F464E46002840F03482059BFD
S1134240059A5D1C312313700AF1010A2FE2F2076B
S113425005D5D7E90023FEF7D9FD013501237610F2
S1134260083772E7022574E7CDF828A04F4691E796
S11342704D4B03EBC70353E902010C9B002B47D0C2
S113428002460B4600204E49FEF7EAFE2A46334614
S1134290FEF704FCCDE90E01059DDDE9020101F004
S11342A0AFF90646FEF748FD02460B46DDE902017A
S11342B0FEF7F4FB303605F8016BDDE90E23CDE99A
S11342C0020101F05FF9002863D1DDE90223002037
S11342D03749FEF7E3FBDDE90E2301F053F900282B
S11342E040F0B780059BEB1A9F427FF77CAF00221A
S11342F0304BDDE90E01FEF789FD0022CDE90E0108
S11343002C4BDDE90201FEF781FDCDE90201C4E792
S113431033462A46FEF77AFD059BCDE90E01DD19E9
S11343201E46DDE9020101F06BF90746FEF704FDC4
S1134330303702460B46DDE90201FEF7AFFB06F813
S1134340017BAE42CDE902014FF0000226D11C4BA5
S1134350DDE90E01FEF7A4FB02460B46DDE902018E
S113436001F02EF9002874D1DDE90E230020144950
S1134370FEF794FB02460B46DDE9020101F002F967
S113438000283FF430AF15F8013C302B05F1FF3223
S113439002D0DDF828A04AE01546F4E7054BFEF705
S11343A035FDCDE90201BCE7A857000080570000A5
S11343B00000F03F0000244000001C4000001440B6
S11343C00000E03FDDE90267059DDDE90623304694
S11343D03946FEF745FE01F013F98046FEF7ACFCC2
S11343E0DDE90623FEF712FD02460B463046394648
S11343F008F13006FEF752FB05F8016B059EAE1B73
S1134400B14502460B4639D1FEF74AFBDDE90623E6
S113441006460F4601F0D4F8C8B9DDE90623304654
S1134420394601F0A5F810B118F0010F0FD1594623
S1134430204600F011FB0023229A2B700AF101039D
S11344401360249B002B3FF4F3AC1D60F0E4CDF823
S113445028A015F8012C392A05F1FF3308D1059A53
S11344609A4209D10A9B01330A93302313701346ED
S11344701A7801321A708CE71D46EAE700229B4B3A
S1134480FEF7C4FC0022002306460F4601F070F834
S113449000289AD0CBE70C9A002A00F08B80209A4F
S11344A0012A6EDC139A002A67D003F23343DDE954
S11344B00857089A01211A4420460892984400F0AB
S11344C06BFB0646002D0CDDB8F1000F09DD4545F8
S11344D0089A2B46A8BF4346D21A0892ED1AA8EBB5
S11344E00308099BEBB10C9B002B67D08FB13146BD
S11344F03A46204600F0F0FB5A460146064620465E
S113450000F053FB59460A90204600F0A5FA0A9B96
S11345109B46099BDA1B04D05946204600F0DCFB7D
S113452083460121204600F037FB0D9B0746002BF4
S113453000F0CB811A460146204600F0CDFB209BBB
S1134540012B074640DC029B002B39D1039BC3F3AC
S11345501303002B36D1039B23F000431B0D1B05D3
S11345602BB1089B0133089308F101080123099337
S11345700D9B002B2AD1012030E0149BC3F136039C
S113458095E7099B09F1FF37BB42BFBF099B099718
S1134590FA1A0D9BBBBF9B180D93DF1B0027B9F1C3
S11345A0000FB5BF089B089DA3EB09054B46B8BF98
S11345B000237EE7DDE908570C9E83E7099AABE701
S11345C00023D4E7029BD2E7002309933B6907EB5E
S11345D08303186900F092FAC0F12000404410F0FF
S11345E01F0047D0C0F12003042B3BDD089BC0F122
S11345F01C000344089305448044089B002B05DDFC
S113460059461A46204600F0B5FB8346B8F1000F20
S113461005DD39464246204600F0ACFB0746129BB6
S113462053B33946584600F0F9FB002824DA002336
S113463059460A22204600F026FA0C9B0AF1FF3A5A
S11346408346002B00F04881002331460A2220468D
S113465000F019FA069B002B06464FDC209B022B28
S11346604CDD11E0C9D0089A1C331A4408921D4449
S11346709844C2E70346F6E7B9F1000F38DC209B03
S1134680022B35DDCDF81890069B63B93946052217
S1134690204600F0F8F901460746584600F0BEFBF4
S11346A000283FF7CCAD219B059D6FEA030A4FF02C
S11346B000093946204600F0CFF9002E3FF4B7AE8A
S11346C0B9F1000F05D0B14503D04946204600F0AA
S11346D0C3F93146204600F0BFF9A8E600273E465C
S11346E0E1E7DDF828A03E46A9E500BF000024402C
S11346F00C9BCDF81890002B00F0F580002D05DD03
S113470031462A46204600F035FB0646099B002B1D
S11347104CD07168204600F06BF9326902320546CC
S1134720920006F10C010C30FEF70AFE0122294624
S1134730204600F01FFB059B0893029B03F0010336
S1134740B1460993064639465846FFF79BFA49464F
S1134750054600F13008584600F060FB32460290EE
S11347603946204600F074FBC368024603BB014689
S11347700A90584600F052FB0A9A03461146204616
S11347800A9300F069F90A9BA3B9209A92B9099A8D
S113479082B9B8F1390F29D0029B002B01DD05F154
S11347A03108089B5D1C83F8008082E73046C2E72D
S11347B00123E3E7029A002A04DB24D1209A12BBE6
S11347C0099A02BB002BECDD59460122204600F079
S11347D0D1FA3946834600F021FB002803DCE0D1FE
S11347E018F0010FDDD0B8F1390FD8D1089B089A21
S11347F05D1C3923137015F8013C392B05F1FF3288
S11348004ED0013353E0089A002B02F1010506DD76
S1134810B8F1390FEAD008F10108089BC3E7059BFA
S1134820069A05F8018CEB1A934221D059460023CD
S11348300A22204600F027F9B14583464FF00003D1
S11348404FF00A024946204605D100F01CF9814682
S11348500646089577E700F016F9314681460023AD
S11348600A22204600F00FF90646F2E74FF000094D
S113487059460122204600F07DFA3946834600F06D
S1134880CDFA0028B7DC02D118F0010FB3D115F826
S1134890013C302B05F1FF327FF40BAF1546F6E7F0
S11348A0059B934205D1059A0AF1010A312313703D
S11348B0FFE615469FE7174BFFF7D7BA249B002B5B
S11348C07FF4B1AA144BFFF7D0BA209B012B7FF7DA
S11348D03AAE0D9B09934EE6069B002B03DC209B0E
S11348E0022B3FF7D1AE059D39465846FFF7CAF96A
S11348F000F1300805F8018B059B069AEB1A9A42E1
S1134900B4DD594600230A22204600F0BCF8834651
S1134910EAE700BF4C57000070570000044B1B68C7
S1134920186A044B002808BF1846F030704700BFCF
S11349301400002078000020024B0146186800F0A3
S11349408FBB00BF14000020000000000000000026
S113495001F0FF01102A2BDB10F0070F08D010F82C
S1134960013B013A8B422DD010F0070F42B3F6D130
S1134970F0B441EA012141EA014122F007047FF049
S113498000070023F0E80256083C85EA010586EAA0
S1134990010685FA47F5A3FA87F586FA47F6A5FADC
S11349A087F68EB9EED1F0BC01F0FF0102F00702E8
S11349B032B110F8013B013A83EA010313B1F8D193
S11349C00020704701387047002D06BF3546033874
S11349D0073815F0010F07D1013015F4807F02BFAD
S11349E0013015F4C03F0130F0BC0138704700BFFE
S11349F070B5456A04460E463DB91020FFF79CFF8A
S1134A006062C0E901550560C560656AEB6883B101
S1134A10636ADB6853F82600B8B9012101FA06F588
S1134A206A1D9200204600F0BFFA60B1C0E901653A
S1134A300EE021220421204600F0B6FA636AE86001
S1134A40DB68002BE4D1002070BD026843F8262007
S1134A500023C0E90333F7E770B5446A06460D4600
S1134A603CB91020FFF768FF7062C0E9014404609C
S1134A70C4603DB1736A6A68DB6853F82210296028
S1134A8043F8225070BD2DE9F0410D691F460646DA
S1134A900C4601F1140C0023DCF8000081B202FB87
S1134AA001710F0C000C02FB007089B2013301EBA1
S1134AB000419D424FEA10474CF8041BECDCD7B18F
S1134AC0A368AB4212DC616830460131FFF790FF06
S1134AD02269023204F10C01804692000C30FEF788
S1134AE02FFC21463046FFF7B7FF444604EB85030D
S1134AF001355F6125612046BDE8F081020C120496
S1134B000346B2B90304102013F07F4F04BF1B0205
S1134B10083013F0704F04BF1B01043013F0404FF2
S1134B2004BF9B000230002B06DB5B0003D5013081
S1134B3070470020E8E720207047036813F007025D
S1134B4001460BD0DA0723D4980749BF5B089B08BA
S1134B5001200B605CBF0B600220704798B2A8B9BB
S1134B601B0C102013F0FF0F04BF1B0A08301A0798
S1134B7004BF1B0904309A0704BF9B080230DA07FC
S1134B8002D45B0806D001300B6070471046E9E799
S1134B90002070472020704710B50C460121FFF714
S1134BA027FF01224461026110BD2DE9F74F14462D
S1134BB00A6923699A42B8BF0B468846BCBFA0461F
S1134BC01C46D8F81070D4F81090D8F80830D8F8EB
S1134BD0041007EB0906B342B8BF0131FFF708FF21
S1134BE000F1140505EB860E2B460022734516D3FF
S1134BF004F1140208F1140102EB890301EB8707A5
S1134C000093009B019293420CD8002E03DD5EF8C2
S1134C10043D002B5DD0066103B0BDE8F08F43F87E
S1134C20042BE3E7B2F800B0BBF1000F23D08946B0
S1134C30AC464FF0000859F8044BDCF800A0A3B2CE
S1134C401FFA8AFA0BFB03A34FEA144ADCF800406C
S1134C5043444FEA14480BFB0A8404EB1344E24632
S1134C609BB243EA04434F454FEA14484AF8043BD5
S1134C702BD8CCF80480019BB3F802A00432BAF11B
S1134C80000F20D02B688946A8464FF0000BB9F8D6
S1134C9000C0B8F802400AFB0C445C44C4469BB212
S1134CA043EA04434CF8043B59F8043BB8F804B015
S1134CB01B0C0AFB03B303EB14434F454FEA134B9E
S1134CC005D8C8F8043004359BE7D446B3E7E0467A
S1134CD0DDE7013E99E700002DE9F843154612F09F
S1134CE0030206460F4607D0013A214C002354F82C
S1134CF02220FFF7C8FE0746AD1035D0746A3CB9D0
S1134D001020FFF719FE7062C0E901440460C4601A
S1134D10D6F82480D8F808404CB940F271213046C6
S1134D20FFF73AFF0023C8F80800044603604FF079
S1134D300008EB070AD5394622463046FFF735FF0F
S1134D40394681463046FFF787FE4F466D100BD03B
S1134D50206838B9224621463046FFF726FF2060F6
S1134D60C0F800800446E4E73846BDE8F88300BF95
S1134D70705800002DE9F0470C464FEA621A236987
S1134D8049680AEB0309A3680746164609F10105B9
S1134D90AB4232DB3846FFF72BFE0023804600F19E
S1134DA014011A4653452BDB20692AEAEA7A04F1F6
S1134DB0140316F01F0201EB8A0103EB800C25D0CB
S1134DC0C2F1200E00201E688A46964030434AF8FD
S1134DD0040B53F8040B9C4520FA0EF014D84860D9
S1134DE008B109F10205013D3846C8F810502146C2
S1134DF0FFF732FE4046BDE8F08701315B00C7E7AC
S1134E0041F823200133CDE75146DCE7043953F858
S1134E10042B41F8042F9C45F9D8E4E703690A6997
S1134E209B1A30B50CD192001430143184181144FB
S1134E3054F8045D51F8042D954203D005D30123A1
S1134E40184630BDA042F3D3FAE74FF0FF33F7E73B
S1134E502DE9F0470D460746114628461446FFF74C
S1134E60DDFF061E08D131463846FFF7C1FD012398
S1134E70C0E90436BDE8F087A4BF23462C46384673
S1134E806168A6BF1D4600260126FFF7B1FD2B6908
S1134E90C660266905F1140904F1140202EB8607C1
S1134EA009EB830800F114054FF0000E52F804AB2F
S1134EB059F8044B1EFA8AF1A3B2C91A230CC3EBA6
S1134EC01A4303EB214389B24FEA234EC84541EA12
S1134ED00343944645F8043BE8D8BC4504D355F84D
S1134EE0043D83B10661C5E75CF8041B1EFA81F337
S1134EF01A1402EB11429BB243EA02434FEA224ED8
S1134F0045F8043BE9E7013EE9E72DE9F7430121D0
S1134F1099469046DDE90A65FFF76AFDC9F30A542C
S1134F200746C9F3130334BBB8F10002019327D039
S1134F3002A840F8082DFFF700FE0099F0B1019A8D
S1134F40C0F1200302FA03F30B43C2407B610192D8
S1134F50019BBB61002B14BF022101213961C4B143
S1134F60A4F2334404443460C0F135002860384668
S1134F7003B0BDE8F08343F48013D5E77961E7E734
S1134F8001A8FFF7DAFD019B7B6101213961203023
S1134F90E5E707EB8103A0F2324030601869FFF7C0
S1134FA0ADFDC0EB4110E1E738B502FB01F4214649
S1134FB000F056F8054618B122460021FEF7CBF959
S1134FC0284638BD38B50546002945D051F8043C7B
S1134FD00C1F002BB8BFE41800F027FA1F4A13680F
S1134FE0104633B9636014602846BDE8384000F0C9
S1134FF01DBAA3420CD921686218934204BF1A68EF
S11350005B68636004BF521822600460ECE71346D7
S11350105A680AB1A242FAD919685818A0420BD1A9
S113502020680144581882421960DDD11068526822
S11350305A6001441960D7E702D90C232B60D3E7E7
S1135040206821188A4204BF11685268626004BF54
S1135050091821605C60C7E738BD00BFB4030020B5
S113506070B5CD1C25F0030508350C2D38BF0C2573
S1135070002D064601DBA94203D90C23336000202E
S113508070BD00F0D2F9214A1468214691B9204C30
S113509023681BB9304600F08DF92060294630465C
S11350A000F088F9431C24D10C233360304600F00F
S11350B0BDF9E4E70B685B1B18D40B2B0FD90B600D
S11350C0CD50CC18304600F0B1F904F10B00231D8B
S11350D020F00700C31AD3D05A42E250D0E78C42E2
S11350E04B6816BF636013600C46EBE70C464968D7
S11350F0CCE7C41C24F00304A04205D0211A304696
S113510000F058F90130CFD02560DBE7B40300206C
S1135110B80300202DE9F0478E689E4282460C4673
S11351209046994637D88A8912F4906F31D0256811
S113513009696F1A6569022305EB450595FBF3F5CB
S113514009F101033B449D4238BF1D46530530D548
S11351502946FFF785FF064650B90C23CAF80030EC
S1135160A38943F04003A3814FF0FF30BDE8F087EB
S11351703A462169FEF7E4F8A38923F4906343F0E7
S11351808003A381266165613E44ED1B2660A56012
S11351904E464E4500D94E4632464146206800F000
S11351A02BF9A3689B1BA36023681E442660002080
S11351B0DCE72A4600F03BF906460028E2D12169E3
S11351C05046FFF7FFFEC8E72DE9F04F9DB080463B
S11351D003938B891D060C4616460FD50B696BB9D4
S11351E04021FFF73DFF2060206128B90C23C8F857
S11351F000304FF0FF30C7E0402363610023099380
S113520020238DF8293030238DF82A304FF0010BFC
S113521037463D4615F8013B0BB1252B3ED1B7EB84
S1135220060A0BD05346324621464046FFF772FF2A
S1135230013000F0A480099B534409933B78002B70
S113524000F09D8000234FF0FF32CDE90523049345
S113525007938DF853301A932F46052217F8011B34
S11352604F48FFF775FB049BD0B9D90644BF2022F1
S11352708DF853201A0744BF2B228DF853202A7827
S11352802A2A15D0079A2F4600200A25394611F8F4
S1135290013B303B092B4DD9B8B10FE02F46B8E79D
S11352A03F4A801A0BFA00F0184304903D46D3E7B6
S11352B0039A111D12680391002A01DB079204E08E
S11352C0524243F00203079204933B782E2B0CD1F5
S11352D07B782A2B33D1039B1A1D1B680392002B66
S11352E0B8BF4FF0FF33023705932E4D39780322B0
S11352F02846FFF72DFB38B14023401B03FA00F08A
S1135300049B034301370493397827488DF8281008
S113531006227E1CFFF71CFB002838D0234B13BB4E
S1135320039B073323F0070308330393099B4B4480
S113533009936DE705FB023201200F46A6E700231F
S11353400137059319460A25384610F8012B303ADF
S1135350092A03D9002BC8D00591C6E705FB012112
S113536001230746F0E703AB00932246104B04A940
S11353704046FEF789F8B0F1FF3F8146D6D1A389B4
S11353805B063FF536AF09981DB0BDE8F08F03AB5F
S113539000932246064B04A94046FEF731FBEAE798
S11353A07C580000825800008658000089340000B0
S11353B01551000038B5064C002305460846236005
S11353C000F070F8431C02D1236803B12B6038BD90
S11353D0C003002082B001B901A942B14BB11378D6
S11353E00B601278101C18BF012002B070471046E1
S11353F0FBE76FF00100F8E7884210B501EB020308
S113540007D8421E99420AD011F8014B02F8014F05
S1135410F8E78342F5D98118D21AD34200D110BDDE
S113542013F8014D01F8014DF7E770477047F8B5DF
S1135430074614460E4621B91146BDE8F840FFF769
S11354400FBE22B9FFF7BEFD25462846F8BD00F081
S113545021F8A0420FD221463846FFF701FE054647
S11354600028F2D031462246FDF76AFF314638461D
S1135470FFF7A8FDE9E73546E7E749B1FF2A85BF0D
S11354808A2303600A704FF0FF3098BF01207047F1
S11354900846704751F8043C181F002BBCBF0B583A
S11354A0C0187047044A05491368002B08BF0B460F
S11354B01844106018467047BC030020C80300203D
S11354C0FEE700BF4FF0FF3C06E000BF4FF0010CC9
S11354D002E000BF4FF0010C4DF804CD4FEA410C3F
S11354E07FEA6C5C4FEA430C18BF7FEA6C5C1BD00C
S11354F001B050EA410C0CBF52EA430C91EA030F8D
S113550002BF90EA020F0020704710F1000F91EAE9
S1135510030F58BF994208BF90422CBFD8176FEAB7
S1135520E37040F0010070474FEA410C7FEA6C5C85
S113553002D150EA013C07D14FEA430C7FEA6C5C8C
S1135540D6D152EA033CD3D05DF8040B704700BFB8
S11355508446104662468C461946634600E000BF06
S113556001B5FFF7B7FF002848BF10F1000F01BDD8
S11355704DF808EDFFF7F4FF0CBF012000205DF8A3
S113558008FB00BF4DF808EDFFF7EAFF34BF012028
S113559000205DF808FB00BF4DF808EDFFF7E0FFC1
S11355A094BF012000205DF808FB00BF4DF808ED12
S11355B0FFF7CEFF94BF012000205DF808FB00BF79
S11355C04DF808EDFFF7C4FF34BF012000205DF85B
S11355D008FB00BF4FEA410C7FEA6C5C02D150EA41
S11355E0013C0AD14FEA430C7FEA6C5C02D152EAD7
S11355F0033C02D14FF0000070474FF001007047A8
S11356004FEA410212F5001215D211D56FF47873E6
S1135610B3EB625212D94FEAC12343F0004343EA89
S1135620505311F0004F23FA02F018BF4042704764
S11356304FF00000704750EA013005D111F00040EE
S113564008BF6FF0004070474FF00000704700BF84
S1135650F8B500BFF8BC08BC9E467047F8B500BF5B
S1135660F8BC08BC9E4670475FF800F0E5010020D6
S11356700403020B050C00000302010A0302060ADC
S113568040787D0100000000005A62020001000021
S1135690C0CF6A0002000000809FD5000201000014
S11356A0002D310102020000080911080A48656C46
S11356B06C6F20576F726C640A0000000A48756DA5
S11356C06964697479203D2025322E3066202525B1
S11356D00A0000000A48756D6964697479203D20E8
S11356E025322E31662025250A0000000A54656DF6
S11356F070203D2025322E306620460A000000002E
S11357000A54656D70203D2025322E316620460AEC
S1135710000000000002080705000A00C80000009D
S1135720FFFF010001000000A00068010A20070635
S1135730020A04070000000018000020494E460039
S1135740696E66004E414E006E616E00300030316D
S113575032333435363738394142434445460030D4
S11357603132333435363738396162636465660003
S1135770496E66696E697479004E614E00000000DE
S11357800080E03779C34143176E05B5B5B8934639
S1135790F5F93FE9034F384D321D30F94877825A05
S11357A03CBF737FDD4F1575000000000000F03F23
S11357B000000000000024400000000000005940E8
S11357C00000000000408F40000000000088C3403B
S11357D000000000006AF8400000000080842E41B0
S11357E000000000D01263410000000084D79741FC
S11357F00000000065CDCD41000000205FA0024202
S1135800000000E876483742000000A2941A6D4276
S1135810000040E59C30A2420000901EC4BCD64269
S113582000003426F56B0C430080E03779C3414314
S113583000A0D8855734764300C84E676DC1AB438A
S1135840003D9160E458E143408CB5781DAF1544A8
S113585050EFE2D6E41A4B4492D54D06CFF0804483
S1135860F64AE1C7022DB544B49DD9794378EA4498
S113587005000000190000007D000000232D302BDE
S11358802000686C4C00656667454647004300503D
S11358904F534958002E0000202020202020202093
S11358A020282828282820202020202020202020CC
S11358B020202020202020208810101010101010EC
S11358C01010101010101010040404040404040434
S11358D004041010101010101041414141414101C5
S11358E001010101010101010101010101010101A4
S11358F001010110101010101042424242424202B3
S11359000202020202020202020202020202020273
S1135910020202101010102000000000000000001D
S11359200000000000000000000000000000000073
S11359300000000000000000000000000000000063
S11359400000000000000000000000000000000053
S11359500000000000000000000000000000000043
S11359600000000000000000000000000000000033
S11359700000000000000000000000000000000023
S11359800000000000000000000000000000000013
S10F599000000000000000000000000007
S10B599CB0A7FF7F0100000029
S11359A4C0EA2101005A6202C0EA21010080000019
S11359B4C0EA2101180000200000000000000000DB
S11359C400000000000000000000000000000000CF
S11359D400000000000000000000000000000000BF
S11359E400000000000000000000000000000000AF
S11359F4000000000000000000000000000000009F
S1135A04000000000000000000000000000000008E
S1135A14000000000000000043000000000000003B
S1135A24000000000000000000000000000000006E
S1135A34000000000000000043000000000000001B
S1135A44000000000000000000000000000000004E
S1135A5400000000000000004300000000000000FB
S1135A64000000000000000000000000000000002E
S1135A7400000000000000004300000000000000DB
S1135A84000000000000000000000000000000000E
S1135A9400000000000000004300000000000000BB
S1135AA400000000000000000000000000000000EE
S1135AB4000000000000000043000000000000009B
S1135AC400000000000000000000000000000000CE
S1135AD4000000000000000043000000000000007B
S1135AE400000000000000000000000000000000AE
S1135AF400000000000000007B540000D5530000A7
S1135B0400000000975800009558000081580000D8
S1135B148158000081580000815800008158000019
S1135B248158000081580000815800008158000009
S1135B34FFFFFFFFFFFFFFFFFFFFFFFFFFFF00006B
S1135B4401004153434949000000000000000000E3
S1135B54000000000000000000000000000000003D
S1135B6400004153434949000000000000000000C4
S1135B74000000000000000000000000000000001D
S1135B8400000000034A136843F0004330BF13606D
S1135B94704700BF4C310E40310100000D0100007C
S90301C13A
