:1000000000000420C1010000ED010000ED0100002E
:10001000ED010000ED010000ED010000ED01000028
:10002000ED010000ED010000ED010000ED01000018
:10003000ED010000EC010000ED010000ED01000009
:10004000ED010000ED010000ED010000ED010000F8
:10005000ED010000ED010000ED010000ED010000E8
:10006000ED010000ED010000ED010000ED010000D8
:10007000ED010000ED010000ED010000ED010000C8
:10008000ED01000095360000ED010000ED010000DB
:10009000ED010000ED010000ED010000ED010000A8
:1000A000ED010000ED010000ED010000293B000022
:1000B000ED010000ED010000ED010000ED01000088
:1000C000ED010000ED010000ED010000ED01000078
:1000D000ED010000ED010000ED010000ED01000068
:1000E000ED010000ED010000FD360000ED01000013
:1000F000ED010000ED010000ED010000ED01000048
:10010000ED010000ED010000ED01000010B5054C0F
:10011000237833B9044B13B10448AFF300800123B3
:10012000237010BDA400002000000000FC47000068
:1001300008B5034B1BB103490348AFF3008008BD6A
:1001400000000000A8000020FC470000154B002B19
:1001500008BF134B9D46A3F5803A00218B460F46FE
:100160001348144A121A04F005FB0F4B002B00D061
:1001700098470E4B002B00D0984700200021040028
:100180000D000D48002802D00C48AFF3008004F0A9
:10019000CDFA2000290003F02DFE04F0B3FA00BFD1
:1001A0000000080000000420000000000000000023
:1001B000A40000201C01002000000000000000003E
:1001C000064880470649074A074B9A42BEBF51F886
:1001D000040B42F8040BF8E7FFF7B8FFE502000054
:1001E0000848000000000020A4000020FEE700BF37
:1001F00080B582B000AF00F025F878600A4BD3F8E4
:1002000008311B0AC3F308033B603B6801337A687B
:10021000B2FBF3F37B60054A7B6813607B6818468A
:100220000837BD4680BD00BF00400E4008000020DA
:1002300080B400AF024B1846BD465DF8047B7047A2
:10024000005A620280B483B000AF1C4BD3F89430E4
:1002500003F00703023B032B1BD801A252F823F043
:100260008102000079020000710200008902000092
:10027000134B1B687B6010E04FF400437B600CE085
:10028000104B1B687B6008E00F4B1B685B087B60B2
:1002900003E00D4B1B687B6000BF084BD3F80031B7
:1002A0001B0A03F01F0301337A68B2FBF3F318460D
:1002B0000C37BD465DF8047B704700BF00400E4020
:1002C00004000020000000200C00002080B400AFDB
:1002D000034B1B681846BD465DF8047B704700BFA2
:1002E0000000002080B400AF074B084A9A60064B1C
:1002F000D3F88830044A43F47003C2F8883000BF52
:10030000BD465DF8047B704700ED00E00000000092
:1003100080B400AF4FF400431846BD465DF8047B3F
:10032000704780B400AF4FF47A731846BD465DF84D
:10033000047B704780B400AF034B1B681846BD4672
:100340005DF8047B704700BF0400002080B487B0D4
:1003500000AFF860B9607A60FB6803F10473DA00FB
:10036000BB6813449B007B617B697A681A6000BF9D
:100370001C37BD465DF8047B704780B485B000AF84
:10038000786039607B6803F10473DA003B681344DA
:100390009B00FB60FB681B6818461437BD465DF880
:1003A000047B704780B483B000AF786001227B6823
:1003B00002FA03F318460C37BD465DF8047B70471C
:1003C00080B400AF064B1B6803F04003002B01D143
:1003D000012300E000231846BD465DF8047B70470A
:1003E0003C300E4080B500AFFFF7EAFF034683F0D4
:1003F0000103DBB2002B08D100BF12210448FFF734
:10040000BCFF0346002BF8D100E000BF80BD00BF59
:1004100004300E4080B500AFFFF7E4FF034B5B688C
:100420001B0C03F00303DBB2184680BD00300E4006
:1004300080B584B000AF78600123FB607B68124A0E
:10044000934204D80023FB600023BB6008E07B6874
:100450000E4A934202D80123BB6001E00223BB6035
:10046000FA6810210A48FFF771FF094BD3F80031F1
:1004700023F08072BB681B0605491343C1F80031A5
:1004800000BF1037BD4680BD0048E8010090D00392
:1004900000400E4080B483B000AF054B1B687B600A
:1004A0007B6818460C37BD465DF8047B704700BF7B
:1004B0001000002080B582B000AFFFF7C3FE786067
:1004C000064BD3F800311B0A03F01F0301337A688F
:1004D00002FB03F318460837BD4680BD00400E40BE
:1004E00080B582B000AF0D4800F01EFC0346FB70E3
:1004F000FB78072B05D0092B07D1FFF7A3FE786007
:1005000006E0FFF7C7FF786002E000237B6000BFD2
:100510007B6818460837BD4680BD00BF06000E0048
:1005200080B584B000AF78607B68002B1CD11B487D
:1005300000F0FAFB0346FB7200BFFB7A013B072B7E
:1005400023D801A252F823F06D0500008B050000AE
:100550008B0500007B0500008B0500008B0500006B
:100560007305000083050000002312E00023FB60F8
:100570000EE0FFF78FFFF8600AE0FFF7A7FEF860D4
:1005800006E0FFF797FFF86002E00023FB6000BF82
:10059000FB6818461037BD4680BD00BFB80032006A
:1005A00080B485B000AF786039601E4B5B6803F0A3
:1005B0004073FB600023BB6012E01B4ABB68DB009A
:1005C00013441A793B68DBB29A4206D1164ABB68DB
:1005D00052F833307A689A4206D9BB680133BB605F
:1005E000BB68042BE9D900E000BFBB68052B02D132
:1005F0000323FB6005E00C4ABB68DB0013445B7916
:10060000FB60FB681B06FB60064B5B6823F04072D7
:100610000449FB6813434B6000BF1437BD465DF8C7
:10062000047B704700000E40A847000080B582B0F0
:1006300000AF0E4B1B6C002B14BF01230023FB717A
:100640000A4B41F671321A64FFF7F2FD03460021AE
:100650001846FFF7A5FFFB79002B02D0034B0022C1
:100660001A6400BF0837BD4680BD00BF00000E40C1
:1006700080B584B000AF786039600C4B1B6C002BE8
:1006800014BF01230023FB73084B41F671321A6437
:1006900039687868FFF784FFFB7B002B02D0034B9F
:1006A00000221A6400BF1037BD4680BD00000E4016
:1006B00080B487B000AF78600F237B617B68033321
:1006C0003B617B69FB60FA683B69934228BF134634
:1006D000BB60BB681B07BB60BB6818461C37BD46C8
:1006E0005DF8047B7047000080B400AF044B5B6A88
:1006F0001B0903F003031846BD465DF8047B7047F1
:1007000000400E4080B483B000AF7860074B5B6A56
:1007100023F030027B681B01044913434B6200BF86
:100720000C37BD465DF8047B704700BF00400E40AB
:1007300090B585B000AF78600023BB607B68354A18
:10074000934206D0344A934203D0344A934200D0B5
:1007500000E000BF786800F0E7FA0346FB607B68C2
:100760002C4A93420DD02C4A934211D02B4A9342EB
:1007700000D014E02A4BD3F8803003F00703FB606D
:100780000DE0274BD3F8843003F00703FB6006E04D
:10079000234BD3F8883003F00703FB6000BFFB68EE
:1007A000042B2ED801A252F823F000BFFD07000051
:1007B000C1070000C9070000D9070000D1070000E9
:1007C000FFF7A6FDB8601FE0FFF7B4FDB8601BE0BF
:1007D000FFF7A7FDB86017E0FFF734FD0446104BA4
:1007E000D3F800311B0E03F0010301331846FFF765
:1007F000D9FD0346B4FBF3F3BB6005E00023BB6007
:1008000002E00023BB6000BFBB6818461437BD463A
:1008100090BD00BF030020000500240002001E0060
:1008200000400E4080B483B000AF78600A4BD3F82C
:10083000443103F00103002B08D100BF064BD3F86D
:1008400040217B681340002BF8D100E000BF0C373B
:10085000BD465DF8047B704700400E4080B400AF99
:1008600000BFBD465DF8047B704780B400AF00BF99
:10087000BD465DF8047B704780B582B000AF7860FC
:10088000786800F087F90346013318460837BD46FB
:1008900080BD000080B586B000AF78600B46FB706D
:1008A00000233B617B681B0A03F00F03013B092B0C
:1008B00044D801A252F823F0E1080000ED0800003E
:1008C0003D0900003D090000E7080000F3080000B2
:1008D000FD0800003D0900000709000013090000A1
:1008E000184B7B6118E0184B7B6115E0174B7B615F
:1008F00012E0174B7B6101233B610DE0154B7B61DF
:1009000010233B6108E0144B7B614FF480333B6163
:1009100002E0124B7B6100BF7B681B0B03F01F03DF
:10092000FB603B69002B02D03869FFF77BFFFB7847
:100930001A46F9687869FFF709FD00E000BF18372B
:10094000BD4680BD00400E40B0400E40C0400E404D
:10095000E0400E40E8400E40F0400E4050410E4056
:1009600090B585B000AF78607B6803F47813B3F579
:10097000B01F00F09480B3F5B01F21D8B3F5202F3D
:1009800058D0B3F5202F08D8B3F5003F56D0B3F5B3
:10099000802F40D0002B3AD0EBE0B3F5602F00F071
:1009A000D080B3F5602F03D8B3F5402F55D0E0E0E9
:1009B000B3F5801F00F0C980B3F5A01F61D0D8E067
:1009C000B3F5101F00F0B880B3F5101F0BD8B3F5C6
:1009D000F01F51D0B3F5001F00F08280B3F5D01F97
:1009E00000F08380C5E0B3F5401F00F09180B3F5BF
:1009F000401F03D8B3F5381F63D0BAE0B3F5481FE2
:100A000000F0A780B3F5781F00F0A880B1E0FFF7F1
:100A100019FCF860B0E0FFF715FCF860594BD3F80B
:100A20000C311B0AC3F308030133FA68B2FBF3F37A
:100A3000FB60A1E0FFF706FCF8609DE0FFF702FC19
:100A4000F860504BD3F808311B0AC3F30803013395
:100A5000FA68B2FBF3F3FB608EE0FFF7F3FBF8609C
:100A6000484BD3F814311B0A03F01F030133FA6813
:100A7000B2FBF3F3FB607FE04348FFF759FEF860F9
:100A80007AE04248FFF754FEF8603E4BD3F830312D
:100A900003F00303FA6822FA03F3FB606CE03A48C0
:100AA000FFF746FEF860374BD3F8203103F00F0311
:100AB0001846FFF777FC0246FB68B3FBF2F3FB60D6
:100AC0005AE03148FFF734FEF8602E4BD3F820315E
:100AD0001B0903F00303FA6822FA03F3FB604BE0FF
:100AE0002B48FFF725FEF86046E02948FFF720FE77
:100AF000F860244BD3F828311B0903F00303184690
:100B0000FFF750FC0246FB68B3FBF2F3FB6033E0F7
:100B10001F48FFF70DFEF8601A4BD3F828311B0A67
:100B200003F0030304331846FFF73CFC0246FB685E
:100B3000B3FBF2F3FB601FE01448FFF7F9FDF86028
:100B40001AE0FFF7CDFCF86016E0FFF7A3FCF860B1
:100B500012E00020FFF7E4FCF8600DE0FFF772FB05
:100B600004467868FFF788FE0346B4FBF3F3FB60A6
:100B700002E00023FB6000BFFB6818461437BD4647
:100B800090BD00BF00400E4002001E000500240082
:100B90000300200080B584B000AF78607B681B093B
:100BA00003F00F03BB60BB68013B092B00F2A88078
:100BB00001A252F823F000BFE10B0000F10B00008E
:100BC000010C0000210C0000010D0000010D0000CF
:100BD000310C0000410C00008F0C0000E30C000001
:100BE0004B4BD3F800311B0A03F01F03FB608AE074
:100BF000474BD3F814311B0A03F01F03FB6082E05C
:100C0000434BD3F800311B0E03F00103FB60FB687C
:100C100001331846FFF7C6FB0346013BFB6072E059
:100C20003B4BD3F80C311B0AC3F30803FB606AE0AB
:100C3000374BD3F808311B0AC3F30803FB6062E0AB
:100C40007B68344A934203D0334A93420DD01AE072
:100C50002F4BD3F8203103F00F03FB60F868FFF748
:100C6000A1FB0346013BFB6010E0294BD3F8203188
:100C70001B0903F00303FB60F868FFF793FB0346CF
:100C8000013BFB6002E00023FB6000BF3BE07B68B0
:100C9000224A934203D0224A93420ED01DE01C4BBD
:100CA000D3F828311B0903F00303FB60F868FFF752
:100CB00079FB0346013BFB6012E0154BD3F828316A
:100CC0001B0A03F00303FB60FB6804331846FFF7BD
:100CD00069FB0346013BFB6002E00023FB6000BFB1
:100CE00011E07B680F4A934206D1094BD3F83031AB
:100CF00003F00303FB6002E00023FB6000BF02E09F
:100D00000023FB6000BFFB6818461037BD4680BD5E
:100D100000400E408006160080162E0090171A0024
:100D200090273000A009140080B485B000AF78602F
:100D30000123FB737B6803F00F03BB60BB68013BBF
:100D4000072B00F2C48001A252F823F06D0D0000C1
:100D5000C30D0000F30D0000CF0E0000390E00009F
:100D6000690E0000CF0E00008D0E00005D4BD3F821
:100D7000943003F00703023B052B1ED801A252F862
:100D800023F000BFA90D0000A30D00009D0D000081
:100D9000AF0D0000BB0D0000B50D00000223FB737A
:100DA0000EE00323FB730BE00423FB7308E00B232B
:100DB000FB7305E00C23FB7302E00523FB7300BF0C
:100DC00088E0484BD3F8803003F00703022B06D0AD
:100DD000042B07D0012B08D10323FB7308E0022367
:100DE000FB7305E00A23FB7302E00123FB7300BFE2
:100DF00070E03C4BD3F8843003F00703013B032B36
:100E000016D801A252F823F0190E00001F0E0000A0
:100E10002B0E0000250E00000323FB730BE00223C2
:100E2000FB7308E00A23FB7305E00623FB7302E073
:100E30000123FB7300BF4DE02A4BD3F8883003F049
:100E40000703022B06D0042B07D0012B08D1032364
:100E5000FB7308E00223FB7305E00A23FB7302E047
:100E60000123FB7300BF35E01E4B1B6F03F0010332
:100E7000002B04D0012B05D10923FB7305E00723C8
:100E8000FB7302E00123FB7300BF23E0154BD3F893
:100E90005C3103F03003102B0CD0102B02D8002B48
:100EA00005D010E0202B08D0302B09D00BE0012317
:100EB000FB730BE00723FB7308E00423FB7305E0DF
:100EC0000823FB7302E00123FB7300BF02E0002351
:100ED000FB7300BFFB7B18461437BD465DF8047BEF
:100EE000704700BF00400E4080B58AB000AF786008
:100EF0000B46FB7003237B62032387F82330002318
:100F0000BB6100237B617B68112B19D1FB78042B1B
:100F100003D1FFF7DBF978610BE0FB78052B08D1F3
:100F200000F0C6F90246A44B9A4202D900F0C0F97B
:100F300078617B69002B03D00021786900F066FF9F
:100F40007B6803F00F033B613B69013B072B00F219
:100F5000298101A252F823F0790F00006B100000E4
:100F60007D100000A51100006F1000001511000099
:100F7000A511000033110000FB78023B0A2B00F2A0
:100F8000138101A252F823F0B50F0000C10F000039
:100F9000CD0F0000DF0F0000A9110000A911000013
:100FA000A9110000A9110000A9110000F10F000013
:100FB000FD0F000004237B62002387F8233023E029
:100FC00003237B62012387F823301DE002237B6229
:100FD000022387F823307948FFF72AFA14E0012327
:100FE0007B62032387F823307448FFF721FA0BE074
:100FF00005237B62032387F8233005E007237B6208
:10100000062387F8233000BF97F82330062B06D03D
:1010100097F8233001220121184600F057FAFFF714
:1010200005FBFFF71BFC7B69002B01D0FFF7DAF90A
:10103000634A7B6A5367FFF7DBF8F860FFF702F952
:1010400003461846FFF7F4F9FFF7E4F9034619469B
:10105000F868FFF70DFB7B69002B03D1012100200D
:1010600000F0D4FEFFF701FCA3E0564BBB61BB6967
:10107000002B01D0BB6900E0534BBB61BB69002B67
:1010800001D0BB6900E0514BBB61FB78013B092BF0
:1010900000F28C8001A252F823F000BFC5100000BE
:1010A000CB100000DB100000AD110000AD110000FE
:1010B000EB100000AD110000AD110000AD110000FB
:1010C000071100000023FB6120E001220121002024
:1010D00000F0FCF90223FB6118E00122012101204C
:1010E00000F0F4F90123FB6110E0FFF7ABF80346D1
:1010F0001846FFF79DF9012202213548FFF726F92E
:101100000323FB6102E00423FB6100BFBB69FA69B2
:101110001A604EE0FB78072B02D0092B04D048E080
:10112000274B00221A6703E0254B01221A6700BFF4
:101130003FE0FB78013B072B3AD801A252F823F09D
:1011400061110000B1110000B11100007711000021
:10115000B1110000B11100006711000087110000FB
:101160000023FB6112E001220121042000F0AEF90E
:101170000123FB610AE001220121022000F0A6F90F
:101180000223FB6102E00323FB6100BF0C4BD3F899
:101190005C3123F03002FB691B0109491343C1F89C
:1011A0005C3106E000BF04E000BF02E000BF00E0E9
:1011B00000BF2837BD4680BD002D31010148E80140
:1011C00000400E4080400E4088400E4084400E405B
:1011D000B0400E4080B483B000AF78607B68294A8D
:1011E00093422FD0274A934210D8274A934221D0C6
:1011F000254A934203D8254A93421BD03AE0244A19
:10120000934217D0234A934218D033E0224A9342A4
:1012100024D0214A934206D8204A934216D0204A2D
:10122000934217D026E01F4A93421BD01E4A934296
:101230001CD01FE01D4BD3F880301CE01B4BD3F8B3
:101240008C3018E0194BD3F8983014E0174BD3F8D2
:101250009C3010E0154BD3F8A0300CE0134BD3F8C2
:10126000A83008E0114BD3F8AC3004E00F4BD3F8B2
:10127000B03000E0002318460C37BD465DF8047B13
:10128000704700BF405DC60080841E0040420F00D2
:1012900000093D00C0CF6A0080BA8C010024F40030
:1012A000C0EA21010048E80180D54302B081E00F87
:1012B00080B400AF034B1B681846BD465DF8047B45
:1012C000704700BF0C00002080B586B000AF78608A
:1012D0007868FFF77FFF78617B69002B03D07B691B
:1012E000B3F1FF3F00BF3A4B1B683B61384A7B6854
:1012F00013601120FFF718FD0346052B03D1FFF7FC
:1013000095F9FFF7ABFA00BF18213248FFF735F81F
:101310000346002BF8D17B682F4A93420DD02F4A09
:10132000934211D02E4A934200D012E07B6923F001
:10133000C06343F080637B610BE07B6923F0C06393
:1013400043F000737B6104E07B6923F0C0637B6141
:1013500000BF1120FFF7E8FC0346052B02D1786897
:10136000FFF766F87A683B699A4203D901217868E9
:1013700000F04CFD1B4A7B6913611120FFF7D4FC80
:101380000346052B09D1FEF733FFF860FFF742F85B
:1013900003461946F868FFF76BF9FEF753FF03465B
:1013A0001846FFF745F87A683B699A4203D801214D
:1013B000002000F02BFD1120FFF7B6FC0346052BA3
:1013C00001D1FFF752FA00BF1837BD4680BD00BFFC
:1013D0000C00002040410E4080841E0000093D00AA
:1013E00040420F0000400E4090B585B000AF7860DD
:1013F0001120FFF799FC01220021022000F066F87D
:101400007B685B7883F00103DBB2002B0DD07B6837
:101410009B7883F00103DBB2002B06D07B68DB787E
:1014200083F00103DBB2002B00BF0023FB607B686D
:101430001B7C022B01D10123FB60224B5B6A23F052
:1014400001022049FB6813434B627B681B781A46F4
:1014500008211D48FEF77AFF7B689B88DB027A68CB
:10146000527A1146174A0B43D362164B1B6B03F09B
:101470007F627B68DB88DB0213437A68927A1A43C7
:101480007B681B7ADB0142EA03047B681B7A1846FF
:10149000FFF70EF903460B4A234313637B685B7B1C
:1014A0001A037B689B7B1B0113437A68D27B1A4328
:1014B0007B681B7B1B04034913434B6300BF14373A
:1014C000BD4690BD00400E4024400E4080B588B01F
:1014D00000AF0346FB710B46BB7113467B71FB7972
:1014E000042B00F2B88001A252F823F04915000045
:1014F0003715000013150000011500002515000028
:1015000001237B6102233B610123FB610023BB615B
:1015100025E004237B6108233B610323FB61022355
:10152000BB611CE010237B6120233B610523FB6131
:101530000423BB6113E040237B6180233B610723CD
:10154000FB610623BB610AE04FF480737B614FF4BB
:1015500000733B610923FB610823BB6100BFBB79BA
:10156000002B5BD00023FB73FB79022B11D1FFF71B
:10157000BBF80346002B0CD1394BDB6B0123FB730B
:10158000384B5B6A03F00103012B02D10120FFF706
:10159000B9F8344A7B69136600BFB9693248FEF76F
:1015A000ECFE0346002BF8D07B79002B54D000BF13
:1015B000F9692D48FEF7E1FE0346002BF8D0FB79D0
:1015C000022B49D1FB7B002B46D0264B5B6A03F0F4
:1015D0000103012B05D101222021022000F04AF94C
:1015E00003E00021022000F0FBF8022000F03EF8AA
:1015F000B860012200210220FFF768FFB9680220CD
:1016000000F06EF8174A7B69136600BFF969164847
:10161000FEF7B3FE0346002BF8D01DE0114A3B69EC
:10162000136600BF0F4BD3F890300121BA6901FA5D
:1016300002F21340002BF5D17B79002B0CD000BFB8
:10164000084BD3F890300121FA6901FA02F21340F5
:10165000002BF5D100E000BF2037BD4680BD00BFA4
:1016600000300E4000400E4090400E4080B485B0E7
:1016700000AF0346FB71FB79013B032B23D801A28A
:1016800052F823F095160000B9160000A1160000CC
:10169000AD160000114B1B6AC3F30803FB6015E095
:1016A0000E4B1B6903F07F03FB600FE00B4B9B6944
:1016B00003F07F03FB6009E0084BD3F89C30C3F3D1
:1016C0000A03FB6002E00023FB6000BFFB681846D2
:1016D0001437BD465DF8047B704700BF00400E40E4
:1016E00080B584B000AF03463960FB71FB79013BE4
:1016F000032B6AD801A252F823F000BF0D17000097
:101700008F1700003B170000651700003B68C3F30C
:1017100008033B6000BF1A212E48FEF72EFE034649
:10172000002BF8D12C4B1B6A23F4FF7323F0010329
:1017300029493A6813430B6248E03B6803F07F0392
:101740003B6000BF18212348FEF717FE0346002B1D
:10175000F8D1214B1B6923F07F021F493B681343DB
:101760000B6133E03B6803F07F033B6000BF19214E
:101770001848FEF702FE0346002BF8D1164B9B6972
:1017800023F07F0214493B6813438B611EE0124B28
:10179000D3F89030104B5B6A23F030030E4A43F0CD
:1017A000100353623B68DB0903F00F031846FEF792
:1017B0007FFFF860084B1A6B084B13403A681A43D6
:1017C0000549FB6813430B6300E000BF00BF1037FF
:1017D000BD4680BD40410E4000400E4000F8FF0F66
:1017E00080B584B000AF03460A46FB711346BB7157
:1017F000FEF77AFF0346002B03D14FF44003FB6052
:1018000016E0BB79202B04D0302B0AD0002B04D05B
:101810000BE04FF40003FB600AE04FF44003FB6071
:1018200006E04FF44003FB6002E0104BFB6000BF9A
:1018300000BF0F4BD3F89020FB681340FA689A4220
:10184000F7D1FB6803F48003002B0AD0084BD3F8D0
:10185000A03003F48063002B14BF01230023DBB20C
:1018600000E0012318461037BD4680BDFF33E10775
:1018700000400E4080B582B000AF0346FB710B46BE
:10188000BB7113467B71FB79022B00D016E0BB794C
:10189000002B07D00C4B4FF48062C3F8A8200A4AF3
:1018A000BB7953667B79002B07D0BA79FB79114657
:1018B0001846FFF795FF034601E000BF01231846D5
:1018C0000837BD4680BD00BF00400E4080B483B0E5
:1018D00000AFEFF310833B603B687B6072B67B68C0
:1018E00018460C37BD465DF8047B704780B483B062
:1018F00000AF78607B68002B00D162B600BF0C3768
:10190000BD465DF8047B704780B500AFFEF770FC04
:1019100000BF80BD80B487B000AFF860B9607A6066
:10192000FB6803F10473DA00BB6813449B007B611E
:101930007B697A681A6000BF1C37BD465DF8047B7E
:10194000704780B485B000AF786039607B6803F180
:101950000473DA003B6813449B00FB60FB681B6860
:1019600018461437BD465DF8047B704780B400AF5D
:10197000064B1B6803F04003002B01D1012300E05C
:1019800000231846BD465DF8047B70473C300E408E
:1019900080B500AFFFF7EAFF034683F00103DBB237
:1019A000002B08D100BF12210448FFF7CAFF0346ED
:1019B000002BF8D100E000BF80BD00BF04300E4016
:1019C00080B500AFFFF7E4FF034B5B681B0C03F02F
:1019D0000303DBB2184680BD00300E4080B483B0F4
:1019E00000AF7860044A7B68D36200BF0C37BD4605
:1019F0005DF8047B704700BF00300E4080B400AF3C
:101A0000034B5B6A1846BD465DF8047B704700BF18
:101A100000300E4080B400AF034B00225A6300BF79
:101A2000BD465DF8047B704700300E4080B400AFC7
:101A3000044B4AF6E8525A6300BFBD465DF8047B8A
:101A4000704700BF00300E4080B400AF044B00224E
:101A5000C3F8802100BFBD465DF8047B704700BF1E
:101A600000400E4080B400AF044B45F60E02C3F8B0
:101A7000802100BFBD465DF8047B704700400E40EA
:101A800080B483B000AF0346FB71FB79C3F102035E
:101A9000102202FA03F318460C37BD465DF8047BAA
:101AA0007047000090B585B000AF0346FB71FB792D
:101AB000002B1BD14A4BD3F890304A4A13601120B7
:101AC000FFF732F903461A46474B1A70FFF760FFDB
:101AD000464B5B681B0CDBB203F00303DAB2444BEA
:101AE0001A703F4B1B69434A136075E0FFF73EFFD6
:101AF0000346002B07D03E4B1B783C4C1846FFF7A3
:101B0000BFFF03462361364BD3F8803103F0010356
:101B1000FB60FFF7A7FF0023BB60324B1B6803F09D
:101B20000103BA681343BB602E4B1B6803F010031C
:101B3000BA681343BB602B4B1B6803F04003BA68C1
:101B40001343BB60274B1B6803F00403BA681343BD
:101B5000BB60244B1B6803F48073BA681343BB60FB
:101B60001F4ABB681366FFF713FF204B1B6803F087
:101B70001003002B18D000BF194BD3F8403103F0ED
:101B80008073002BF8D1164A1A4B1B681361164B51
:101B90001B78052B08D1184B1C68FFF711FF034673
:101BA00019462046FEF764FD0F4B1B78052B05D028
:101BB0000D4B1B7819461120FFF796F9094B1B684E
:101BC00003F00103002B02D1054B02221A66FB68C9
:101BD000002B01D0FFF738FF00BF1437BD4690BD82
:101BE00000400E40CC000020D000002000300E400D
:101BF000D1000020D40000200C00002080B582B06D
:101C000000AFFFF7B3FE034683F00103DBB2002B06
:101C10001FD1FFF7BDFE114B1B681B0A03F0030326
:101C20007B600E4B5B681B0C03F003033B607A6820
:101C30003B689A4206D9094B1B68084A43F01003D7
:101C4000136007E0054B1B68044A23F01003136080
:101C500000E000BF0837BD4680BD00BF00300E4029
:101C600080B483B000AF0C4B1B6803F01003002B53
:101C70000BD00A4B1B691B0C03F01F037B607B68B6
:101C8000082B02D1064B074A1A6000BF0C37BD462D
:101C90005DF8047B704700BF00300E4000400E40EE
:101CA0000C000020C0EA210180B400AF00BFBD4697
:101CB0005DF8047B704780B400AF00BFBD465DF89F
:101CC000047B704780B584B000AF0346FB71FB799D
:101CD000002B02D00020FFF7E5FEFFF78FFF1A4B25
:101CE0001B69194A43F004031361FFF7DDFF174B2B
:101CF0001B6803F01003002B08D0FFF7E7FDF86026
:101D000002F04EFDF868FFF7F1FD00E030BFFFF78D
:101D1000D2FFFB79002B03D00120FFF7C3FE01E0C7
:101D2000FFF79EFF0A4B1B68094A23F0004313602C
:101D3000FB7983F00103DBB2002B01D0FFF7E4FD58
:101D400000BF1037BD4680BD00ED00E000300E4002
:101D50004C310E4080B584B000AF0346FB71FB7977
:101D6000002B02D00020FFF79DFEFFF747FF234B1B
:101D7000D3F8803103F00103FB60FFF773FE1F4BC4
:101D80004FF420721A66FB68002B01D0FFF75CFE4F
:101D90001B4B1B691A4A43F004031361FFF784FFCE
:101DA000184B1B6803F01003002B08D0FFF78EFDC3
:101DB000B86002F0F5FCB868FFF798FD00E030BFAE
:101DC000FFF779FFFB79002B03D00120FFF76AFEB4
:101DD00001E0FFF745FF0C4B1B680B4A23F0004363
:101DE0001360FB7983F00103DBB2002B01D0FFF716
:101DF0008BFD00BF1037BD4680BD00BF00400E40C8
:101E000000ED00E000300E404C310E4080B584B053
:101E100000AF78600B46FB70FFF7A8FD034683F028
:101E20000103DBB2002B28D17B68002B0FD1154BAF
:101E3000D3F800311B0A03F01F030133BB60FEF728
:101E400001FA0246BB6802FB03F3FB6001E07B681A
:101E5000FB600D4B1B78002B09D0FB680B4A9342AB
:101E600005D8FB781946022000F012F806E0FB784E
:101E70001946002000F00CF800E000BF1037BD4606
:101E800080BD00BF00400E40C8000020002D310181
:101E900090B587B000AF03460A46FB711346BB718D
:101EA000FFF764FD034683F00103DBB2002B31D161
:101EB000FFF786FD03461A46FB7993422CD0184B58
:101EC000D3F800311B0A03F01F0301337B61FEF7D7
:101ED000B9F938613B697A6902FB03F3FB60FB796E
:101EE000022B03D102213869FEF7C2FB0D4CFB79AE
:101EF0001846FFF7C5FD03462361BB79002B01D0CF
:101F0000FFF746FDFB79002B07D100213869FEF76A
:101F1000AFFB02E000BF00E000BF1C37BD4690BD34
:101F200000400E4000300E4080B483B000AF7860B7
:101F30000A4B1B6823F440727B685B781B020749DD
:101F400013430B607B685B78022B01D1044B5B6A07
:101F500000BF0C37BD465DF8047B704700300E4073
:101F600000400E4080B400AF01231846BD465DF826
:101F7000047B704780B582B000AF0C4BDB6E0B4A20
:101F800043F08073D36600210948FFF7DAFC7860DC
:101F90007B68002B03D0042000F0B0FC02E000209E
:101FA00000F0ACFC00BF0837BD4680BD00300E40DD
:101FB0004C300E4080B48BB000AF01237B627B6A53
:101FC0001B053B62324BDB6C1B0A03F00F03FB610A
:101FD000304B1B881A462F4B1B8828335B08134451
:101FE00003F12801FB695A1C13469B001344B1FB03
:101FF000F3F3013BBB61BB697B6107233B613A693A
:102000007B69934228BF1346BB61BB691B06BB615A
:102010001F4BDB6C23F0EE62B9693B6A0B431C4932
:102020001343CB641C4BB3F90030002B29DB1A4B54
:10203000B3F90030FB81FA89FB8928335B0813442C
:1020400003F12802FB6901335900FB6901335B0886
:102050000B44B2FBF3F3BB60BB687B6007233B60C0
:102060003A687B68934228BF1346BB60BB681B017C
:10207000BB60074B1B6D23F070020549BB6813431F
:102080000B6500BF2C37BD465DF8047B704700BF71
:1020900000300E40C0000020C400002080B483B097
:1020A00000AF78600B467B807B689AB2054B1A8044
:1020B000054A7B88138000BF0C37BD465DF8047B62
:1020C000704700BFC0000020C400002080B483B06F
:1020D00000AF0346FB71FB79002B02D0012B04D02B
:1020E00007E0074B074A9A6503E0054B064A9A65E5
:1020F00000BF00BF0C37BD465DF8047B704700BFD2
:1021000000300E4077402057372110B780B485B09B
:1021100000AF0346FB710B46BB7113467B712D4B21
:10212000D3F88031FB60BB79032B1DD801A252F894
:1021300023F000BF452100004D2100005721000081
:1021400061210000FB68DBB2FB600FE0FB681B0A4B
:10215000DBB2FB600AE0FB681B0CDBB2FB6005E056
:10216000FB681B0EFB6001E000232CE07B79002B59
:1021700011D1FB681B03FB60FB6823F47043002B49
:1021800001D000231FE0144BDB6E23F47042124990
:10219000FB681343CB667B79012B13D1FB681B03D0
:1021A000FB60FB6823F47043002B01D000230AE09E
:1021B000094BD3F8EC3023F470420749FB68134312
:1021C000C1F8EC30012318461437BD465DF8047B96
:1021D000704700BFB081E00F00300E4080B489B07E
:1021E00000AFF860B96011461A460B46FB71134602
:1021F000BB710023FB610023BB61BB791B02FA7931
:10220000002A01D0012200E0002213437B617B6998
:1022100040F2011293422AD0B3F5817F07D2012BFD
:1022200019D0012B47D3B3F5807F50D073E040F233
:102230000122934227D040F20122934203D8B3F502
:10224000007F50D067E0B3F5407F58D040F20132B4
:10225000934224D05FE0364BD3F87431FB61FB69C5
:102260001B0ADBB2BB61FB69DBB2FB6153E0304BA5
:10227000D3F87431FB61FB691B0EBB61FB691B0C5E
:10228000DBB2FB6147E02A4BD3F87831FB61FB6995
:102290001B0ADBB2BB61FB69DBB2FB613BE0244B99
:1022A000D3F87831FB61FB691B0EBB61FB691B0C2A
:1022B000DBB2FB612FE01E4BD3F86C31FB61FB6995
:1022C0001B0ADBB2BB61FB69DBB2FB6123E0184B8D
:1022D000D3F86C31FB61FB691B0EBB61FB691B0C06
:1022E000DBB2FB6117E0124BD3F87031FB61FB6985
:1022F0001B0ADBB2BB61FB69DBB2FB610BE00C4B81
:10230000D3F87031FB61FB691B0EBB61FB691B0CD1
:10231000DBB2FB6100BFFB68FA691A60BB68BA698F
:102320001A6000BF2437BD465DF8047B704700BFCC
:10233000B081E00F80B584B000AF0346FB713E4B27
:102340005B6B012B0CBF01230023FB73FFF76EFBBC
:1023500000BF394B9B6F03F00103002BF9D1364BC3
:102360001B6C03F00303BB60BB68002B04D001228D
:102370000D213248FFF7CEFABB68DBB2FA799A42F8
:1023800008D1FB79002B53D100220D212B48FFF7F8
:10239000C1FA4DE0BB68032B02D0BB68002B20D1F3
:1023A000FB79022B02D0FB79012B1AD14FF40020CC
:1023B000FFF714FB00BF204B9B6F03F00103002BC2
:1023C000F9D11D4B1B6C23F003031B4A43F001039F
:1023D000136400BFFFF712FB034603F40023002B36
:1023E000F8D000BF144B9B6F03F00103002BF9D111
:1023F000114B1B6C23F00302FB790F4913430B6451
:1024000000BF0D4B9B6F03F00103002BF9D1FB794B
:10241000002B14BF01230023DBB21A460D2107480D
:10242000FFF778FAFB7B002B03D0FFF7F3FA00E00D
:1024300000BF1037BD4680BD00300E4054300E4006
:1024400080B584B000AF7860484B02229A63474B56
:102450009B6B03F00F03022B01D0002381E0FFF7F9
:1024600081FD7B685B78012B02D07B685B78022B57
:102470007B68DB884A2B02D80023FB6015E07B6871
:10248000DB88B3F5FA7F03D24FF08053FB600CE09A
:102490007B68DB8840F6C312934203D84FF00053A9
:1024A000FB6002E04FF04053FB60304BDB6C23F0ED
:1024B000405323F001037A68B2F90C20002A01DBB3
:1024C000012100E00021FA680A4328491343CB6444
:1024D000264BD3F8EC30254A43F44073C2F8EC3075
:1024E0007B689A88224B1A80FFF744FD7B681B8922
:1024F0001A467B68B3F90C3019461046FFF7CEFD3B
:102500007B689B88184600F08DF97B689B7B18469A
:10251000FFF7DCFD7B685B8801220121184600F093
:102520002BF8034683F00103DBB2002B01D000231C
:1025300017E00E4BDB6B0D4A43F48063D3637B687B
:102540005B781846FFF7F6FE7B689B7A202B01D15B
:10255000012300E000231A4605210648FFF7DAF9B7
:10256000012318461037BD4680BD00BF00300E4025
:10257000C20000203C300E4090B595B000AF7860AE
:102580000B46FB701346BB700023FB6400237B6487
:1025900007F1240300221A605A609A6007F11803B9
:1025A00000221A605A609A6007F10C0300221A6038
:1025B0005A609A6007F1080300210A461A800A4609
:1025C0009A707B68B3F5E16F06D37B6840F6B8324A
:1025D000934201D8012300E0002387F8433097F8A5
:1025E000433003F0010387F8433097F8433083F01A
:1025F0000103DBB2002B01D000230AE17B68B3F5B5
:10260000E16F8CBF0123002387F8423097F84230F6
:10261000002B0AD04FF4E163FB6440F6B8337B64CF
:102620007A6CFB6CD31ABB6409E04FF49663FB64CD
:102630004FF4E1637B647A6CFB6CD31ABB6497F84C
:102640004230002B0BD0754BD3F868313B623B6AAC
:102650001B0E7B613B6A1B0CDBB23B620AE06F4BDB
:10266000D3F868313B623B6A1B0ADBB27B613B6A91
:10267000DBB23B626A4BDB6C1B0FDBB203F0030384
:10268000DBB23B723B7A97F8422007F10C0107F16D
:102690001800FFF7A3FD624BD3F8EC301B0ADBB246
:1026A00003F00303DBB27B727C7A97F8422007F1D8
:1026B0000C03191D07F11803181D2346FFF78EFDA3
:1026C0007A68FB6CD31A79693A6A8A1A02FB03F2B8
:1026D000BB6CB2FBF3F3FB62FA6A3B6A1344FB6226
:1026E0007A68FB6CD31AF968BA698A1A02FB03F29A
:1026F000BB6CB2FBF3F37B627A6ABB6913447B6207
:102700007A68FB6CD31A3969FA698A1A02FB03F2F8
:10271000BB6CB2FBF3F3BB62BA6AFB691344BB62E6
:10272000FA6A7B699A4213D8FA6A3B6A9A420FD3D3
:10273000BA6A3B699A420BD8BA6AFB699A4207D3D4
:102740007A6AFB689A4203D87A6ABB699A4201D2D4
:1027500000235EE0BB78002B12D0314BDB6D23F4FD
:10276000FE4323F00203FA6A1202134397F8422051
:10277000002A01D0022200E0002229491343CB6540
:10278000FB78002B44D0397A97F842300022184663
:10279000FFF7BCFC034683F00103DBB2002B01D042
:1027A000002336E0797A97F8423001221846FFF785
:1027B000ADFC034683F00103DBB2002B01D0002304
:1027C00027E07B6AFB63BB6ABB63BA6BFB6B93421C
:1027D00038BF13467B627B6A7B63E7233B633A6BBC
:1027E0007B6B934228BF13467B620D4B5B6E23F4D9
:1027F000FF7323F001037A6A5200134397F84220D3
:10280000002A01D0012200E00022054913434B6653
:10281000012318465437BD4690BD00BFB081E00F7C
:1028200000300E4080B584B000AF78600023FB60BC
:10283000314B1B6F03F00703BB602F4BDB6C03F0C6
:102840000103002B14D0BB68012B11D97B68132B1B
:1028500002D80423FB6037E07B68132B05D97B6823
:10286000272B02D80823FB602EE01023FB602BE00F
:10287000214BDB6C03F00103002B14D1BB68012B4F
:1028800011D87B68092B02D80423FB601CE07B680D
:10289000092B05D97B68132B02D80823FB6013E0B2
:1028A0001023FB6010E0144BDB6C03F00103002BE2
:1028B0000AD0BB68012B07D87B68272B02D80823D6
:1028C000FB6001E01023FB60FB68013BFB60FB68E1
:1028D0001A02FB681B031343FB60074BDB6C23F4FA
:1028E0007F420549FB681343CB64FFF763FB00BFDE
:1028F0001037BD4680BD00BF00300E4080B584B0AB
:1029000000AF0346FB7100210E48FFF71AF8F8608C
:10291000FB68002B02D1FB79012B01D9FB68002B4E
:1029200000BF094B1B6F23F00702FB7906491343D5
:102930000B67064B1B881846FFF774FF00BF103764
:10294000BD4680BD4C300E4000300E40C20000201D
:1029500080B485B000AF786039607B6803F1C063F4
:10296000FB60FB683A681A6000BF1437BD465DF82B
:10297000047B704780B485B000AF786039607B68B5
:1029800003F18063FB60FB683A681A6000BF14378C
:10299000BD465DF8047B704780B584B000AFF86039
:1029A000B9607A60B968F868FFF7E4FF7968F86899
:1029B000FFF7CEFF00BF1037BD4680BD80B582B0A7
:1029C00000AF03463960FB71FB79002B1CD0FB790B
:1029D000012B19D0FB79022B16D0FB79032B13D0D6
:1029E000FB79042B10D0FB79052B0DD0FB79062B3E
:1029F0000AD0FB79072B07D0FB79082B04D0FB7991
:102A0000092B01D0FB790A2BFA7913465B0013449A
:102A10001B010C3303F1804303F5204301213A6885
:102A200001FA02F211461846FFF7A4FF00BF08376B
:102A3000BD4680BD80B582B000AF03463960FB71F2
:102A4000FB79002B1CD0FB79012B19D0FB79022BD1
:102A500016D0FB79032B13D0FB79042B10D0FB7914
:102A6000052B0DD0FB79062B0AD0FB79072B07D05D
:102A7000FB79082B04D0FB79092B01D0FB790A2BB9
:102A8000FA7913465B0013441B010C3303F18043B6
:102A900003F5204301213A6801FA02F21146184673
:102AA000FFF756FF00BF0837BD4680BD80B582B036
:102AB00000AF03463960FB71FB79002B1DD0FB7919
:102AC000012B1AD0FB79022B17D0FB79032B14D0E2
:102AD000FB79042B16D0FB79052B0ED0FB79062B46
:102AE00010D0FB79072B0DD0FB79082B05D0FB7993
:102AF000092B02D0FB790A2B04D13B6823F0011388
:102B0000002B00BFFA7913465B0013441B0103F14D
:102B1000804303F520433A684FF001111846FFF750
:102B20003BFF00BF0837BD4680BD000080B584B0C4
:102B300000AFB9607B600346FB731346BB73FB7B3E
:102B4000002B1CD0FB7B012B19D0FB7B022B16D05A
:102B5000FB7B032B13D0FB7B042B10D0FB7B052BC3
:102B60000DD0FB7B062B0AD0FB7B072B07D0FB7B12
:102B7000082B04D0FB7B092B01D0FB7B0A2BBB7BF2
:102B8000002B0DD07B68002B05D0FB7BB968184665
:102B9000FFF750FF04E0FB7BB9681846FFF70EFF14
:102BA000BB68072B20D82E49FA7B13465B001344E1
:102BB0001B010B4404331A68BB689B000F2101FA08
:102BC00003F3DB431340B97BBA68920001FA02F2C7
:102BD00011462348FA7B194313465B0013441B013B
:102BE00003440433196025E01D49FA7B13465B005A
:102BF00013441B010B4408331A68BB6803F180437C
:102C0000083B9B000F2101FA03F3DB4302EA0301B7
:102C1000BA7BBB6803F18043083B9B0002FA03F3D5
:102C20000F48FA7B194313465B0013441B0103440E
:102C300008331960BB7B002B0DD17B68002B05D0BE
:102C4000FB7BB9681846FFF7F5FE04E0FB7BB9682B
:102C50001846FFF7B3FE00BF1037BD4680BD00BF6A
:102C600000A0004080B483B000AF786039607B681A
:102C70003A68DA6300BF0C37BD465DF8047B7047E5
:102C800080B487B000AFF860B9607A60FB6803F188
:102C90000473DA00BB6813449B007B617B697A682C
:102CA0001A6000BF1C37BD465DF8047B704780B4D6
:102CB00085B000AF786039607B6803F1C063FB606A
:102CC000FB683A681A6000BF1437BD465DF8047BA4
:102CD000704780B485B000AF786039607B6803F1DD
:102CE0008063FB60FB683A681A6000BF1437BD461A
:102CF0005DF8047B704780B584B000AFF860B960C0
:102D00007A60B968F868FFF7E4FF7968F868FFF758
:102D1000CEFF00BF1037BD4680BD000080B588B033
:102D200000AFF860B9607A60FB707B68002B77D0E9
:102D3000FB7803F00303FB70FB681B6823F440720D
:102D4000FB681A60F868FB781B021A464FF4407162
:102D5000FFF7D1FFBB68002B10D1FB68334A9342C9
:102D600004D13348FDF7FCFDB86007E0FB68314A49
:102D7000934203D13048FDF7F3FDB8604FF0FF33C5
:102D8000BB61FB681B6803F00203002B10D0FB78CB
:102D9000012B07D0022B08D0002B00D019E0274BC5
:102DA000BB6116E0264BBB6113E0264BBB6110E014
:102DB000FB78012B07D0022B08D0002B00D008E0B5
:102DC0001E4BBB6105E0204BBB6102E01F4BBB61AA
:102DD00000BFFB781E4AD35C7B617B697A6802FB8B
:102DE00003F33B613B69002B1CD07B68DB00BA68B6
:102DF000D21A3B6913445A1E3B69B2FBF3F3013B01
:102E0000FB61FB681B6803F00203002B04D0FB6925
:102E1000002B01D10123FB61FA69FB681A6102E012
:102E200000BF00E000BF2037BD4680BD00C00040AD
:102E30000082040000C400400092040080841E0050
:102E4000404B4C00809FD50040548900002D31013B
:102E5000D047000080B582B000AF78600B46FB70B1
:102E60007B68084A934202D07B68074A934200BFBE
:102E70007B68FA7800211846FFF702FF00BF083789
:102E8000BD4680BD00C0004000C4004080B582B097
:102E900000AF786039607B68154A934202D07B6846
:102EA000144A934200BF7B6800221A641249786872
:102EB000FFF7D8FE78683B685B7883F00103DBB2EC
:102EC0001A460121FFF7DCFE3B6859683B689A68A7
:102ED0003B681B7B7868FFF721FF3B681B7819462E
:102EE0007868FFF7B7FF00BF0837BD4680BD00BF59
:102EF00000C0004000C40040FFFF070080B483B062
:102F000000AF7860396000BF7B685A6B3B68134044
:102F1000002BF9D100BF0C37BD465DF8047B70472C
:102F200080B582B000AF78600B46FB7002217868F4
:102F3000FFF7E4FFFB78002B03D07B6801225A6087
:102F400002E07B6802225A6000BF0837BD4680BDA0
:102F500080B584B000AF786039600023FB603B68C7
:102F60001B7883F00103DBB2002B0CD07B689B68DD
:102F700003F00103002B06D002217868FFF7BEFFA3
:102F80007B6802225A603B685B78002B03D0FB68A9
:102F900043F48053FB603B689B78002B03D13B6874
:102FA000DB68002B0BD0FB6843F40073FB603B68CD
:102FB000DB68002B03D03B68DA687B681A613B68EA
:102FC000DB78002B03D0FB6843F48073FB603B6825
:102FD0001B79002B03D0FB6843F04003FB603B6888
:102FE0005B79002B03D0FB6843F08003FB603B68F8
:102FF0009B799B001A46FB681343FB603B68DB79B7
:103000001B011A46FB681343FB603B681B7A1A4698
:10301000FB681343FB607B68FA681A603B681B78A7
:10302000002B0CD07B689B6803F00103002B06D1BA
:1030300002217868FFF762FF7B6801225A6000BFB7
:103040001037BD4680BD000080B588B000AF0123B9
:103050003B7101237B710023BB600C4BFB600123A0
:103060003B7401237B740123BB744FF470637B6159
:103070000F23BB610823FB613B1D1946044800F088
:1030800003FA00BF2037BD4680BD00BFDDFB050051
:1030900000C0004080B584B002AF78607B680093C8
:1030A000044BF5224021044800F0C8FA00BF08375D
:1030B000BD4680BDD800002000C0004090B583B060
:1030C00000AF4FF000037B601C4B1B68184601F0FB
:1030D0003DF84FF000021A4B01F0B2F803460C46DF
:1030E000184621464FF00002164B01F0D3F9034673
:1030F0000C46184621464FF00002134B00F0E8FE44
:1031000003460C461846214601F0ACFA03467B60A4
:10311000D7ED017AB2EE047A67EE877AFDEEE77AB0
:10312000B8EEE77AF2EE046AC7EE267AC7ED017AC6
:103130007B6818460C37BD4690BD00BFD800002004
:1031400000405F400000F0400000184080B485B0AF
:1031500000AF786039607B6803F1C063FB60FB6897
:103160003A681A6000BF1437BD465DF8047B7047AB
:1031700080B485B000AF786039607B6803F180630C
:10318000FB60FB683A681A6000BF1437BD465DF803
:10319000047B704780B582B000AF03463960FB7195
:1031A000FB79002B1CD0FB79012B19D0FB79022B6A
:1031B00016D0FB79032B13D0FB79042B10D0FB79AD
:1031C000052B0DD0FB79062B0AD0FB79072B07D0F6
:1031D000FB79082B04D0FB79092B01D0FB790A2B52
:1031E000FA7913465B0013441B010C3303F180434F
:1031F00003F5204301213A6801FA02F2114618460C
:10320000FFF7B6FF00BF0837BD4680BD80B582B06E
:1032100000AF03463960FB71FB79002B1CD0FB79B2
:10322000012B19D0FB79022B16D0FB79032B13D07D
:10323000FB79042B10D0FB79052B0DD0FB79062BE5
:103240000AD0FB79072B07D0FB79082B04D0FB7938
:10325000092B01D0FB790A2BFA7913465B00134442
:103260001B010C3303F1804303F5204301213A682D
:1032700001FA02F211461846FFF768FF00BF08374F
:10328000BD4680BD80B500AF00F08AF800F0A8F818
:1032900000F086FC00F0E0FCFFF7D6FE4FF4E053B0
:1032A0001C224FF07A51044800F00AF8012103482B
:1032B00000F016FC00BF80BD6666E63F006004407B
:1032C00080B590B000AFF860B9607A603B600023D1
:1032D0003B7400237B747B687B613B68BB6100238C
:1032E0003B7700237B77FB683B62BB687B620123F3
:1032F00087F83830002387F82830002387F83030EB
:103300000123FB6202237B630423FB6307F11003A9
:103310001946054800F020FB0121034800F0E0FBBE
:1033200000BF4037BD4680BD0060044080B500AF9F
:103330000820FFF7AFFE042000F05AFC00BF80BD5C
:1033400080B500AF012000F053FC00BF80BD80B508
:1033500000AF022000F04CFC00BF80BD80B582B001
:1033600000AF4FF000037B60FFF7A8FE7860D7ED59
:10337000017AB3EE0E7AF4EEC77AF1EE10FA04DBBE
:1033800005210520FFF742FF03E005210520FFF797
:1033900001FF082000F02CFC00BF0837BD4680BDAF
:1033A00080B500AF01210B48FDF774FA002200211F
:1033B0000120FEF78BF8002200210020FEF786F89E
:1033C0000A210548FDF790FD01210448FDF762FA46
:1033D00000BF80BD4041050002001E0030253E00B8
:1033E00080B500AF01211848FDF754FA00210520EF
:1033F000FFF75CFB0023042204210520FFF796FB66
:1034000000210520FFF752FB00230422052105209F
:10341000FFF78CFB4FF001110120FFF747FB012361
:1034200004220A210120FFF781FB012308220B213E
:103430000220FFF77BFB012308220A210220FFF76D
:1034400075FB00BF80BD00BF00350A0080B483B0AB
:1034500000AF0346FB7197F90730002B0BDBFB79BC
:1034600003F01F02074997F907305B09012000FAB2
:1034700002F241F8232000BF0C37BD465DF8047B03
:10348000704700BF00E100E080B586B000AF786013
:1034900039607B68404A934204D101213F48FDF7DF
:1034A000F9F907E07B683E4A934203D101213D4888
:1034B000FDF7F0F97B685B6B03F00103002B08D18B
:1034C0007B6801229A637B685B6B7B680122DA630D
:1034D00004E07B680122DA637B685B6B3B685B78A6
:1034E0007B7201233B723B685B68FB603B689B68B7
:1034F0003B613B681B7B3B7507F108031946786805
:10350000FFF7C4FC3B681A693B685B691A437B6838
:103510009A643B689B7B1A463B685B7B5B001A4363
:103520007B685A64786800F041F87B685A6B7B6866
:10353000DA637B6800221A647B681B6C43F04002EC
:103540007B681A647B681B6C43F080027B681A649A
:103550007B681B6C43F020027B681A647B681B6CE1
:1035600043F480727B681A643B689B690E4A13605F
:103570007B68094A934203D11120FFF767FF06E0F9
:103580007B68074A934202D12A20FFF75FFF00BF02
:103590001837BD4680BD00BF00C000400082040057
:1035A00000C4004000920400F400002080B485B004
:1035B00000AF78607B689B6803F00103002B09D0A3
:1035C0007B6820225A6000BF7B689B6803F0010380
:1035D000002BF9D17B681B6CFB607B6800221A64AE
:1035E0007B685A6B7B68DB6B1A437B68DA637B68AA
:1035F0005B6843F040027B685A607B685B6843F01D
:1036000003027B685A6000BF7B685B6B03F48073C6
:10361000002BF9D07B685A6B7B68DB6B1A437B68A5
:10362000DA637B68FA681A647B6820225A6000BFFC
:103630001437BD465DF8047B7047000080B584B048
:1036400000AFF860B9607A603B60FB689B6802205D
:1036500000F066FB0E4AFB68D3600D4ABB685360FE
:103660000B4A7B6893600A4A3B681361084ABB694E
:103670005361074B00221A70FB6801225A60BB6835
:103680005A00FB68DA6200BF1037BD4680BD00BF3C
:10369000DC00002080B582B000AF164B5A6B154B92
:1036A0001B6C13407B60134A7B68D3637B6803F019
:1036B0004003002B02D0104800F054F87B6803F060
:1036C0008003002B02D00C4800F088F87B6803F0E0
:1036D0002003002B02D0084800F0B0F87B6803F408
:1036E0008073002B02D0044800F0ECF800BF0837CC
:1036F000BD4680BD00C00040DC00002080B582B027
:1037000000AF164B5A6B154B1B6C13407B60134A72
:103710007B68D3637B6803F04003002B02D0104822
:1037200000F020F87B6803F08003002B02D00C48E7
:1037300000F054F87B6803F02003002B02D0084807
:1037400000F07CF87B6803F48073002B02D00448FF
:1037500000F0B8F800BF0837BD4680BD00C4004087
:10376000DC00002080B483B000AF78607B681B78F9
:10377000052B2CD801A252F823F000BF953700008A
:10378000A7370000C7370000CF370000CF37000051
:10379000CF3700007B6801221A707B68DB687A688B
:1037A0009268DA6214E07B6802221A707B68DB6838
:1037B00001225A607B685B685A007B68DB6842F0D4
:1037C0000102DA6204E07B6803221A7000E000BFA5
:1037D00000BF0C37BD465DF8047B704780B483B0F2
:1037E00000AF78607B681B78052B1FD801A252F8C8
:1037F00023F000BF2D3800002D3800000D380000E8
:103800002D3800002D3800002D3800007B68022282
:103810001A707B68DB6801225A607B685B685A001B
:103820007B68DB6842F00102DA6200E000BF00BFA3
:103830000C37BD465DF8047B704700BF80B483B091
:1038400000AF78607B681B78052B34D801A252F852
:1038500023F000BFB7380000B7380000B7380000C9
:103860006D3800008B380000B73800007B680422F8
:103870001A707B68DB68DA697B681B6912021A6060
:103880007B68DB6804225A6016E07B6805221A70A8
:103890007B68DB68D9697B681B691A687B681B6970
:1038A0000A431A607B68DB6808225A607B68DB6821
:1038B00002225A6000E000BF00BF0C37BD465DF831
:1038C000047B704780B582B000AF78607B681B785E
:1038D000052B1BD801A252F823F000BF0D390000C0
:1038E0000D3900000D3900000D3900000D390000C0
:1038F000F5380000022000F0F3F97B6800221A700E
:10390000054B1B68184600F05DF900E000BF00BFE2
:103910000837BD4680BD00BFF400002080B483B0EE
:1039200000AF0346FB7197F90730002B0BDBFB79E7
:1039300003F01F02074997F907305B09012000FADD
:1039400002F241F8232000BF0C37BD465DF8047B2E
:10395000704700BF00E100E080B588B000AF78603C
:1039600039607B68584A934203D101215748FCF7DC
:1039700091FF0021786800F0B3F87B6807229A6213
:103980003B681B7E002B02D07B680122DA623B6819
:1039900093F82030002B02D07B680222DA623B6869
:1039A00093F82830002B02D07B680422DA623B684F
:1039B000DB69474A13603B685B6A464A13603B68B1
:1039C000DB6A454A13607B6801225A6000BF7B684E
:1039D0005B6B002BFBD17B689B687B6802225A6083
:1039E00000BF7B685B6B002BFBD17B680022DA6039
:1039F0000023FB720123BB723B681B787B723B6820
:103A00005B783B7200233B7300237B7300233B7482
:103A10000323BB730323FB7307F10803194678687C
:103A2000FFF796FA00BF7B685B6B002BFBD13B680E
:103A3000D3ED047A9FED297A67EE877AFCEEE77A78
:103A400017EE903AFB613B68D3ED057A9FED237A40
:103A500067EE877AFCEEE77A17EE903ABB617B68F7
:103A6000FA691A617B68BA695A617B6801229A61B6
:103A70007B680122DA613B685A683B689B681A439D
:103A80007B685A643B681B7B1A463B685B7B5B0028
:103A90001A437B681A643B681B7E002B09D13B6884
:103AA00093F82030002B04D13B6893F82830002B8A
:103AB00002D01B20FFF732FF042000F031F900BFD5
:103AC0002037BD4680BD00BF006004408006160060
:103AD000F8000020FC0000200001002000007A44D3
:103AE00080B582B000AF78600B46FB70FB7883F046
:103AF0000103DBB2002B02D0042000F0F1F8FB78C8
:103B000019467868FFF70CFAFB7883F00103DBB203
:103B1000002B04D000BF7B685B6B002BFBD100BF88
:103B20000837BD4680BD000080B582B000AF184B9D
:103B30001A6A174BDB6A13407B60154A7B689362F5
:103B40007B6803F00103002B06D0124B1B6818465C
:103B500000F038F80E4B1B6A7B6803F00203002B61
:103B600006D00D4B1B68184600F02CF8084B1B6A5A
:103B70007B6803F00403002B06D0084B1B68184633
:103B800000F020F8024B1B6A00BF0837BD4680BD1D
:103B900000600440F8000020FC000020000100202C
:103BA00080B582B000AFFDF791FE7860044B002233
:103BB0001A607868FDF79AFE00BF0837BD4680BDE1
:103BC0000401002080B584B000AF7860FDF77EFE70
:103BD000F860064B1A687B681343044A1360F86860
:103BE000FDF784FE00BF1037BD4680BD04010020F4
:103BF00080B584B000AF7860FDF768FEF8607B6840
:103C0000DA43064B1B681340044A1360F868FDF75B
:103C10006DFE00BF1037BD4680BD00BF040100200F
:103C200080B400AF034B1B681846BD465DF8047BAB
:103C3000704700BF0401002080B400AF054B1B6932
:103C4000044A23F00403136130BF00BFBD465DF892
:103C5000047B704700ED00E080B483B000AF002328
:103C60007B6007E0084A7B68002142F823107B68EC
:103C700001337B607B68042BF4D900BF0C37BD4651
:103C80005DF8047B704700BF0801002080B582B05A
:103C900000AFFDF71BFE7860104B1B68002B15DC96
:103CA0000E4B5B68002B11DC0C4B9B68002B02DD7C
:103CB000FFF7C2FF0AE0094BDB68002B03DD0120A0
:103CC000FEF700F802E00120FEF744F87868FDF7FF
:103CD0000DFE00BF0837BD4680BD00BF08010020B3
:103CE00080B584B000AF7860FDF7F0FDF8600B4A56
:103CF0007B6852F82330002B08DD084A7B6852F8B5
:103D000023305A1E05497B6841F82320F868FDF7E7
:103D1000EDFD00BF1037BD4680BD00BF080100208B
:103D200080B584B000AF7860FDF7D0FDF860084A38
:103D30007B6852F823305A1C05497B6841F82320E0
:103D4000F868FDF7D3FD00BF1037BD4680BD00BF4A
:103D50000801002080B400AF044BDB6C1B0EDBB20B
:103D60001846BD465DF8047B704700BFB081E00F88
:103D700080B582B000AF194B01225A64FFF7EAFF09
:103D80000346FB71FB79002B0CD1154B4AF6E85228
:103D90001A60144B1B68134A43F004031360104B62
:103DA00000221A60FB79012B05D80F4B1B680E4AC5
:103DB00043F4005313600D4B1B6A23F444130B4A66
:103DC00043F4881313620A4B1B68094A43F4F8430F
:103DD000136000BF0837BD4680BD00BF00000E4025
:103DE00090310E4098310E4064310E4000400E403C
:103DF000A4310E40B0B58AB000AF304B07F11804C3
:103E00000FCB84E80F002E4B3C1D1D460FCD0FC479
:103E10002B682380FFF7ACFF00233B7000237B70EF
:103E200007F118031846FEF70BFB02237B703B4695
:103E30001846FEF779F83B1D1846FDF7D5FA2148DC
:103E4000FDF742FA012201210320FDF73FFB052186
:103E50001120FDF749F8002200210220FDF736FB72
:103E6000FFF710FAFFF7DCFE0346002B01D1FFF746
:103E70000DFFFFF7D5FE034603F00403002B01D02E
:103E8000FFF754FAFFF7CCFE034603F00103002BC3
:103E900001D0FFF755FAFFF7C3FE034603F0020314
:103EA000002B01D0FFF753FAFFF7BAFE034603F0E9
:103EB0000803002BD6D0FFF751FAD3E7D447000010
:103EC000E4470000C0EA210181F0004102E000BFA8
:103ED00083F0004330B54FEA41044FEA430594EACA
:103EE000050F08BF90EA020F1FBF54EA000C55EA05
:103EF000020C7FEA645C7FEA655C00F0E2804FEAD6
:103F00005454D4EB5555B8BF6D420CDD2C4480EAB7
:103F1000020281EA030382EA000083EA010180EAE7
:103F2000020281EA0303362D88BF30BD11F0004F35
:103F30004FEA01314FF4801C4CEA113102D040426B
:103F400061EB410113F0004F4FEA03334CEA1333A6
:103F500002D0524263EB430394EA050F00F0A780BE
:103F6000A4F10104D5F1200E0DDB02FA0EFC22FAB9
:103F700005F2801841F1000103FA0EF2801843FAAD
:103F800005F359410EE0A5F120050EF1200E012A9E
:103F900003FA0EFC28BF4CF0020C43FA05F3C018DC
:103FA00051EBE37101F0004507D54FF0000EDCF155
:103FB000000C7EEB00006EEB0101B1F5801F1BD3FE
:103FC000B1F5001F0CD349085FEA30004FEA3C0C02
:103FD00004F101044FEA445212F5800F80F09A80F8
:103FE000BCF1004F08BF5FEA500C50F1000041EBFC
:103FF000045141EA050130BD5FEA4C0C404141EB00
:10400000010111F4801FA4F10104E9D191F0000F26
:1040100004BF01460020B1FA81F308BF2033A3F1A9
:104020000B03B3F120020CDA0C3208DD02F1140CA0
:10403000C2F10C0201FA0CF021FA02F10CE002F1DB
:104040001402D8BFC2F1200C01FA02F120FA0CFCD4
:10405000DCBF41EA0C019040E41AA2BF01EB04511D
:10406000294330BD6FEA04041F3C1CDA0C340EDC1B
:1040700004F11404C4F1200220FA04F001FA02F35E
:1040800040EA030021FA04F345EA030130BDC4F11C
:104090000C04C4F1200220FA02F001FA04F340EA11
:1040A0000300294630BD21FA04F0294630BD94F0C2
:1040B000000F83F4801306BF81F480110134013DA9
:1040C0004EE77FEA645C18BF7FEA655C29D094EA1A
:1040D000050F08BF90EA020F05D054EA000C04BF98
:1040E0001946104630BD91EA030F1EBF0021002083
:1040F00030BD5FEA545C05D14000494128BF41F022
:10410000004130BD14F580043CBF01F5801130BD85
:1041100001F0004545F0FE4141F470014FF0000010
:1041200030BD7FEA645C1ABF194610467FEA655CC1
:104130001CBF0B46024650EA013406BF52EA033563
:1041400091EA030F41F4002130BD00BF90F0000F51
:1041500004BF0021704730B54FF4806404F132048D
:104160004FF000054FF0000150E700BF90F0000F46
:1041700004BF0021704730B54FF4806404F132046D
:1041800010F0004548BF40424FF000013EE700BF3D
:1041900042004FEAE2014FEA31014FEA02701FBFCD
:1041A00012F07F4393F07F4F81F06051704732F0FF
:1041B0007F4208BF704793F07F4F04BF41F4002156
:1041C000704730B54FF4607401F0004521F00041B4
:1041D0001CE700BF50EA010208BF704730B54FF03E
:1041E00000050AE050EA010208BF704730B511F03F
:1041F000004502D5404261EB41014FF4806404F177
:1042000032045FEA915C3FF4D8AE4FF003025FEAFC
:10421000DC0C18BF03325FEADC0C18BF033202EB80
:10422000DC02C2F1200300FA03FC20FA02F001FADA
:1042300003FE40EA0E0021FA02F11444BDE600BF7D
:1042400070B54FF0FF0C4CF4E06C1CEA11541DBF2C
:104250001CEA135594EA0C0F95EA0C0F00F0DEF8F7
:104260002C4481EA030621EA4C5123EA4C5350EADC
:10427000013518BF52EA033541F4801143F480132D
:1042800038D0A0FB02CE4FF00005E1FB02E506F0BE
:104290000042E0FB03E54FF00006E1FB03569CF013
:1042A000000F18BF4EF0010EA4F1FF04B6F5007F19
:1042B00064F5407404D25FEA4E0E6D4146EB06068B
:1042C00042EAC62141EA55514FEAC52040EA5E5014
:1042D0004FEACE2EB4F1FD0C88BFBCF5E06F1ED8BE
:1042E000BEF1004F08BF5FEA500E50F1000041EBF5
:1042F000045170BD06F0004646EA010140EA0200A2
:1043000081EA0301B4EB5C04C2BFD4EB0C0541EAC3
:10431000045170BD41F480114FF0000E013C00F3D8
:10432000AB8014F1360FDEBF002001F0004170BDFC
:10433000C4F10004203C35DA0C341BDC04F1140415
:10434000C4F1200500FA05F320FA04F001FA05F2A1
:1043500040EA020001F0004221F0004110EBD3706E
:1043600021FA04F642EB06015EEA430E08BF20EA9A
:10437000D37070BDC4F10C04C4F1200500FA04F33D
:1043800020FA05F001FA04F240EA020001F00041CF
:1043900010EBD37041F100015EEA430E08BF20EA42
:1043A000D37070BDC4F1200500FA05F24EEA020E8A
:1043B00020FA04F301FA05F243EA020321FA04F0B9
:1043C00001F0004121FA04F220EA020000EBD37070
:1043D0005EEA430E08BF20EAD37070BD94F0000F70
:1043E0000FD101F00046400041EB010111F4801FA4
:1043F00008BF013CF7D041EA060195F0000F18BF55
:10440000704703F00046520043EB030313F4801F90
:1044100008BF013DF7D043EA0603704794EA0C0F4A
:104420000CEA135518BF95EA0C0F0CD050EA410660
:1044300018BF52EA4306D1D181EA030101F00041DD
:104440004FF0000070BD50EA410606BF1046194605
:1044500052EA430619D094EA0C0F02D150EA013611
:1044600013D195EA0C0F05D152EA03361CBF104652
:1044700019460AD181EA030101F0004141F0FE41F1
:1044800041F470014FF0000070BD41F0FE4141F475
:10449000780170BD70B54FF0FF0C4CF4E06C1CEA75
:1044A00011541DBF1CEA135594EA0C0F95EA0C0F2A
:1044B00000F0A7F8A4EB050481EA030E52EA0335E5
:1044C0004FEA013100F088804FEA03334FF0805506
:1044D00045EA131343EA12634FEA022245EA111533
:1044E00045EA10654FEA00260EF000419D4208BFE4
:1044F000964244F1FD0404F5407402D25B084FEA91
:104500003202B61A65EB03055B084FEA32024FF43C
:1045100080104FF4002CB6EB020E75EB030E22BF99
:10452000B61A754640EA0C005B084FEA3202B6EB59
:10453000020E75EB030E22BFB61A754640EA5C0008
:104540005B084FEA3202B6EB020E75EB030E22BF98
:10455000B61A754640EA9C005B084FEA3202B6EB99
:10456000020E75EB030E22BFB61A754640EADC0058
:1045700055EA060E18D04FEA051545EA16754FEABA
:1045800006164FEAC30343EA52734FEAC2025FEAD8
:104590001C1CC0D111F4801F0BD141EA00014FF067
:1045A00000004FF0004CB6E711F4801F04BF014338
:1045B0000020B4F1FD0C88BFBCF5E06F3FF6AFAE54
:1045C000B5EB030C04BFB6EB020C5FEA500C50F1E4
:1045D000000041EB045170BD0EF0004E4EEA113167
:1045E00014EB5C04C2BFD4EB0C0541EA045170BD6E
:1045F00041F480114FF0000E013C90E645EA060EB2
:104600008DE60CEA135594EA0C0F08BF95EA0C0FDF
:104610003FF43BAF94EA0C0F0AD150EA01347FF427
:1046200034AF95EA0C0F7FF425AF104619462CE7FE
:1046300095EA0C0F06D152EA03353FF4FDAE104661
:10464000194622E750EA410618BF52EA43067FF4B2
:10465000C5AE50EA41047FF40DAF52EA43057FF442
:10466000EBAE12E74FEA4102B2F1E04324BFB3F5EB
:10467000001CDCF1FE5C0DD901F0004C4FEAC002D9
:104680004CEA5070B2F1004F40EB830008BF20F0BD
:104690000100704711F0804F21D113F13872BCBF77
:1046A00001F00040704741F480114FEA5252C2F1CC
:1046B0001802C2F1200C10FA0CF320FA02F018BF15
:1046C00040F001004FEAC1234FEAD32303FA0CFC68
:1046D00040EA0C0023FA02F34FEA4303CCE77FEAF7
:1046E000625307D150EA01331EBF4FF0FE4040F441
:1046F0004000704701F0004040F0FE4040F40000F0
:10470000704700BF08B5074B044613B10021AFF353
:104710000080054B1868836A03B19847204600F073
:1047200031F800BF00000000F847000070B50D4EE2
:104730000D4CA41BA4100025A54209D10B4E0C4C16
:1047400000F022F8A41BA4100025A54205D170BDDD
:1047500056F8253098470135EEE756F8253098474A
:104760000135F2E79C0000209C0000209C00002006
:10477000A000002002440346934200D1704703F892
:10478000011BF9E7FEE700BFF8B500BFF8BC08BCA5
:104790009E467047F8B500BFF8BC08BC9E467047FF
:1047A0005FF800F07500002040787D0100000000F7
:1047B000005A620200010000C0CF6A00020000003F
:1047C000809FD50002010000002D3101020200008F
:1047D000080911080002080705000A00C8000000C7
:1047E000FFFF010001000000A00068010A20070689
:1047F000020A04070000000014000020000000006E
:084800004CB9FF7F010000002C
:10480800005A620200800000C0EA2101C0EA2101CA
:10481800C0EA2101000000000000000000000000C4
:104828000000000000000000000000000000000080
:104838000000000000000000000000000000000070
:104848000000000000000000000000000000000060
:104858000000000000000000000000000000000050
:104868000000000000000000000000000000000040
:104878000000000080B483B000AF074B1B6843F012
:1048880000437B6030BF044A7B68136000BF0C376D
:10489800BD465DF8047B70474C310E403101000085
:0448A8000D010000FE
:04000003000001C137
:00000001FF
