S012000043435F554152545F4C61622E73333753
S113000000000420C1010000ED010000ED0100002A
S1130010ED010000ED010000ED010000ED01000024
S1130020ED010000ED010000ED010000ED01000014
S1130030ED010000EC010000ED010000ED01000005
S1130040ED010000ED010000ED010000ED010000F4
S1130050ED010000ED010000ED010000ED010000E4
S1130060ED010000ED010000ED010000ED010000D4
S1130070ED010000ED010000ED010000ED010000C4
S1130080ED0100008D3E0000ED010000ED010000D7
S1130090ED010000ED010000A5450000ED010000A8
S11300A0ED010000ED010000ED010000114400002D
S11300B0ED010000ED010000ED010000ED01000084
S11300C0ED010000ED010000ED010000ED01000074
S11300D0ED010000ED010000ED010000ED01000064
S11300E0ED010000ED010000F53E0000ED0100000F
S11300F0ED010000ED010000ED010000ED01000044
S1130100ED010000ED010000ED01000010B5054C0B
S1130110237833B9044B13B10448AFF300800123AF
S1130120237010BD1402002000000000107A0000AB
S113013008B5034B1BB103490348AFF3008008BD66
S11301400000000018020020107A0000154B002B5C
S113015008BF134B9D46A3F5803A00218B460F46FA
S11301601348144A121A05F030F90F4B002B00D033
S113017098470E4B002B00D0984700200021040024
S11301800D000D48002802D00C48AFF3008005F0A4
S1130190EDF82000290004F02FFC05F0D3F800BF8F
S11301A0000008000000042000000000000000001F
S11301B014020020E0030020000000000000000002
S11301C0064880470649074A074B9A42BEBF51F882
S11301D0040B42F8040BF8E7FFF7B8FFE502000050
S11301E01C7A00000000002014020020FEE700BF7B
S11301F080B582B000AF00F025F878600A4BD3F8E0
S113020008311B0AC3F308033B603B6801337A6877
S1130210B2FBF3F37B60054A7B6813607B68184686
S11302200837BD4680BD00BF00400E4008000020D6
S113023080B400AF024B1846BD465DF8047B70479E
S1130240005A620280B483B000AF1C4BD3F89430E0
S113025003F00703023B032B1BD801A252F823F03F
S1130260810200007902000071020000890200008E
S1130270134B1B687B6010E04FF400437B600CE081
S1130280104B1B687B6008E00F4B1B685B087B60AE
S113029003E00D4B1B687B6000BF084BD3F80031B3
S11302A01B0A03F01F0301337A68B2FBF3F3184609
S11302B00C37BD465DF8047B704700BF00400E401C
S11302C004000020000000200C00002080B400AFD7
S11302D0034B1B681846BD465DF8047B704700BF9E
S11302E00000002080B400AF074B084A9A60064B18
S11302F0D3F88830044A43F47003C2F8883000BF4E
S1130300BD465DF8047B704700ED00E0000000008E
S113031080B400AF4FF400431846BD465DF8047B3B
S1130320704780B400AF4FF47A731846BD465DF849
S1130330047B704780B400AF034B1B681846BD466E
S11303405DF8047B704700BF0400002080B487B0D0
S113035000AFF860B9607A60FB6803F10473DA00F7
S1130360BB6813449B007B617B697A681A6000BF99
S11303701C37BD465DF8047B704780B485B000AF80
S1130380786039607B6803F10473DA003B681344D6
S11303909B00FB60FB681B6818461437BD465DF87C
S11303A0047B704780B483B000AF786001227B681F
S11303B002FA03F318460C37BD465DF8047B704718
S11303C080B400AF064B1B6803F04003002B01D13F
S11303D0012300E000231846BD465DF8047B704706
S11303E03C300E4080B500AFFFF7EAFF034683F0D0
S11303F00103DBB2002B08D100BF12210448FFF730
S1130400BCFF0346002BF8D100E000BF80BD00BF55
S113041004300E4080B500AFFFF7E4FF034B5B6888
S11304201B0C03F00303DBB2184680BD00300E4002
S113043080B584B000AF78600123FB607B68124A0A
S1130440934204D80023FB600023BB6008E07B6870
S11304500E4A934202D80123BB6001E00223BB6031
S1130460FA6810210A48FFF771FF094BD3F80031ED
S113047023F08072BB681B0605491343C1F80031A1
S113048000BF1037BD4680BD0048E8010090D0038E
S113049000400E4080B483B000AF054B1B687B6006
S11304A07B6818460C37BD465DF8047B704700BF77
S11304B01000002080B582B000AFFFF7C3FE786063
S11304C0064BD3F800311B0A03F01F0301337A688B
S11304D002FB03F318460837BD4680BD00400E40BA
S11304E080B582B000AF0D4800F01EFC0346FB70DF
S11304F0FB78072B05D0092B07D1FFF7A3FE786003
S113050006E0FFF7C7FF786002E000237B6000BFCE
S11305107B6818460837BD4680BD00BF06000E0044
S113052080B584B000AF78607B68002B1CD11B4879
S113053000F0FAFB0346FB7200BFFB7A013B072B7A
S113054023D801A252F823F06D0500008B050000AA
S11305508B0500007B0500008B0500008B05000067
S11305607305000083050000002312E00023FB60F4
S11305700EE0FFF78FFFF8600AE0FFF7A7FEF860D0
S113058006E0FFF797FFF86002E00023FB6000BF7E
S1130590FB6818461037BD4680BD00BFB800320066
S11305A080B485B000AF786039601E4B5B6803F09F
S11305B04073FB600023BB6012E01B4ABB68DB0096
S11305C013441A793B68DBB29A4206D1164ABB68D7
S11305D052F833307A689A4206D9BB680133BB605B
S11305E0BB68042BE9D900E000BFBB68052B02D12E
S11305F00323FB6005E00C4ABB68DB0013445B7912
S1130600FB60FB681B06FB60064B5B6823F04072D3
S11306100449FB6813434B6000BF1437BD465DF8C3
S1130620047B704700000E40E076000080B582B085
S113063000AF0E4B1B6C002B14BF01230023FB7176
S11306400A4B41F671321A64FFF7F2FD03460021AA
S11306501846FFF7A5FFFB79002B02D0034B0022BD
S11306601A6400BF0837BD4680BD00BF00000E40BD
S113067080B584B000AF786039600C4B1B6C002BE4
S113068014BF01230023FB73084B41F671321A6433
S113069039687868FFF784FFFB7B002B02D0034B9B
S11306A000221A6400BF1037BD4680BD00000E4012
S11306B080B487B000AF78600F237B617B6803331D
S11306C03B617B69FB60FA683B69934228BF134630
S11306D0BB60BB681B07BB60BB6818461C37BD46C4
S11306E05DF8047B7047000080B400AF044B5B6A84
S11306F01B0903F003031846BD465DF8047B7047ED
S113070000400E4080B483B000AF7860074B5B6A52
S113071023F030027B681B01044913434B6200BF82
S11307200C37BD465DF8047B704700BF00400E40A7
S113073090B585B000AF78600023BB607B68354A14
S1130740934206D0344A934203D0344A934200D0B1
S113075000E000BF786800F0E7FA0346FB607B68BE
S11307602C4A93420DD02C4A934211D02B4A9342E7
S113077000D014E02A4BD3F8803003F00703FB6069
S11307800DE0274BD3F8843003F00703FB6006E049
S1130790234BD3F8883003F00703FB6000BFFB68EA
S11307A0042B2ED801A252F823F000BFFD0700004D
S11307B0C1070000C9070000D9070000D1070000E5
S11307C0FFF7A6FDB8601FE0FFF7B4FDB8601BE0BB
S11307D0FFF7A7FDB86017E0FFF734FD0446104BA0
S11307E0D3F800311B0E03F0010301331846FFF761
S11307F0D9FD0346B4FBF3F3BB6005E00023BB6003
S113080002E00023BB6000BFBB6818461437BD4636
S113081090BD00BF030020000500240002001E005C
S113082000400E4080B483B000AF78600A4BD3F828
S1130830443103F00103002B08D100BF064BD3F869
S113084040217B681340002BF8D100E000BF0C3737
S1130850BD465DF8047B704700400E4080B400AF95
S113086000BFBD465DF8047B704780B400AF00BF95
S1130870BD465DF8047B704780B582B000AF7860F8
S1130880786800F087F90346013318460837BD46F7
S113089080BD000080B586B000AF78600B46FB7069
S11308A000233B617B681B0A03F00F03013B092B08
S11308B044D801A252F823F0E1080000ED0800003A
S11308C03D0900003D090000E7080000F3080000AE
S11308D0FD0800003D09000007090000130900009D
S11308E0184B7B6118E0184B7B6115E0174B7B615B
S11308F012E0174B7B6101233B610DE0154B7B61DB
S113090010233B6108E0144B7B614FF480333B615F
S113091002E0124B7B6100BF7B681B0B03F01F03DB
S1130920FB603B69002B02D03869FFF77BFFFB7843
S11309301A46F9687869FFF709FD00E000BF183727
S1130940BD4680BD00400E40B0400E40C0400E4049
S1130950E0400E40E8400E40F0400E4050410E4052
S113096090B585B000AF78607B6803F47813B3F575
S1130970B01F00F09480B3F5B01F21D8B3F5202F39
S113098058D0B3F5202F08D8B3F5003F56D0B3F5AF
S1130990802F40D0002B3AD0EBE0B3F5602F00F06D
S11309A0D080B3F5602F03D8B3F5402F55D0E0E0E5
S11309B0B3F5801F00F0C980B3F5A01F61D0D8E063
S11309C0B3F5101F00F0B880B3F5101F0BD8B3F5C2
S11309D0F01F51D0B3F5001F00F08280B3F5D01F93
S11309E000F08380C5E0B3F5401F00F09180B3F5BB
S11309F0401F03D8B3F5381F63D0BAE0B3F5481FDE
S1130A0000F0A780B3F5781F00F0A880B1E0FFF7ED
S1130A1019FCF860B0E0FFF715FCF860594BD3F807
S1130A200C311B0AC3F308030133FA68B2FBF3F376
S1130A30FB60A1E0FFF706FCF8609DE0FFF702FC15
S1130A40F860504BD3F808311B0AC3F30803013391
S1130A50FA68B2FBF3F3FB608EE0FFF7F3FBF86098
S1130A60484BD3F814311B0A03F01F030133FA680F
S1130A70B2FBF3F3FB607FE04348FFF759FEF860F5
S1130A807AE04248FFF754FEF8603E4BD3F8303129
S1130A9003F00303FA6822FA03F3FB606CE03A48BC
S1130AA0FFF746FEF860374BD3F8203103F00F030D
S1130AB01846FFF777FC0246FB68B3FBF2F3FB60D2
S1130AC05AE03148FFF734FEF8602E4BD3F820315A
S1130AD01B0903F00303FA6822FA03F3FB604BE0FB
S1130AE02B48FFF725FEF86046E02948FFF720FE73
S1130AF0F860244BD3F828311B0903F0030318468C
S1130B00FFF750FC0246FB68B3FBF2F3FB6033E0F3
S1130B101F48FFF70DFEF8601A4BD3F828311B0A63
S1130B2003F0030304331846FFF73CFC0246FB685A
S1130B30B3FBF2F3FB601FE01448FFF7F9FDF86024
S1130B401AE0FFF7CDFCF86016E0FFF7A3FCF860AD
S1130B5012E00020FFF7E4FCF8600DE0FFF772FB01
S1130B6004467868FFF788FE0346B4FBF3F3FB60A2
S1130B7002E00023FB6000BFFB6818461437BD4643
S1130B8090BD00BF00400E4002001E00050024007E
S1130B900300200080B584B000AF78607B681B0937
S1130BA003F00F03BB60BB68013B092B00F2A88074
S1130BB001A252F823F000BFE10B0000F10B00008A
S1130BC0010C0000210C0000010D0000010D0000CB
S1130BD0310C0000410C00008F0C0000E30C0000FD
S1130BE04B4BD3F800311B0A03F01F03FB608AE070
S1130BF0474BD3F814311B0A03F01F03FB6082E058
S1130C00434BD3F800311B0E03F00103FB60FB6878
S1130C1001331846FFF7C6FB0346013BFB6072E055
S1130C203B4BD3F80C311B0AC3F30803FB606AE0A7
S1130C30374BD3F808311B0AC3F30803FB6062E0A7
S1130C407B68344A934203D0334A93420DD01AE06E
S1130C502F4BD3F8203103F00F03FB60F868FFF744
S1130C60A1FB0346013BFB6010E0294BD3F8203184
S1130C701B0903F00303FB60F868FFF793FB0346CB
S1130C80013BFB6002E00023FB6000BF3BE07B68AC
S1130C90224A934203D0224A93420ED01DE01C4BB9
S1130CA0D3F828311B0903F00303FB60F868FFF74E
S1130CB079FB0346013BFB6012E0154BD3F8283166
S1130CC01B0A03F00303FB60FB6804331846FFF7B9
S1130CD069FB0346013BFB6002E00023FB6000BFAD
S1130CE011E07B680F4A934206D1094BD3F83031A7
S1130CF003F00303FB6002E00023FB6000BF02E09B
S1130D000023FB6000BFFB6818461037BD4680BD5A
S1130D1000400E408006160080162E0090171A0020
S1130D2090273000A009140080B485B000AF78602B
S1130D300123FB737B6803F00F03BB60BB68013BBB
S1130D40072B00F2C48001A252F823F06D0D0000BD
S1130D50C30D0000F30D0000CF0E0000390E00009B
S1130D60690E0000CF0E00008D0E00005D4BD3F81D
S1130D70943003F00703023B052B1ED801A252F85E
S1130D8023F000BFA90D0000A30D00009D0D00007D
S1130D90AF0D0000BB0D0000B50D00000223FB7376
S1130DA00EE00323FB730BE00423FB7308E00B2327
S1130DB0FB7305E00C23FB7302E00523FB7300BF08
S1130DC088E0484BD3F8803003F00703022B06D0A9
S1130DD0042B07D0012B08D10323FB7308E0022363
S1130DE0FB7305E00A23FB7302E00123FB7300BFDE
S1130DF070E03C4BD3F8843003F00703013B032B32
S1130E0016D801A252F823F0190E00001F0E00009C
S1130E102B0E0000250E00000323FB730BE00223BE
S1130E20FB7308E00A23FB7305E00623FB7302E06F
S1130E300123FB7300BF4DE02A4BD3F8883003F045
S1130E400703022B06D0042B07D0012B08D1032360
S1130E50FB7308E00223FB7305E00A23FB7302E043
S1130E600123FB7300BF35E01E4B1B6F03F001032E
S1130E70002B04D0012B05D10923FB7305E00723C4
S1130E80FB7302E00123FB7300BF23E0154BD3F88F
S1130E905C3103F03003102B0CD0102B02D8002B44
S1130EA005D010E0202B08D0302B09D00BE0012313
S1130EB0FB730BE00723FB7308E00423FB7305E0DB
S1130EC00823FB7302E00123FB7300BF02E000234D
S1130ED0FB7300BFFB7B18461437BD465DF8047BEB
S1130EE0704700BF00400E4080B58AB000AF786004
S1130EF00B46FB7003237B62032387F82330002314
S1130F00BB6100237B617B68112B19D1FB78042B17
S1130F1003D1FFF7DBF978610BE0FB78052B08D1EF
S1130F2000F0C6F90246A44B9A4202D900F0C0F977
S1130F3078617B69002B03D00021786900F066FF9B
S1130F407B6803F00F033B613B69013B072B00F215
S1130F50298101A252F823F0790F00006B100000E0
S1130F607D100000A51100006F1000001511000095
S1130F70A511000033110000FB78023B0A2B00F29C
S1130F80138101A252F823F0B50F0000C10F000035
S1130F90CD0F0000DF0F0000A9110000A91100000F
S1130FA0A9110000A9110000A9110000F10F00000F
S1130FB0FD0F000004237B62002387F8233023E025
S1130FC003237B62012387F823301DE002237B6225
S1130FD0022387F823307948FFF72AFA14E0012323
S1130FE07B62032387F823307448FFF721FA0BE070
S1130FF005237B62032387F8233005E007237B6204
S1131000062387F8233000BF97F82330062B06D039
S113101097F8233001220121184600F057FAFFF710
S113102005FBFFF71BFC7B69002B01D0FFF7DAF906
S1131030634A7B6A5367FFF7DBF8F860FFF702F94E
S113104003461846FFF7F4F9FFF7E4F90346194697
S1131050F868FFF70DFB7B69002B03D10121002009
S113106000F0D4FEFFF701FCA3E0564BBB61BB6963
S1131070002B01D0BB6900E0534BBB61BB69002B63
S113108001D0BB6900E0514BBB61FB78013B092BEC
S113109000F28C8001A252F823F000BFC5100000BA
S11310A0CB100000DB100000AD110000AD110000FA
S11310B0EB100000AD110000AD110000AD110000F7
S11310C0071100000023FB6120E001220121002020
S11310D000F0FCF90223FB6118E001220121012048
S11310E000F0F4F90123FB6110E0FFF7ABF80346CD
S11310F01846FFF79DF9012202213548FFF726F92A
S11311000323FB6102E00423FB6100BFBB69FA69AE
S11311101A604EE0FB78072B02D0092B04D048E07C
S1131120274B00221A6703E0254B01221A6700BFF0
S11311303FE0FB78013B072B3AD801A252F823F099
S113114061110000B1110000B1110000771100001D
S1131150B1110000B11100006711000087110000F7
S11311600023FB6112E001220121042000F0AEF90A
S11311700123FB610AE001220121022000F0A6F90B
S11311800223FB6102E00323FB6100BF0C4BD3F895
S11311905C3123F03002FB691B0109491343C1F898
S11311A05C3106E000BF04E000BF02E000BF00E0E5
S11311B000BF2837BD4680BD002D31010148E8013C
S11311C000400E4080400E4088400E4084400E4057
S11311D0B0400E4080B483B000AF78607B68294A89
S11311E093422FD0274A934210D8274A934221D0C2
S11311F0254A934203D8254A93421BD03AE0244A15
S1131200934217D0234A934218D033E0224A9342A0
S113121024D0214A934206D8204A934216D0204A29
S1131220934217D026E01F4A93421BD01E4A934292
S11312301CD01FE01D4BD3F880301CE01B4BD3F8AF
S11312408C3018E0194BD3F8983014E0174BD3F8CE
S11312509C3010E0154BD3F8A0300CE0134BD3F8BE
S1131260A83008E0114BD3F8AC3004E00F4BD3F8AE
S1131270B03000E0002318460C37BD465DF8047B0F
S1131280704700BF405DC60080841E0040420F00CE
S113129000093D00C0CF6A0080BA8C010024F4002C
S11312A0C0EA21010048E80180D54302B081E00F83
S11312B080B400AF034B1B681846BD465DF8047B41
S11312C0704700BF0C00002080B586B000AF786086
S11312D07868FFF77FFF78617B69002B03D07B6917
S11312E0B3F1FF3F00BF3A4B1B683B61384A7B6850
S11312F013601120FFF718FD0346052B03D1FFF7F8
S113130095F9FFF7ABFA00BF18213248FFF735F81B
S11313100346002BF8D17B682F4A93420DD02F4A05
S1131320934211D02E4A934200D012E07B6923F0FD
S1131330C06343F080637B610BE07B6923F0C0638F
S113134043F000737B6104E07B6923F0C0637B613D
S113135000BF1120FFF7E8FC0346052B02D1786893
S1131360FFF766F87A683B699A4203D901217868E5
S113137000F04CFD1B4A7B6913611120FFF7D4FC7C
S11313800346052B09D1FEF733FFF860FFF742F857
S113139003461946F868FFF76BF9FEF753FF034657
S11313A01846FFF745F87A683B699A4203D8012149
S11313B0002000F02BFD1120FFF7B6FC0346052B9F
S11313C001D1FFF752FA00BF1837BD4680BD00BFF8
S11313D00C00002040410E4080841E0000093D00A6
S11313E040420F0000400E4090B585B000AF7860D9
S11313F01120FFF799FC01220021022000F066F879
S11314007B685B7883F00103DBB2002B0DD07B6833
S11314109B7883F00103DBB2002B06D07B68DB787A
S113142083F00103DBB2002B00BF0023FB607B6869
S11314301B7C022B01D10123FB60224B5B6A23F04E
S113144001022049FB6813434B627B681B781A46F0
S113145008211D48FEF77AFF7B689B88DB027A68C7
S1131460527A1146174A0B43D362164B1B6B03F097
S11314707F627B68DB88DB0213437A68927A1A43C3
S11314807B681B7ADB0142EA03047B681B7A1846FB
S1131490FFF70EF903460B4A234313637B685B7B18
S11314A01A037B689B7B1B0113437A68D27B1A4324
S11314B07B681B7B1B04034913434B6300BF143736
S11314C0BD4690BD00400E4024400E4080B588B01B
S11314D000AF0346FB710B46BB7113467B71FB796E
S11314E0042B00F2B88001A252F823F04915000041
S11314F03715000013150000011500002515000024
S113150001237B6102233B610123FB610023BB6157
S113151025E004237B6108233B610323FB61022351
S1131520BB611CE010237B6120233B610523FB612D
S11315300423BB6113E040237B6180233B610723C9
S1131540FB610623BB610AE04FF480737B614FF4B7
S113155000733B610923FB610823BB6100BFBB79B6
S1131560002B5BD00023FB73FB79022B11D1FFF717
S1131570BBF80346002B0CD1394BDB6B0123FB7307
S1131580384B5B6A03F00103012B02D10120FFF702
S1131590B9F8344A7B69136600BFB9693248FEF76B
S11315A0ECFE0346002BF8D07B79002B54D000BF0F
S11315B0F9692D48FEF7E1FE0346002BF8D0FB79CC
S11315C0022B49D1FB7B002B46D0264B5B6A03F0F0
S11315D00103012B05D101222021022000F04AF948
S11315E003E00021022000F0FBF8022000F03EF8A6
S11315F0B860012200210220FFF768FFB9680220C9
S113160000F06EF8174A7B69136600BFF969164843
S1131610FEF7B3FE0346002BF8D01DE0114A3B69E8
S1131620136600BF0F4BD3F890300121BA6901FA59
S113163002F21340002BF5D17B79002B0CD000BFB4
S1131640084BD3F890300121FA6901FA02F21340F1
S1131650002BF5D100E000BF2037BD4680BD00BFA0
S113166000300E4000400E4090400E4080B485B0E3
S113167000AF0346FB71FB79013B032B23D801A286
S113168052F823F095160000B9160000A1160000C8
S1131690AD160000114B1B6AC3F30803FB6015E091
S11316A00E4B1B6903F07F03FB600FE00B4B9B6940
S11316B003F07F03FB6009E0084BD3F89C30C3F3CD
S11316C00A03FB6002E00023FB6000BFFB681846CE
S11316D01437BD465DF8047B704700BF00400E40E0
S11316E080B584B000AF03463960FB71FB79013BE0
S11316F0032B6AD801A252F823F000BF0D17000093
S11317008F1700003B170000651700003B68C3F308
S113171008033B6000BF1A212E48FEF72EFE034645
S1131720002BF8D12C4B1B6A23F4FF7323F0010325
S113173029493A6813430B6248E03B6803F07F038E
S11317403B6000BF18212348FEF717FE0346002B19
S1131750F8D1214B1B6923F07F021F493B681343D7
S11317600B6133E03B6803F07F033B6000BF19214A
S11317701848FEF702FE0346002BF8D1164B9B696E
S113178023F07F0214493B6813438B611EE0124B24
S1131790D3F89030104B5B6A23F030030E4A43F0C9
S11317A0100353623B68DB0903F00F031846FEF78E
S11317B07FFFF860084B1A6B084B13403A681A43D2
S11317C00549FB6813430B6300E000BF00BF1037FB
S11317D0BD4680BD40410E4000400E4000F8FF0F62
S11317E080B584B000AF03460A46FB711346BB7153
S11317F0FEF77AFF0346002B03D14FF44003FB604E
S113180016E0BB79202B04D0302B0AD0002B04D057
S11318100BE04FF40003FB600AE04FF44003FB606D
S113182006E04FF44003FB6002E0104BFB6000BF96
S113183000BF0F4BD3F89020FB681340FA689A421C
S1131840F7D1FB6803F48003002B0AD0084BD3F8CC
S1131850A03003F48063002B14BF01230023DBB208
S113186000E0012318461037BD4680BDFF33E10771
S113187000400E4080B582B000AF0346FB710B46BA
S1131880BB7113467B71FB79022B00D016E0BB7948
S1131890002B07D00C4B4FF48062C3F8A8200A4AEF
S11318A0BB7953667B79002B07D0BA79FB79114653
S11318B01846FFF795FF034601E000BF01231846D1
S11318C00837BD4680BD00BF00400E4080B483B0E1
S11318D000AFEFF310833B603B687B6072B67B68BC
S11318E018460C37BD465DF8047B704780B483B05E
S11318F000AF78607B68002B00D162B600BF0C3764
S1131900BD465DF8047B704780B500AFFEF770FC00
S113191000BF80BD80B487B000AFF860B9607A6062
S1131920FB6803F10473DA00BB6813449B007B611A
S11319307B697A681A6000BF1C37BD465DF8047B7A
S1131940704780B485B000AF786039607B6803F17C
S11319500473DA003B6813449B00FB60FB681B685C
S113196018461437BD465DF8047B704780B400AF59
S1131970064B1B6803F04003002B01D1012300E058
S113198000231846BD465DF8047B70473C300E408A
S113199080B500AFFFF7EAFF034683F00103DBB233
S11319A0002B08D100BF12210448FFF7CAFF0346E9
S11319B0002BF8D100E000BF80BD00BF04300E4012
S11319C080B500AFFFF7E4FF034B5B681B0C03F02B
S11319D00303DBB2184680BD00300E4080B483B0F0
S11319E000AF7860044A7B68D36200BF0C37BD4601
S11319F05DF8047B704700BF00300E4080B400AF38
S1131A00034B5B6A1846BD465DF8047B704700BF14
S1131A1000300E4080B400AF034B00225A6300BF75
S1131A20BD465DF8047B704700300E4080B400AFC3
S1131A30044B4AF6E8525A6300BFBD465DF8047B86
S1131A40704700BF00300E4080B400AF044B00224A
S1131A50C3F8802100BFBD465DF8047B704700BF1A
S1131A6000400E4080B400AF044B45F60E02C3F8AC
S1131A70802100BFBD465DF8047B704700400E40E6
S1131A8080B483B000AF0346FB71FB79C3F102035A
S1131A90102202FA03F318460C37BD465DF8047BA6
S1131AA07047000090B585B000AF0346FB71FB7929
S1131AB0002B1BD14A4BD3F890304A4A13601120B3
S1131AC0FFF732F903461A46474B1A70FFF760FFD7
S1131AD0464B5B681B0CDBB203F00303DAB2444BE6
S1131AE01A703F4B1B69434A136075E0FFF73EFFD2
S1131AF00346002B07D03E4B1B783C4C1846FFF79F
S1131B00BFFF03462361364BD3F8803103F0010352
S1131B10FB60FFF7A7FF0023BB60324B1B6803F099
S1131B200103BA681343BB602E4B1B6803F0100318
S1131B30BA681343BB602B4B1B6803F04003BA68BD
S1131B401343BB60274B1B6803F00403BA681343B9
S1131B50BB60244B1B6803F48073BA681343BB60F7
S1131B601F4ABB681366FFF713FF204B1B6803F083
S1131B701003002B18D000BF194BD3F8403103F0E9
S1131B808073002BF8D1164A1A4B1B681361164B4D
S1131B901B78052B08D1184B1C68FFF711FF03466F
S1131BA019462046FEF764FD0F4B1B78052B05D024
S1131BB00D4B1B7819461120FFF796F9094B1B684A
S1131BC003F00103002B02D1054B02221A66FB68C5
S1131BD0002B01D0FFF738FF00BF1437BD4690BD7E
S1131BE000400E403C0200204002002000300E4025
S1131BF041020020440200200C00002080B582B085
S1131C0000AFFFF7B3FE034683F00103DBB2002B02
S1131C101FD1FFF7BDFE114B1B681B0A03F0030322
S1131C207B600E4B5B681B0C03F003033B607A681C
S1131C303B689A4206D9094B1B68084A43F01003D3
S1131C40136007E0054B1B68044A23F0100313607C
S1131C5000E000BF0837BD4680BD00BF00300E4025
S1131C6080B483B000AF0C4B1B6803F01003002B4F
S1131C700BD00A4B1B691B0C03F01F037B607B68B2
S1131C80082B02D1064B074A1A6000BF0C37BD4629
S1131C905DF8047B704700BF00300E4000400E40EA
S1131CA00C000020C0EA210180B400AF00BFBD4693
S1131CB05DF8047B704780B400AF00BFBD465DF89B
S1131CC0047B704780B584B000AF0346FB71FB7999
S1131CD0002B02D00020FFF7E5FEFFF78FFF1A4B21
S1131CE01B69194A43F004031361FFF7DDFF174B27
S1131CF01B6803F01003002B08D0FFF7E7FDF86022
S1131D0005F0EAFCF868FFF7F1FD00E030BFFFF7EB
S1131D10D2FFFB79002B03D00120FFF7C3FE01E0C3
S1131D20FFF79EFF0A4B1B68094A23F00043136028
S1131D30FB7983F00103DBB2002B01D0FFF7E4FD54
S1131D4000BF1037BD4680BD00ED00E000300E40FE
S1131D504C310E4080B584B000AF0346FB71FB7973
S1131D60002B02D00020FFF79DFEFFF747FF234B17
S1131D70D3F8803103F00103FB60FFF773FE1F4BC0
S1131D804FF420721A66FB68002B01D0FFF75CFE4B
S1131D901B4B1B691A4A43F004031361FFF784FFCA
S1131DA0184B1B6803F01003002B08D0FFF78EFDBF
S1131DB0B86005F091FCB868FFF798FD00E030BF0B
S1131DC0FFF779FFFB79002B03D00120FFF76AFEB0
S1131DD001E0FFF745FF0C4B1B680B4A23F000435F
S1131DE01360FB7983F00103DBB2002B01D0FFF712
S1131DF08BFD00BF1037BD4680BD00BF00400E40C4
S1131E0000ED00E000300E404C310E4080B584B04F
S1131E1000AF78600B46FB70FFF7A8FD034683F024
S1131E200103DBB2002B28D17B68002B0FD1154BAB
S1131E30D3F800311B0A03F01F030133BB60FEF724
S1131E4001FA0246BB6802FB03F3FB6001E07B6816
S1131E50FB600D4B1B78002B09D0FB680B4A9342A7
S1131E6005D8FB781946022000F012F806E0FB784A
S1131E701946002000F00CF800E000BF1037BD4602
S1131E8080BD00BF00400E4038020020002D31010B
S1131E9090B587B000AF03460A46FB711346BB7189
S1131EA0FFF764FD034683F00103DBB2002B31D15D
S1131EB0FFF786FD03461A46FB7993422CD0184B54
S1131EC0D3F800311B0A03F01F0301337B61FEF7D3
S1131ED0B9F938613B697A6902FB03F3FB60FB796A
S1131EE0022B03D102213869FEF7C2FB0D4CFB79AA
S1131EF01846FFF7C5FD03462361BB79002B01D0CB
S1131F00FFF746FDFB79002B07D100213869FEF766
S1131F10AFFB02E000BF00E000BF1C37BD4690BD30
S1131F2000400E4000300E4080B483B000AF7860B3
S1131F300A4B1B6823F440727B685B781B020749D9
S1131F4013430B607B685B78022B01D1044B5B6A03
S1131F5000BF0C37BD465DF8047B704700300E406F
S1131F6000400E4080B400AF01231846BD465DF822
S1131F70047B704780B582B000AF0C4BDB6E0B4A1C
S1131F8043F08073D36600210948FFF7DAFC7860D8
S1131F907B68002B03D0042000F0B0FC02E000209A
S1131FA000F0ACFC00BF0837BD4680BD00300E40D9
S1131FB04C300E4080B48BB000AF01237B627B6A4F
S1131FC01B053B62324BDB6C1B0A03F00F03FB6106
S1131FD0304B1B881A462F4B1B8828335B0813444D
S1131FE003F12801FB695A1C13469B001344B1FBFF
S1131FF0F3F3013BBB61BB697B6107233B613A6936
S11320007B69934228BF1346BB61BB691B06BB6156
S11320101F4BDB6C23F0EE62B9693B6A0B431C492E
S11320201343CB641C4BB3F90030002B29DB1A4B50
S1132030B3F90030FB81FA89FB8928335B08134428
S113204003F12802FB6901335900FB6901335B0882
S11320500B44B2FBF3F3BB60BB687B6007233B60BC
S11320603A687B68934228BF1346BB60BB681B0178
S1132070BB60074B1B6D23F070020549BB6813431B
S11320800B6500BF2C37BD465DF8047B704700BF6D
S113209000300E40300200203402002080B483B0AF
S11320A000AF78600B467B807B689AB2054B1A8040
S11320B0054A7B88138000BF0C37BD465DF8047B5E
S11320C0704700BF300200203402002080B483B087
S11320D000AF0346FB71FB79002B02D0012B04D027
S11320E007E0074B074A9A6503E0054B064A9A65E1
S11320F000BF00BF0C37BD465DF8047B704700BFCE
S113210000300E4077402057372110B780B485B097
S113211000AF0346FB710B46BB7113467B712D4B1D
S1132120D3F88031FB60BB79032B1DD801A252F890
S113213023F000BF452100004D210000572100007D
S113214061210000FB68DBB2FB600FE0FB681B0A47
S1132150DBB2FB600AE0FB681B0CDBB2FB6005E052
S1132160FB681B0EFB6001E000232CE07B79002B55
S113217011D1FB681B03FB60FB6823F47043002B45
S113218001D000231FE0144BDB6E23F4704212498C
S1132190FB681343CB667B79012B13D1FB681B03CC
S11321A0FB60FB6823F47043002B01D000230AE09A
S11321B0094BD3F8EC3023F470420749FB6813430E
S11321C0C1F8EC30012318461437BD465DF8047B92
S11321D0704700BFB081E00F00300E4080B489B07A
S11321E000AFF860B96011461A460B46FB711346FE
S11321F0BB710023FB610023BB61BB791B02FA792D
S1132200002A01D0012200E0002213437B617B6994
S113221040F2011293422AD0B3F5817F07D2012BF9
S113222019D0012B47D3B3F5807F50D073E040F22F
S11322300122934227D040F20122934203D8B3F5FE
S1132240007F50D067E0B3F5407F58D040F20132B0
S1132250934224D05FE0364BD3F87431FB61FB69C1
S11322601B0ADBB2BB61FB69DBB2FB6153E0304BA1
S1132270D3F87431FB61FB691B0EBB61FB691B0C5A
S1132280DBB2FB6147E02A4BD3F87831FB61FB6991
S11322901B0ADBB2BB61FB69DBB2FB613BE0244B95
S11322A0D3F87831FB61FB691B0EBB61FB691B0C26
S11322B0DBB2FB612FE01E4BD3F86C31FB61FB6991
S11322C01B0ADBB2BB61FB69DBB2FB6123E0184B89
S11322D0D3F86C31FB61FB691B0EBB61FB691B0C02
S11322E0DBB2FB6117E0124BD3F87031FB61FB6981
S11322F01B0ADBB2BB61FB69DBB2FB610BE00C4B7D
S1132300D3F87031FB61FB691B0EBB61FB691B0CCD
S1132310DBB2FB6100BFFB68FA691A60BB68BA698B
S11323201A6000BF2437BD465DF8047B704700BFC8
S1132330B081E00F80B584B000AF0346FB713E4B23
S11323405B6B012B0CBF01230023FB73FFF76EFBB8
S113235000BF394B9B6F03F00103002BF9D1364BBF
S11323601B6C03F00303BB60BB68002B04D0012289
S11323700D213248FFF7CEFABB68DBB2FA799A42F4
S113238008D1FB79002B53D100220D212B48FFF7F4
S1132390C1FA4DE0BB68032B02D0BB68002B20D1EF
S11323A0FB79022B02D0FB79012B1AD14FF40020C8
S11323B0FFF714FB00BF204B9B6F03F00103002BBE
S11323C0F9D11D4B1B6C23F003031B4A43F001039B
S11323D0136400BFFFF712FB034603F40023002B32
S11323E0F8D000BF144B9B6F03F00103002BF9D10D
S11323F0114B1B6C23F00302FB790F4913430B644D
S113240000BF0D4B9B6F03F00103002BF9D1FB7947
S1132410002B14BF01230023DBB21A460D21074809
S1132420FFF778FAFB7B002B03D0FFF7F3FA00E009
S113243000BF1037BD4680BD00300E4054300E4002
S113244080B584B000AF7860484B02229A63474B52
S11324509B6B03F00F03022B01D0002381E0FFF7F5
S113246081FD7B685B78012B02D07B685B78022B53
S11324707B68DB884A2B02D80023FB6015E07B686D
S1132480DB88B3F5FA7F03D24FF08053FB600CE096
S11324907B68DB8840F6C312934203D84FF00053A5
S11324A0FB6002E04FF04053FB60304BDB6C23F0E9
S11324B0405323F001037A68B2F90C20002A01DBAF
S11324C0012100E00021FA680A4328491343CB6440
S11324D0264BD3F8EC30254A43F44073C2F8EC3071
S11324E07B689A88224B1A80FFF744FD7B681B891E
S11324F01A467B68B3F90C3019461046FFF7CEFD37
S11325007B689B88184600F08DF97B689B7B184696
S1132510FFF7DCFD7B685B8801220121184600F08F
S11325202BF8034683F00103DBB2002B01D0002318
S113253017E00E4BDB6B0D4A43F48063D3637B6877
S11325405B781846FFF7F6FE7B689B7A202B01D157
S1132550012300E000231A4605210648FFF7DAF9B3
S1132560012318461037BD4680BD00BF00300E4021
S1132570320200203C300E4090B595B000AF786038
S11325800B46FB701346BB700023FB6400237B6483
S113259007F1240300221A605A609A6007F11803B5
S11325A000221A605A609A6007F10C0300221A6034
S11325B05A609A6007F1080300210A461A800A4605
S11325C09A707B68B3F5E16F06D37B6840F6B83246
S11325D0934201D8012300E0002387F8433097F8A1
S11325E0433003F0010387F8433097F8433083F016
S11325F00103DBB2002B01D000230AE17B68B3F5B1
S1132600E16F8CBF0123002387F8423097F84230F2
S1132610002B0AD04FF4E163FB6440F6B8337B64CB
S11326207A6CFB6CD31ABB6409E04FF49663FB64C9
S11326304FF4E1637B647A6CFB6CD31ABB6497F848
S11326404230002B0BD0754BD3F868313B623B6AA8
S11326501B0E7B613B6A1B0CDBB23B620AE06F4BD7
S1132660D3F868313B623B6A1B0ADBB27B613B6A8D
S1132670DBB23B626A4BDB6C1B0FDBB203F0030380
S1132680DBB23B723B7A97F8422007F10C0107F169
S11326901800FFF7A3FD624BD3F8EC301B0ADBB242
S11326A003F00303DBB27B727C7A97F8422007F1D4
S11326B00C03191D07F11803181D2346FFF78EFD9F
S11326C07A68FB6CD31A79693A6A8A1A02FB03F2B4
S11326D0BB6CB2FBF3F3FB62FA6A3B6A1344FB6222
S11326E07A68FB6CD31AF968BA698A1A02FB03F296
S11326F0BB6CB2FBF3F37B627A6ABB6913447B6203
S11327007A68FB6CD31A3969FA698A1A02FB03F2F4
S1132710BB6CB2FBF3F3BB62BA6AFB691344BB62E2
S1132720FA6A7B699A4213D8FA6A3B6A9A420FD3CF
S1132730BA6A3B699A420BD8BA6AFB699A4207D3D0
S11327407A6AFB689A4203D87A6ABB699A4201D2D0
S113275000235EE0BB78002B12D0314BDB6D23F4F9
S1132760FE4323F00203FA6A1202134397F842204D
S1132770002A01D0022200E0002229491343CB653C
S1132780FB78002B44D0397A97F84230002218465F
S1132790FFF7BCFC034683F00103DBB2002B01D03E
S11327A0002336E0797A97F8423001221846FFF781
S11327B0ADFC034683F00103DBB2002B01D0002300
S11327C027E07B6AFB63BB6ABB63BA6BFB6B934218
S11327D038BF13467B627B6A7B63E7233B633A6BB8
S11327E07B6B934228BF13467B620D4B5B6E23F4D5
S11327F0FF7323F001037A6A5200134397F84220CF
S1132800002A01D0012200E00022054913434B664F
S1132810012318465437BD4690BD00BFB081E00F78
S113282000300E4080B584B000AF78600023FB60B8
S1132830314B1B6F03F00703BB602F4BDB6C03F0C2
S11328400103002B14D0BB68012B11D97B68132B17
S113285002D80423FB6037E07B68132B05D97B681F
S1132860272B02D80823FB602EE01023FB602BE00B
S1132870214BDB6C03F00103002B14D1BB68012B4B
S113288011D87B68092B02D80423FB601CE07B6809
S1132890092B05D97B68132B02D80823FB6013E0AE
S11328A01023FB6010E0144BDB6C03F00103002BDE
S11328B00AD0BB68012B07D87B68272B02D80823D2
S11328C0FB6001E01023FB60FB68013BFB60FB68DD
S11328D01A02FB681B031343FB60074BDB6C23F4F6
S11328E07F420549FB681343CB64FFF763FB00BFDA
S11328F01037BD4680BD00BF00300E4080B584B0A7
S113290000AF0346FB7100210E48FFF71AF8F86088
S1132910FB68002B02D1FB79012B01D9FB68002B4A
S113292000BF094B1B6F23F00702FB7906491343D1
S11329300B67064B1B881846FFF774FF00BF103760
S1132940BD4680BD4C300E4000300E4032020020A7
S113295080B485B000AF786039607B6803F1C063F0
S1132960FB60FB683A681A6000BF1437BD465DF827
S1132970047B704780B485B000AF786039607B68B1
S113298003F18063FB60FB683A681A6000BF143788
S1132990BD465DF8047B704780B584B000AFF86035
S11329A0B9607A60B968F868FFF7E4FF7968F86895
S11329B0FFF7CEFF00BF1037BD4680BD80B582B0A3
S11329C000AF03463960FB71FB79002B1CD0FB7907
S11329D0012B19D0FB79022B16D0FB79032B13D0D2
S11329E0FB79042B10D0FB79052B0DD0FB79062B3A
S11329F00AD0FB79072B07D0FB79082B04D0FB798D
S1132A00092B01D0FB790A2BFA7913465B00134496
S1132A101B010C3303F1804303F5204301213A6881
S1132A2001FA02F211461846FFF7A4FF00BF083767
S1132A30BD4680BD80B582B000AF03463960FB71EE
S1132A40FB79002B1CD0FB79012B19D0FB79022BCD
S1132A5016D0FB79032B13D0FB79042B10D0FB7910
S1132A60052B0DD0FB79062B0AD0FB79072B07D059
S1132A70FB79082B04D0FB79092B01D0FB790A2BB5
S1132A80FA7913465B0013441B010C3303F18043B2
S1132A9003F5204301213A6801FA02F2114618466F
S1132AA0FFF756FF00BF0837BD4680BD80B582B032
S1132AB000AF03463960FB71FB79002B1DD0FB7915
S1132AC0012B1AD0FB79022B17D0FB79032B14D0DE
S1132AD0FB79042B16D0FB79052B0ED0FB79062B42
S1132AE010D0FB79072B0DD0FB79082B05D0FB798F
S1132AF0092B02D0FB790A2B04D13B6823F0011384
S1132B00002B00BFFA7913465B0013441B0103F149
S1132B10804303F520433A684FF001111846FFF74C
S1132B203BFF00BF0837BD4680BD000080B584B0C0
S1132B3000AFB9607B600346FB731346BB73FB7B3A
S1132B40002B1CD0FB7B012B19D0FB7B022B16D056
S1132B50FB7B032B13D0FB7B042B10D0FB7B052BBF
S1132B600DD0FB7B062B0AD0FB7B072B07D0FB7B0E
S1132B70082B04D0FB7B092B01D0FB7B0A2BBB7BEE
S1132B80002B0DD07B68002B05D0FB7BB968184661
S1132B90FFF750FF04E0FB7BB9681846FFF70EFF10
S1132BA0BB68072B20D82E49FA7B13465B001344DD
S1132BB01B010B4404331A68BB689B000F2101FA04
S1132BC003F3DB431340B97BBA68920001FA02F2C3
S1132BD011462348FA7B194313465B0013441B0137
S1132BE003440433196025E01D49FA7B13465B0056
S1132BF013441B010B4408331A68BB6803F1804378
S1132C00083B9B000F2101FA03F3DB4302EA0301B3
S1132C10BA7BBB6803F18043083B9B0002FA03F3D1
S1132C200F48FA7B194313465B0013441B0103440A
S1132C3008331960BB7B002B0DD17B68002B05D0BA
S1132C40FB7BB9681846FFF7F5FE04E0FB7BB96827
S1132C501846FFF7B3FE00BF1037BD4680BD00BF66
S1132C6000A0004080B483B000AF786039607B6816
S1132C703A68DA6300BF0C37BD465DF8047B7047E1
S1132C8080B487B000AFF860B9607A60FB6803F184
S1132C900473DA00BB6813449B007B617B697A6828
S1132CA01A6000BF1C37BD465DF8047B704780B4D2
S1132CB085B000AF786039607B6803F1C063FB6066
S1132CC0FB683A681A6000BF1437BD465DF8047BA0
S1132CD0704780B485B000AF786039607B6803F1D9
S1132CE08063FB60FB683A681A6000BF1437BD4616
S1132CF05DF8047B704780B584B000AFF860B960BC
S1132D007A60B968F868FFF7E4FF7968F868FFF754
S1132D10CEFF00BF1037BD4680BD000080B588B02F
S1132D2000AFF860B9607A60FB707B68002B77D0E5
S1132D30FB7803F00303FB70FB681B6823F4407209
S1132D40FB681A60F868FB781B021A464FF440715E
S1132D50FFF7D1FFBB68002B10D1FB68334A9342C5
S1132D6004D13348FDF7FCFDB86007E0FB68314A45
S1132D70934203D13048FDF7F3FDB8604FF0FF33C1
S1132D80BB61FB681B6803F00203002B10D0FB78C7
S1132D90012B07D0022B08D0002B00D019E0274BC1
S1132DA0BB6116E0264BBB6113E0264BBB6110E010
S1132DB0FB78012B07D0022B08D0002B00D008E0B1
S1132DC01E4BBB6105E0204BBB6102E01F4BBB61A6
S1132DD000BFFB781E4AD35C7B617B697A6802FB87
S1132DE003F33B613B69002B1CD07B68DB00BA68B2
S1132DF0D21A3B6913445A1E3B69B2FBF3F3013BFD
S1132E00FB61FB681B6803F00203002B04D0FB6921
S1132E10002B01D10123FB61FA69FB681A6102E00E
S1132E2000BF00E000BF2037BD4680BD00C00040A9
S1132E300082040000C400400092040080841E004C
S1132E40404B4C00809FD50040548900002D310137
S1132E500877000080B582B000AF78600B46FB7045
S1132E607B68084A934202D07B68074A934200BFBA
S1132E707B68FA7800211846FFF702FF00BF083785
S1132E80BD4680BD00C0004000C4004080B582B093
S1132E9000AF786039607B68154A934202D07B6842
S1132EA0144A934200BF7B6800221A64124978686E
S1132EB0FFF7D8FE78683B685B7883F00103DBB2E8
S1132EC01A460121FFF7DCFE3B6859683B689A68A3
S1132ED03B681B7B7868FFF721FF3B681B7819462A
S1132EE07868FFF7B7FF00BF0837BD4680BD00BF55
S1132EF000C0004000C40040FFFF070080B483B05E
S1132F0000AF7860396000BF7B685A6B3B68134040
S1132F10002BF9D100BF0C37BD465DF8047B704728
S1132F2080B582B000AF78600B46FB7002217868F0
S1132F30FFF7E4FFFB78002B03D07B6801225A6083
S1132F4002E07B6802225A6000BF0837BD4680BD9C
S1132F5080B584B000AF786039600023FB603B68C3
S1132F601B7883F00103DBB2002B0CD07B689B68D9
S1132F7003F00103002B06D002217868FFF7BEFF9F
S1132F807B6802225A603B685B78002B03D0FB68A5
S1132F9043F48053FB603B689B78002B03D13B6870
S1132FA0DB68002B0BD0FB6843F40073FB603B68C9
S1132FB0DB68002B03D03B68DA687B681A613B68E6
S1132FC0DB78002B03D0FB6843F48073FB603B6821
S1132FD01B79002B03D0FB6843F04003FB603B6884
S1132FE05B79002B03D0FB6843F08003FB603B68F4
S1132FF09B799B001A46FB681343FB603B68DB79B3
S11330001B011A46FB681343FB603B681B7A1A4694
S1133010FB681343FB607B68FA681A603B681B78A3
S1133020002B0CD07B689B6803F00103002B06D1B6
S113303002217868FFF762FF7B6801225A6000BFB3
S11330401037BD4680BD80B483B000AF786039606E
S11330507B681B6C03F00103002B07D100BF7B6866
S11330605A6C3B681340002BF9D100E000BF0C37C9
S1133070BD465DF8047B704780B586B000AFF8604C
S1133080B9607A60BB68002B09D1FB68124A93428D
S11330901DD1124B7B617869FDF762FCB860BB6897
S11330A05A017B68B2FBF3F33B613B69203B3B6114
S11330B03B69DB003B613A69094B13403B610421E6
S11330C0F868FFF7C0FFFB683A69DA6000E000BF08
S11330D01837BD4680BD00BF00A0044090171A00F9
S11330E0F8FF010080B584B000AF78600B46FB7038
S11330F0FB78DB43FB60FB6803F00503FB60FB68C4
S11331005B00FB60FB78FA681343FB60022178687C
S1133110FFF799FF7B68FA685A6000BF1037BD4615
S113312080BD80B483B000AF78600B46FB70FB7841
S1133130002B08D000BF7B685B6C002BFBD17B6845
S113314001221A6402E07B6800221A6400BF0C3773
S1133150BD465DF8047B704780B582B000AF7860EF
S1133160396002217868FFF76EFF7B680A225A6093
S113317001217868FFF7D5FF7B681B6823F01C03E7
S11331803A68127B13433A68527B13433A68927B42
S11331901A437B681A603B6859683B689B681A4607
S11331A07868FFF769FF3B681B781A467B685A60AA
S11331B000217868FFF7B5FF00BF0837BD4680BD22
S11331C080B483B000AF78607B680D4A93420BD023
S11331D07B680C4A934207D07B680B4A934203D026
S11331E07B680A4A934201D1012300E0002303F0E3
S11331F00103DBB218460C37BD465DF8047B70470B
S1133200008001400084014000A0014000A401406E
S113321080B584B000AF786039607868FFF7D0FF7C
S11332200023FB603B681B7883F00103DBB2002BB7
S113323002D07B6802225A607B6800225A623B6893
S11332409B781A063B68DB781B041A433B689B791E
S11332509B021A433B68DB791B0213433A68127AD8
S113326013433A685278002A01D0402200E0002239
S113327013433A68527A002A01D0802200E00022E7
S113328013433A68927A002A01D0202200E00022F7
S113329013433A68D27A002A01D0102200E00022B7
S11332A013433A68127B002A01D0082200E000226E
S11332B01343FB603B681B79002B02D04FF4005290
S11332C000E000223B685B79002B02D04FF0805372
S11332D000E000231343FA681343FB607B68FA6839
S11332E01A603B681B78002B02D07B6801225A606D
S11332F000BF1037BD4680BD80B483B000AF786096
S11333007B680D4A93420BD07B680C4A934207D0EA
S11333107B680B4A934203D07B680A4A934201D1EB
S1133320012300E0002303F00103DBB218460C374D
S1133330BD465DF8047B7047008001400084014075
S113334000A0014000A4014080B582B000AF7860C5
S11333500B46FB707868FFF7CFFFFB78002B03D098
S11333607B6801225A6002E07B6802225A6000BF37
S11333700837BD4680BD000080B588B000AF7860D6
S11333802148FDF7EDFAF861FB69204AA2FB03230B
S11333909B097A6802FB03F39B0ABB6101211C4869
S11333A0FDF778FA07F1080300221A605A609A6060
S11333B01A7301233B720123FB7400233B72012324
S11333C03B740A23BB7200237B7207F1080319467E
S11333D01048FFF71DFF0F4ABB69536201210D48D6
S11333E0FFF7B2FF00BF0B4B5B6A002BFBD1002140
S11333F00848FFF7A9FF00210548FDF74BFA00BF75
S11334002037BD4680BD00BF40410500D34D62104A
S1133410000204000080014080B588B000AF0123A1
S11334203B7101237B710023BB600C4BFB600123C8
S11334303B7401237B740123BB744FF498537B6169
S11334401323BB618023FB613B1D1946044800F034
S11334500DFC00BF2037BD4680BD00BFDDFB05006D
S113346000C4004080B586B004AF78607B68802BD0
S11334700ED10123039301230293022301937B685A
S113348000930E4BF52240210D4800F0C9FC11E0D9
S11334907B68B3F5807F0DD101230393012302934D
S11334A0022301937B680093064BF32240210448D6
S11334B000F0B6FC00BF0837BD4680BD48020020BE
S11334C000C400404C02002090B583B000AF4FF020
S11334D000037B601C4B1B68184601F057FC4FF03F
S11334E000021A4B01F0CCFC03460C461846214658
S11334F04FF00002164B01F0EDFD03460C46184652
S113350021464FF00002134B01F002FB03460C4628
S11335101846214601F0C6FE03467B60D7ED017ACA
S1133520B2EE047A67EE877AFDEEE77AB8EEE77AD0
S1133530F2EE046AC7EE267AC7ED017A7B68184674
S11335400C37BD4690BD00BF4802002000405F40DC
S11335500000F0400000184090B583B000AF4FF079
S113356000037B602E4B1B68184601F00FFC26A35A
S1133570D3E9002301F084FC03460C461846214697
S11335804FF00002274B01F0A5FD03460C461846F8
S113359021461FA3D3E9002301F0BAFA03460C46DF
S11335A01846214601F07EFE03467B60786801F0F0
S11335B00FFC19A3D3E9002301F062FC03460C4677
S11335C0184621464FF00002174B01F0A3FA0346B8
S11335D00C461846214601F065FE03467B60D7ED94
S11335E0017AB2EE047A67EE877AFDEEE77AB8EEF6
S11335F0E77AF2EE046AC7EE267AC7ED017A7B68B1
S113360018460C37BD4690BDD7A3703D0AF76540F8
S1133610CDCCCCCCCC6C4740CDCCCCCCCCCCFC3FB2
S11336204C0200200000F0400000404080B586B00D
S113363004AF5020FFF7A0FE01230393012302935C
S113364001230193002300932F4BE72240212F48AD
S113365000F0E6FB00BF00F0C9FD0346002BFAD1E1
S1133660294B1B683A2B02D0274B1B683B2B00BF0E
S1133670254B3B221A600023039301230293012369
S1133680019300230093204BE62240211F4800F0C1
S1133690C7FB00BF00F0AAFD0346002BFAD150205F
S11336A0FFF76AFE0123039301230293012301938D
S11336B000230093144BE7224021144800F0B0FB90
S11336C000BF00F093FD0346002BFAD101230393BE
S11336D00123029302230193002300930A4BF52252
S11336E040210A4800F09CFB00BF00F07FFD034628
S11336F0002BFAD1044B1B68282B0123FB71FB79A7
S113370018460837BD4680BD5002002000C4004062
S113371080B485B000AF786039607B6803F1C06322
S1133720FB60FB683A681A6000BF1437BD465DF859
S1133730047B704780B485B000AF786039607B68E3
S113374003F18063FB60FB683A681A6000BF1437BA
S1133750BD465DF8047B704780B582B000AF034678
S11337603960FB71FB79002B1CD0FB79012B19D03C
S1133770FB79022B16D0FB79032B13D0FB79042B96
S113378010D0FB79052B0DD0FB79062B0AD0FB79E1
S1133790072B07D0FB79082B04D0FB79092B01D028
S11337A0FB790A2BFA7913465B0013441B010C3393
S11337B003F1804303F5204301213A6801FA02F240
S11337C011461846FFF7B6FF00BF0837BD4680BD57
S11337D080B582B000AF03463960FB71FB79002BE2
S11337E01CD0FB79012B19D0FB79022B16D0FB7965
S11337F0032B13D0FB79042B10D0FB79052B0DD0B0
S1133800FB79062B0AD0FB79072B07D0FB79082B11
S113381004D0FB79092B01D0FB790A2BFA791346E2
S11338205B0013441B010C3303F1804303F5204375
S113383001213A6801FA02F211461846FFF768FFBF
S113384000BF0837BD4680BD80B500AF00F084F9E5
S113385000F0A8F900F0A6FF01F000F84FF4E053DF
S11338601C224FF07A51084800F010F8FFF7D4FDFD
S11338704021202000F020F9102000F0A5FF0320B3
S113388001F050F800BF80BD6666E63F80B590B099
S113389000AFF860B9607A603B6000233B7400239A
S11338A07B747B687B613B68BB6100233B770023AF
S11338B07B77FB683B62BB687B62012387F8383007
S11338C0002387F82830002387F830300123FB6277
S11338D002237B630423FB6307F1100319460548A5
S11338E000F0AEFC0121034800F06EFD00BF40373C
S11338F0BD4680BD0060044080B500AF00BF00F04D
S113390075FC0346002BFAD18020FFF7ABFD00BF06
S113391000F06CFC0346002BFAD14FF48070FFF7E3
S1133920A1FD00BF00F062FC0346002BFAD1042085
S113393000F060FF00BF80BD80B500AF012000F043
S113394059FF00BF80BD80B500AF022000F052FFD8
S113395000BF80BD90B583B000AF4FF000037B6023
S1133960FFF7B2FD7860D7ED017AB3EE0E7AF4EE8C
S1133970C77AF1EE10FA04DB05210520FFF728FFD2
S113398003E005210520FFF7E7FED7ED017AFDEE00
S1133990E77AF8EEE77A97ED017A77EE677AF5EE53
S11339A0407AF1EE10FA0BD1786801F011FA03466F
S11339B00C461A4623462549254802F06DF90AE0CB
S11339C0786801F005FA03460C461A462346214955
S11339D01F4802F061F94FF000033B60FFF7BCFDA4
S11339E03860D7ED007AFDEEE77AF8EEE77A97EDE6
S11339F0007A77EE677AF5EE407AF1EE10FA0BD1A1
S1133A00386801F0E5F903460C461A462346124984
S1133A10124802F041F90AE0386801F0D9F9034686
S1133A200C461A4623460E490C4802F035F920216B
S1133A30074800F06BF82021084800F067F8802060
S1133A4000F0D8FE00BF0C37BD4690BD0C770000D7
S1133A5054020020247700003C77000094020020E8
S1133A605077000080B500AF4FF4807000F0C2FEC4
S1133A7000BF80BD80B582B000AF102000F0BAFE58
S1133A800121074800F0A0FCFFF7D0FD0346FB71BD
S1133A902021044800F03AF800BF0837BD4680BD35
S1133AA0006004407C77000080B500AF202000F067
S1133AB0A1FE00BF80BD000080B58EB000AF78606D
S1133AC039604FF41653BB6000233B7305237B73AB
S1133AD00023BB730023FB7300233B614FF490531B
S1133AE07B621223FB610123BB6201233B6207F16A
S1133AF008031946044800F0E5FC00F017F800BF7D
S1133B003837BD4680BD00BF00A0044080B582B0F8
S1133B1000AF786039603A687968034800F0CCFDFA
S1133B2000BF0837BD4680BD00A0044080B400AF8C
S1133B30084B40225A64074B3F2283F84020054B30
S1133B4000229A64034B0022DA6400BFBD465DF88C
S1133B50047B7047D402002080B500AF01210D48DA
S1133B60FCF798FE002200210120FDF7AFFC0122A2
S1133B7001210020FDF7AAFC0A210748FDF7B4F94A
S1133B8001210648FCF786FE02210548FDF7ACF941
S1133B9000BF80BD4041050002001E0030253E00EC
S1133BA00300200080B500AF01212048FCF772FE1D
S1133BB000210520FEF77AFF0023042204210520BA
S1133BC0FEF7B4FF00210520FEF770FF0023042256
S1133BD005210520FEF7AAFF4FF001110120FEF791
S1133BE065FF012304220A210120FEF79FFF012320
S1133BF008220B210220FEF799FF012308220A2143
S1133C000220FEF793FF4FF480310320FEF74EFFAE
S1133C10012304220A210320FEF788FF0123012245
S1133C200B210320FEF782FF00BF80BD00350A0090
S1133C3080B483B000AF0346FB7197F90730002BC3
S1133C400BDBFB7903F01F02074997F907305B0987
S1133C50012000FA02F241F8232000BF0C37BD46D0
S1133C605DF8047B704700BF00E100E080B586B0DA
S1133C7000AF786039607B68404A934204D10121E7
S1133C803F48FCF707FE07E07B683E4A934203D1B6
S1133C9001213D48FCF7FEFD7B685B6B03F00103EB
S1133CA0002B08D17B6801229A637B685B6B7B687D
S1133CB00122DA6304E07B680122DA637B685B6BD0
S1133CC03B685B787B7201233B723B685B68FB60FB
S1133CD03B689B683B613B681B7B3B7507F10803B2
S1133CE019467868FFF7D2F83B681A693B685B6944
S1133CF01A437B689A643B689B7B1A463B685B7BF0
S1133D005B001A437B685A64786800F041F87B686A
S1133D105A6B7B68DA637B6800221A647B681B6CCD
S1133D2043F040027B681A647B681B6C43F080029A
S1133D307B681A647B681B6C43F020027B681A64FE
S1133D407B681B6C43F480727B681A643B689B69D4
S1133D500E4A13607B68094A934203D11120FFF78E
S1133D6067FF06E07B68074A934202D12A20FFF7E7
S1133D705FFF00BF1837BD4680BD00BF00C00040D4
S1133D800082040000C400400092040044030020A8
S1133D9080B485B000AF78607B689B6803F0010352
S1133DA0002B09D07B6820225A6000BF7B689B6887
S1133DB003F00103002BF9D17B681B6CFB607B686B
S1133DC000221A647B685A6B7B68DB6B1A437B683E
S1133DD0DA637B685B6843F040027B685A607B6807
S1133DE05B6843F003027B685A6000BF7B685B6BCF
S1133DF003F48073002BF9D07B685A6B7B68DB6B10
S1133E001A437B68DA637B68FA681A647B68202249
S1133E105A6000BF1437BD465DF8047B704700004C
S1133E2080B584B000AFF860B9607A603B60FB682D
S1133E309B68022000F076FD134AFB68D360124AA7
S1133E40BB685360104A7B6893600F4A3B681361F8
S1133E500D4ABB6953610C4AFB6993610A4A97F89E
S1133E6020301377084A97F824305377064B002202
S1133E701A70FB6801225A60BB685A00FB68DA6258
S1133E8000BF1037BD4680BD2403002080B582B03A
S1133E9000AF164B5A6B154B1B6C13407B60134AD7
S1133EA07B68D3637B6803F04003002B02D0104887
S1133EB000F054F87B6803F08003002B02D00C4818
S1133EC000F0CCF87B6803F02003002B02D00848F4
S1133ED000F0F8F87B6803F48073002B02D00448E8
S1133EE000F054F900BF0837BD4680BD00C0004053
S1133EF02403002080B582B000AF164B5A6B154BDB
S1133F001B6C13407B60134A7B68D3637B6803F0AC
S1133F104003002B02D0104800F020F87B6803F027
S1133F208003002B02D00C4800F098F87B6803F063
S1133F302003002B02D0084800F0C4F87B6803F487
S1133F408073002B02D0044800F020F900BF08372A
S1133F50BD4680BD00C400402403002080B582B06B
S1133F6000AF78607B685B7F002B30D07B681B7868
S1133F70052B6AD801A252F823F000BF953F000038
S1133F80A73F0000C73F00004B4000004B4000002B
S1133F904B4000007B6801221A707B68DB687A68FA
S1133FA09268DA6256E07B6802221A707B68DB68EA
S1133FB001225A607B685B685A007B68DB6842F0C8
S1133FC00102DA6246E07B6803221A7042E07B68F1
S1133FD01B78052B3BD801A252F823F0F53F0000D3
S1133FE04F400000074000004F4000004F400000D9
S1133FF02D4000007B6802221A707B68DB687A68B7
S11340009268DA6226E07B681A697B68DB6812686A
S1134010DA627B689B695A1E7B689A617B689B693C
S1134020002B16D17B6805221A7012E0022000F0E2
S113403059FC7B685B69184600F0C6FB7B6800226C
S11340401A707B6800221A7704E000BF02E000BF08
S113405000E000BF00BF0837BD4680BD80B483B018
S113406000AF78607B685B7F002B24D07B681B7873
S1134070052B1FD801A252F823F000BFB540000061
S1134080B540000095400000B5400000B540000078
S1134090B54000007B6802221A707B68DB6801224D
S11340A05A607B685B685A007B68DB6842F00102F7
S11340B0DA6200E000BF00BF0C37BD465DF8047B48
S11340C0704700BF80B483B000AF78607B685B7FCB
S11340D0002B55D07B681B78052B4ED801A252F8D3
S11340E023F000BF7B4100007B4100007B410000C6
S11340F0FD4000004F4100007B4100007B689B694C
S1134100022B0ED17B6804221A707B68DB68DA69A3
S11341107B681B6912021A607B68DB6804225A60A0
S11341202DE07B689B69012B29D17B6805221A70DD
S11341307B68DA687B681B69D2691A607B68DB6814
S113414008225A607B68DB6802225A6017E07B68A9
S113415005221A707B68DB68D9697B681B691A6859
S11341607B681B690A431A607B68DB6808225A6013
S11341707B68DB6802225A6002E000BF00E000BFF7
S113418000BF0C37BD465DF8047B704780B582B034
S113419000AF78607B685B7F002B23D07B681B7843
S11341A0052B1ED801A252F823F000BFE341000002
S11341B0E3410000E3410000E3410000E34100006B
S11341C0C5410000022000F08DFB7B6800221A70BC
S11341D07B685B69184600F0F7FA7B6800221A775F
S11341E000E000BF00BF0837BD4680BD80B400AF0B
S11341F0034B1B7F1846BD465DF8047B704700BF28
S11342002403002080B483B000AF0346FB7197F908
S11342100730002B0BDBFB7903F01F02074997F9EA
S113422007305B09012000FA02F241F8232000BFA5
S11342300C37BD465DF8047B704700BF00E100E029
S113424080B588B000AF786039607B68584A934283
S113425003D101215748FCF71DFB0021786800F0C9
S1134260B3F87B6807229A623B681B7E002B02D05E
S11342707B680122DA623B6893F82030002B02D07D
S11342807B680222DA623B6893F82830002B02D064
S11342907B680422DA623B68DB69474A13603B6847
S11342A05B6A464A13603B68DB6A454A13607B6875
S11342B001225A6000BF7B685B6B002BFBD17B68DB
S11342C09B687B6802225A6000BF7B685B6B002B93
S11342D0FBD17B680022DA600023FB720123BB72EE
S11342E03B681B787B723B685B783B7200233B73B3
S11342F000237B7300233B740323BB730323FB73EF
S113430007F1080319467868FEF722FE00BF7B68B0
S11343105B6B002BFBD13B68D3ED047A9FED297ACC
S113432067EE877AFCEEE77A17EE903AFB613B681A
S1134330D3ED057A9FED237A67EE877AFCEEE77A70
S113434017EE903ABB617B68FA691A617B68BA69B7
S11343505A617B6801229A617B680122DA613B68B9
S11343605A683B689B681A437B685A643B681B7BAA
S11343701A463B685B7B5B001A437B681A643B68A4
S11343801B7E002B09D13B6893F82030002B04D10D
S11343903B6893F82830002B02D01B20FFF732FF34
S11343A0042000F0BFFA00BF2037BD4680BD00BF27
S11343B00060044080061600480300204C030020DF
S11343C05003002000007A4480B582B000AF7860CA
S11343D00B46FB70FB7883F00103DBB2002B02D0A9
S11343E0042000F07FFAFB7819467868FEF798FD00
S11343F0FB7883F00103DBB2002B04D000BF7B68A1
S11344005B6B002BFBD100BF0837BD4680BD0000AD
S113441080B582B000AF184B1A6A174BDB6A1340A1
S11344207B60154A7B6893627B6803F00103002B71
S113443006D0124B1B68184600F0C6F90E4B1B6AD7
S11344407B6803F00203002B06D00D4B1B68184653
S113445000F0BAF9084B1B6A7B6803F00403002BD5
S113446006D0084B1B68184600F0AEF9024B1B6AD5
S113447000BF0837BD4680BD0060044048030020EB
S11344804C0300205003002080B483B000AF0346E7
S1134490FB7197F90730002B0BDBFB7903F01F024C
S11344A0074997F907305B09012000FA02F241F845
S11344B0232000BF0C37BD465DF8047B704700BF66
S11344C000E100E080B586B000AF786039607B68B9
S11344D0324A934203D101213148FCF7DBF97B686E
S11344E01B6903F00103002B08D17B6801221A61C8
S11344F07B681B697B6801221A6104E07B680122E6
S11345001A617B681B693B681B683B613B681B79CC
S11345103B753B685B793B723B689B797B753B6879
S1134520DB79BB753B689B68FB6007F108031946A0
S11345307868FEF711FE3B685A693B68DB691A43E9
S11345407B689A653B689A693B681B6A5B001A43FF
S11345507B685A654021786800F0FAF88021786811
S113456000F0F6F83B7A19467868FEF7BBFD00BF09
S11345707B689B6803F00303002BF9D07B689B687E
S11345807B689B687B68054A934202D11620FFF73B
S11345907BFF00BF1837BD4680BD00BF00A00440AC
S11345A090171A0080B582B000AF0E4BDA6A0D4B3B
S11345B09B6B13407B600B4A7B6853637B6803F0FF
S11345C00203002B02D0084800F010F87B6803F0C7
S11345D00103002B02D0044800F048F800BF08375C
S11345E0BD4680BD00A004405403002080B582B0C5
S11345F000AF78607B681B78012B04D0022B2CD091
S1134600002B2CD02EE07B68D8687B685B687A68C6
S113461013441B7C194600F0AEF87B685B685A1C97
S11346207B685A607B685A687B689B68013B9A4246
S113463017D17B68DB689A6B7B68DB6842F0010208
S11346409A637B68DB689A6B7B68DB6822F0020202
S11346509A637B6802221A7003E000BF02E000BF85
S113466000E000BF00BF0837BD4680BD80B582B002
S113467000AF78607B681B78012B16D0022B02D028
S1134680002B14D014E07B68DB689A6B7B68DB68D2
S113469022F001029A637B6800225A70032000F022
S11346A021F9202000F090F802E000BF00E000BFF4
S11346B000BF0837BD4680BD80B586B000AFF86046
S11346C0B9607A6000BFF86800F034F80346002B44
S11346D0F9D1FDF7FBF87861144B00225A60134AB4
S11346E0FB68D360B968124801F0F6FAB86801F0C3
S11346F0FBFA02460D4B9A600C4B01225A700B4B8D
S113470001221A70094A7B681366032000F00AF933
S1134710FB689B6B43F00202FB689A637869FDF7C0
S1134720E5F800BF1837BD4680BD00BF5403002024
S11347306403002080B483B000AF7860034B5B78DF
S113474018460C37BD465DF8047B704754030020BF
S113475080B483B000AF786039607B683A685A608F
S113476000BF7B685B6C002BFBD100BF0C37BD46E0
S11347705DF8047B704780B483B000AF78600B466B
S1134780FB7000BF7B68DB6A03F00203002BF9D0E7
S1134790FA787B689A6200BF0C37BD465DF8047BEB
S11347A07047000080B582B000AFFDF78FF87860E5
S11347B0044B00221A607868FDF798F800BF0837A8
S11347C0BD4680BDB803002080B584B000AF7860DA
S11347D0FDF77CF8F860064B1A687B681343044ABB
S11347E01360F868FDF782F800BF1037BD4680BD3E
S11347F0B803002080B584B000AF7860FDF766F898
S1134800F8607B68DA43064B1B681340044A136064
S1134810F868FDF76BF800BF1037BD4680BD00BFD8
S1134820B803002080B400AF034B1B681846BD4694
S11348305DF8047B704700BFB803002080B400AF6C
S1134840054B1B69044A23F00403136130BF00BF06
S1134850BD465DF8047B704700ED00E080B483B092
S113486000AF00237B6007E0084A7B68002142F820
S113487023107B6801337B607B68042BF4D900BF71
S11348800C37BD465DF8047B704700BFBC030020B5
S113489080B582B000AFFDF719F87860104B1B6843
S11348A0002B15DC0E4B5B68002B11DC0C4B9B685A
S11348B0002B02DDFFF7C2FF0AE0094BDB68002B87
S11348C003DD0120FDF7FEF902E00120FDF742FAC5
S11348D07868FDF70BF800BF0837BD4680BD00BF00
S11348E0BC03002080B584B000AF7860FCF7EEFF15
S11348F0F8600B4A7B6852F82330002B08DD084A25
S11349007B6852F823305A1E05497B6841F82320FE
S1134910F868FCF7EBFF00BF1037BD4680BD00BF51
S1134920BC03002080B584B000AF7860FCF7CEFFF4
S1134930F860084A7B6852F823305A1C05497B68A2
S113494041F82320F868FCF7D1FF00BF1037BD46BB
S113495080BD00BFBC03002080B400AF044BDB6CFF
S11349601B0EDBB21846BD465DF8047B704700BFE2
S1134970B081E00F80B582B000AF194B01225A64B8
S1134980FFF7EAFF0346FB71FB79002B0CD1154BB3
S11349904AF6E8521A60144B1B68134A43F00403A6
S11349A01360104B00221A60FB79012B05D80F4BC2
S11349B01B680E4A43F4005313600D4B1B6A23F427
S11349C044130B4A43F4881313620A4B1B68094AC5
S11349D043F4F843136000BF0837BD4680BD00BFF1
S11349E000000E4090310E4098310E4064310E406C
S11349F000400E40A4310E40B0B58AB000AF3F4B2A
S1134A0007F118040FCB84E80F003D4B3C1D1D46F5
S1134A100FCD0FC42B682380FFF7ACFF00233B703E
S1134A2000237B7007F118031846FDF709FD0223E4
S1134A307B703B461846FDF777FA3B1D1846FCF79A
S1134A40D3FC3048FCF740FC012201210320FCF791
S1134A503DFD05211120FCF747FA00220021022028
S1134A60FCF734FDFEF7F0FEFFF7DCFEFFF7DAFE9D
S1134A700346002B01D1FFF70BFFFFF7D3FE0346DC
S1134A8003F00403002B01D0FEF736FFFFF7CAFE44
S1134A90034603F00103002B01D0FEF74DFFFFF79F
S1134AA0C1FE034603F00203002B01D0FEF74BFFC7
S1134AB0FFF7B8FE034603F08003002B01D0FEF796
S1134AC049FFFFF7AFFE034603F48073002B01D0C8
S1134AD0FEF7C8FFFFF7A6FE034603F01003002B02
S1134AE001D0FEF7C7FFFFF79DFE034603F0200346
S1134AF0002BBBD0FEF7D8FFB8E700BF8C770000CF
S1134B009C770000C0EA210181F0004102E000BF6F
S1134B1083F0004330B54FEA41044FEA430594EA79
S1134B20050F08BF90EA020F1FBF54EA000C55EAB4
S1134B30020C7FEA645C7FEA655C00F0E2804FEA85
S1134B405454D4EB5555B8BF6D420CDD2C4480EA67
S1134B50020281EA030382EA000083EA010180EA97
S1134B60020281EA0303362D88BF30BD11F0004FE5
S1134B704FEA01314FF4801C4CEA113102D040421B
S1134B8061EB410113F0004F4FEA03334CEA133356
S1134B9002D0524263EB430394EA050F00F0A7806E
S1134BA0A4F10104D5F1200E0DDB02FA0EFC22FA69
S1134BB005F2801841F1000103FA0EF2801843FA5D
S1134BC005F359410EE0A5F120050EF1200E012A4E
S1134BD003FA0EFC28BF4CF0020C43FA05F3C0188C
S1134BE051EBE37101F0004507D54FF0000EDCF105
S1134BF0000C7EEB00006EEB0101B1F5801F1BD3AE
S1134C00B1F5001F0CD349085FEA30004FEA3C0CB1
S1134C1004F101044FEA445212F5800F80F09A80A7
S1134C20BCF1004F08BF5FEA500C50F1000041EBAB
S1134C30045141EA050130BD5FEA4C0C404141EBAF
S1134C40010111F4801FA4F10104E9D191F0000FD6
S1134C5004BF01460020B1FA81F308BF2033A3F159
S1134C600B03B3F120020CDA0C3208DD02F1140C50
S1134C70C2F10C0201FA0CF021FA02F10CE002F18B
S1134C801402D8BFC2F1200C01FA02F120FA0CFC84
S1134C90DCBF41EA0C019040E41AA2BF01EB0451CD
S1134CA0294330BD6FEA04041F3C1CDA0C340EDCCB
S1134CB004F11404C4F1200220FA04F001FA02F30E
S1134CC040EA030021FA04F345EA030130BDC4F1CC
S1134CD00C04C4F1200220FA02F001FA04F340EAC1
S1134CE00300294630BD21FA04F0294630BD94F072
S1134CF0000F83F4801306BF81F480110134013D59
S1134D004EE77FEA645C18BF7FEA655C29D094EAC9
S1134D10050F08BF90EA020F05D054EA000C04BF47
S1134D201946104630BD91EA030F1EBF0021002032
S1134D3030BD5FEA545C05D14000494128BF41F0D1
S1134D40004130BD14F580043CBF01F5801130BD35
S1134D5001F0004545F0FE4141F470014FF00000C0
S1134D6030BD7FEA645C1ABF194610467FEA655C71
S1134D701CBF0B46024650EA013406BF52EA033513
S1134D8091EA030F41F4002130BD00BF90F0000F01
S1134D9004BF0021704730B54FF4806404F132043D
S1134DA04FF000054FF0000150E700BF90F0000FF6
S1134DB004BF0021704730B54FF4806404F132041D
S1134DC010F0004548BF40424FF000013EE700BFED
S1134DD042004FEAE2014FEA31014FEA02701FBF7D
S1134DE012F07F4393F07F4F81F06051704732F0AF
S1134DF07F4208BF704793F07F4F04BF41F4002106
S1134E00704730B54FF4607401F0004521F0004163
S1134E101CE700BF50EA010208BF704730B54FF0ED
S1134E2000050AE050EA010208BF704730B511F0EE
S1134E30004502D5404261EB41014FF4806404F126
S1134E4032045FEA915C3FF4D8AE4FF003025FEAAC
S1134E50DC0C18BF03325FEADC0C18BF033202EB30
S1134E60DC02C2F1200300FA03FC20FA02F001FA8A
S1134E7003FE40EA0E0021FA02F11444BDE600BF2D
S1134E8070B54FF0FF0C4CF4E06C1CEA11541DBFDC
S1134E901CEA135594EA0C0F95EA0C0F00F0DEF8A7
S1134EA02C4481EA030621EA4C5123EA4C5350EA8C
S1134EB0013518BF52EA033541F4801143F48013DD
S1134EC038D0A0FB02CE4FF00005E1FB02E506F06E
S1134ED00042E0FB03E54FF00006E1FB03569CF0C3
S1134EE0000F18BF4EF0010EA4F1FF04B6F5007FC9
S1134EF064F5407404D25FEA4E0E6D4146EB06063B
S1134F0042EAC62141EA55514FEAC52040EA5E50C3
S1134F104FEACE2EB4F1FD0C88BFBCF5E06F1ED86D
S1134F20BEF1004F08BF5FEA500E50F1000041EBA4
S1134F30045170BD06F0004646EA010140EA020051
S1134F4081EA0301B4EB5C04C2BFD4EB0C0541EA73
S1134F50045170BD41F480114FF0000E013C00F388
S1134F60AB8014F1360FDEBF002001F0004170BDAC
S1134F70C4F10004203C35DA0C341BDC04F11404C5
S1134F80C4F1200500FA05F320FA04F001FA05F251
S1134F9040EA020001F0004221F0004110EBD3701E
S1134FA021FA04F642EB06015EEA430E08BF20EA4A
S1134FB0D37070BDC4F10C04C4F1200500FA04F3ED
S1134FC020FA05F001FA04F240EA020001F000417F
S1134FD010EBD37041F100015EEA430E08BF20EAF2
S1134FE0D37070BDC4F1200500FA05F24EEA020E3A
S1134FF020FA04F301FA05F243EA020321FA04F069
S113500001F0004121FA04F220EA020000EBD3701F
S11350105EEA430E08BF20EAD37070BD94F0000F1F
S11350200FD101F00046400041EB010111F4801F53
S113503008BF013CF7D041EA060195F0000F18BF04
S1135040704703F00046520043EB030313F4801F40
S113505008BF013DF7D043EA0603704794EA0C0FFA
S11350600CEA135518BF95EA0C0F0CD050EA410610
S113507018BF52EA4306D1D181EA030101F000418D
S11350804FF0000070BD50EA410606BF10461946B5
S113509052EA430619D094EA0C0F02D150EA0136C1
S11350A013D195EA0C0F05D152EA03361CBF104602
S11350B019460AD181EA030101F0004141F0FE41A1
S11350C041F470014FF0000070BD41F0FE4141F425
S11350D0780170BD70B54FF0FF0C4CF4E06C1CEA25
S11350E011541DBF1CEA135594EA0C0F95EA0C0FDA
S11350F000F0A7F8A4EB050481EA030E52EA033595
S11351004FEA013100F088804FEA03334FF08055B5
S113511045EA131343EA12634FEA022245EA1115E2
S113512045EA10654FEA00260EF000419D4208BF93
S1135130964244F1FD0404F5407402D25B084FEA40
S11351403202B61A65EB03055B084FEA32024FF4EC
S113515080104FF4002CB6EB020E75EB030E22BF49
S1135160B61A754640EA0C005B084FEA3202B6EB09
S1135170020E75EB030E22BFB61A754640EA5C00B8
S11351805B084FEA3202B6EB020E75EB030E22BF48
S1135190B61A754640EA9C005B084FEA3202B6EB49
S11351A0020E75EB030E22BFB61A754640EADC0008
S11351B055EA060E18D04FEA051545EA16754FEA6A
S11351C006164FEAC30343EA52734FEAC2025FEA88
S11351D01C1CC0D111F4801F0BD141EA00014FF017
S11351E000004FF0004CB6E711F4801F04BF0143E8
S11351F00020B4F1FD0C88BFBCF5E06F3FF6AFAE04
S1135200B5EB030C04BFB6EB020C5FEA500C50F193
S1135210000041EB045170BD0EF0004E4EEA113116
S113522014EB5C04C2BFD4EB0C0541EA045170BD1D
S113523041F480114FF0000E013C90E645EA060E61
S11352408DE60CEA135594EA0C0F08BF95EA0C0F8F
S11352503FF43BAF94EA0C0F0AD150EA01347FF4D7
S113526034AF95EA0C0F7FF425AF104619462CE7AE
S113527095EA0C0F06D152EA03353FF4FDAE104611
S1135280194622E750EA410618BF52EA43067FF462
S1135290C5AE50EA41047FF40DAF52EA43057FF4F2
S11352A0EBAE12E74FEA4102B2F1E04324BFB3F59B
S11352B0001CDCF1FE5C0DD901F0004C4FEAC00289
S11352C04CEA5070B2F1004F40EB830008BF20F06D
S11352D00100704711F0804F21D113F13872BCBF27
S11352E001F00040704741F480114FEA5252C2F17C
S11352F01802C2F1200C10FA0CF320FA02F018BFC5
S113530040F001004FEAC1234FEAD32303FA0CFC17
S113531040EA0C0023FA02F34FEA4303CCE77FEAA6
S1135320625307D150EA01331EBF4FF0FE4040F4F0
S11353304000704701F0004040F0FE4040F400009F
S1135340704700BF08B5074B044613B10021AFF303
S11353500080054B1868836A03B19847204602F021
S1135360E7F800BF00000000B077000070B50D4EF4
S11353700D4CA41BA4100025A54209D10B4E0C4CC6
S113538002F09EF9A41BA4100025A54205D170BD0E
S113539056F8253098470135EEE756F825309847FA
S11353A00135F2E70C0200200C0200200C02002060
S11353B01002002010B5431E0A44914200D110BDD2
S11353C011F8014B03F8014FF7E7024403469342F7
S11353D000D1704703F8011BF9E72DE9F04788B0C5
S11353E0002B149F109EDDE9121A1D4627F020079A
S11353F0BBBF03F100431D4600232D231446B8BF51
S11354001446462F0B7004D0452F00D101360223D9
S113541000E0032307AA049206AACDE902A2CDE97B
S1135420003622462B4600F0F3FC472F804602D17B
S1135430119BDB0726D5462F08EB060911D198F8F6
S11354400030302B0AD1002200232046294602F0E6
S1135450C7F818B9C6F10106CAF80060DAF80030D6
S11354609944002200232046294602F0B9F838B9AD
S11354703022079B4B4505D2591C07911A70F8E757
S1135480CDF81C90079B159AA3EB080340461360C4
S113549008B0BDE8F087F7B500290446BABF494211
S11354A02D232B23092904F8022B437020DD0DF151
S11354B007031F460A2691FBF6F506FB151130314A
S11354C0092D03F8011C03F1FF32294609DC3031B0
S11354D0023B02F8011CBB42224604D3101A03B05B
S11354E0F0BD1346E7E713F8012B04F8012BF2E7AC
S11354F0302319448370021DC170EFE72DE9F04F8A
S113550091B00C46DDF8688016461F46054601F04A
S11355103DFA03680893184600F0E6FB00230E9357
S1135520D8F800300990073323F0070303F1080289
S113553094F818A0D4F800B0C8F80020D3E90023E8
S1135540C4E91223D4E9128929F000430B93CDF85E
S113555028804FF0FF32A94BDDE90A0102F072F80E
S113556070BB4FF0FF32A54BDDE90A0102F04CF8A5
S113557030BB002200234046494602F03BF810B1FC
S11355802D2384F843309E4A9E4BBAF1470F8CBFBB
S113559090469846032323612BF0040323604FF0C5
S11355A00009009733460FAA2146284600F0ECF97B
S11355B0013040F090804FF0FF3011B0BDE8F08F23
S11355C042464B464046494602F03CF810B18E4AEA
S11355D08E4BDAE76368591C4BF480620EA90DA860
S11355E040D1062363600DF13303CDE901234FF06D
S11355F0000C63682260CDE9030A009342464B46DF
S1135600CDE9051C2846FFF7E8FE0AF0DF03472B27
S1135610804609D10D9BD81C02DB6268934247DDAA
S1135620AAF1020A5FFA8AFABAF1650F0D9924D831
S11356300139524604F150000D91FFF72CFF0E9AE8
S11356401318012A8146236102DC2268D10701D59F
S1135650013323619DF83330002BA2D02D2384F82D
S113566043309EE7BAF1670F00F07881BAF1470F33
S1135670B9D1002BB7D10123B4E7BAF1660F19D120
S1135680002963680CDD216113B92268D20702D5B1
S113569001330B4423610D9BA3654FF00009D9E747
S11356A013B92268D00701D50233F3E70123F1E7E8
S11356B04FF0670ADDE90D32934205DB226823616E
S11356C0D107E8D50133E5E7002BD4BFC3F10203CA
S11356D001231344DEE723685A0507D423694246AD
S11356E031462846B84701302BD164E7BAF1650F3B
S11356F040F2DD8000220023D4E9120101F070FFA2
S1135700002833D00123424A31462846B8470130A5
S11357103FF451AFDDE90D239A4202DB2368D80739
S11357200FD5DDE9082331462846B84701303FF458
S113573042AF4FF0000804F11A090E9B013B4345A8
S113574009DC23689B0700F10481E0680F9B984201
S1135750B8BF184631E701234A4631462846B847C0
S113576001303FF428AF08F10108E6E70D9B002B58
S11357702BDC0123264A31462846B84701303FF442
S11357801AAF0D9B23B90E9B13B92368D907D8D53B
S1135790DDE9082331462846B84701303FF40BAF12
S11357A04FF0000904F11A0A0D9B5B424B4501DCE2
S11357B00E9B94E70123524631462846B8470130F0
S11357C03FF4F9AE09F10109EEE70E9AA36D9A428E
S11357D0A8BF1A46002A914607DD134631464246C1
S11357E02846B84701303FF4E6AE04F11A034FF0FF
S11357F0000B29EAE9790A9316E000BFFFFFEF7F67
S1135800B8770000B4770000C0770000BC770000D0
S1135810C477000001230A9A31462846B84701306C
S11358203FF4C9AE0BF1010BD4F858A0AAEB09035D
S11358305B45EFDCDDE90D239A42D04415DB236898
S1135840DA0712D40E9B0D99A3EB0A02A3EB010A0B
S11358509245A8BF9246BAF1000F0EDC4FF0000843
S11358602AEAEA7A04F11A0919E0DDE90823314643
S11358702846B8470130E5D19DE6534642463146B5
S11358802846B8470130E9D195E601234A46314616
S11358902846B84701303FF48EAE08F10108DDE92F
S11358A00D239B1AA3EB0A034345EEDC49E70E9A4A
S11358B0012A01DCDB073AD501234246314628465A
S11358C0B84701303FF477AEDDE908233146284676
S11358D0B847013008F101083FF46DAE0E9B002279
S11358E003F1FF3AD4E91201002301F079FEC8B9AB
S11358F05346424631462846B84701300ED15AE64F
S11359000123524631462846B84701303FF453AE8E
S113591008F101080E9B013B4345F1DC4B4604F1C1
S11359205002DDE64FF0000804F11A0AF2E7012301
S1135930DFE701234A4631462846B84701303FF4A1
S11359403AAE08F10108E3680F9A9B1A4345F0DC6C
S1135950FBE64FF0000804F11909F4E7002B3FF4CB
S11359608AAE4FF0000CCDE9051C0DF13301226025
S1135970CDE9030ACDE90121009342464B4628466E
S1135980FFF72BFD804645E62DE9F04791461F467B
S11359908A680B69DDF820809342B8BF1346C9F8C2
S11359A0003091F8432006460C4612B10133C9F881
S11359B000302368990642BFD9F800300233C9F891
S11359C00030256815F0060507D104F1190AE368CB
S11359D0D9F800209B1AAB4228DC94F843302268A3
S11359E0003318BF012392062DD404F14302394633
S11359F03046C047013020D02368E568D9F800203C
S1135A0003F00603042B08BFAD1AA36822690CBF78
S1135A1025EAE57500259342C4BF9B1AED184FF0A3
S1135A2000091A344D451AD1002008E001235246DA
S1135A3039463046C047013003D14FF0FF30BDE84E
S1135A40F0870135C3E7E1185A1C302081F8430080
S1135A50224494F8451082F843100233C5E7012329
S1135A60224639463046C0470130E6D009F10109E3
S1135A70D8E700002DE9F04301F1430C0C46097E00
S1135A8085B06E291746064698460C9A00F0B380F6
S1135A9022D8632936D00AD8002900F0B9805829C1
S1135AA000F0838004F1420584F8421032E0642956
S1135AB001D06929F6D120681368050603F10401B1
S1135AC02AD51B681160002B03DA2D225B4284F86F
S1135AD043206F480A2239E0732900F09D8008D8DA
S1135AE06F2920D07029DDD1236843F0200323607F
S1135AF003E0752917D07829D4D1782384F8453068
S1135B00644855E01368191D1B68116004F14205CF
S1135B1084F8423001238CE01B68116010F0400FC0
S1135B2018BF1BB2CFE713682568181D106028063C
S1135B3001D51B6802E06806FBD51B8854486F2911
S1135B4014BF0A220822002184F843106568A56066
S1135B50002DC0F29580216821F004012160002B02
S1135B603DD1002D40F08E806546082A0BD1236874
S1135B70DB0708D5236962689A42DEBF302305F843
S1135B80013C05F1FF35ACEB05032361CDF8008042
S1135B903B4603AA21463046FFF7F6FE01304DD1BD
S1135BA04FF0FF3005B0BDE8F083394884F8451064
S1135BB0136821681D1D1B6815600A060BD5CA07EA
S1135BC044BF41F0200121601BB9226822F0200269
S1135BD022601022B7E74D0648BF9BB2EFE7654647
S1135BE0B3FBF2F102FB1133C35C05F8013D0B4634
S1135BF00029F5D1B9E7136825686169181D10609B
S1135C0028061B6801D5196002E06A06FBD51980D5
S1135C10002323616546B9E71368191D11601D68E7
S1135C2062680021284600F0CBFE08B1401B60608A
S1135C3063682361002384F84330A7E723692A4675
S1135C4039463046C0470130AAD023689B0713D495
S1135C50E068039B9842B8BF1846A3E701234A466D
S1135C6039463046C04701309AD00135E368039A7B
S1135C709B1AAB42F2DCEBE7002504F11909F5E7C6
S1135C80002BACD1037884F8423004F142056CE770
S1135C90C6770000D77700000EB400B59CB01DABEA
S1135CA0029006906FF00041094807910491094958
S1135CB053F8042B05910068019302A901F0BCFA82
S1135CC0029B00221A701CB05DF804EB03B070470D
S1135CD0140000200802FFFF034611F8012B03F80B
S1135CE0012B002AF9D17047034613F8012B002A2F
